:020000040800F2
:10000000000002201D2600082925000837250008C9
:100010003D25000843250008492500080000000090
:100020000000000000000000000000004F25000854
:100030005D250008000000006B25000879250008F8
:100040006D2600086D2600086D2600086D26000844
:100050006D2600086D2600086D2600086D26000834
:100060006D2600086D2600086D2600086D26000824
:100070006D2600086D2600086D2600086D26000814
:100080006D2600086D2600086D2600086D26000804
:100090006D2600086D2600086D2600086D260008F4
:1000A0006D2600086D2600086D2600086D260008E4
:1000B0006D2600086D2600086D2600086D260008D4
:1000C0006D2600086D2600086D2600086D260008C4
:1000D0006D2600086D2600086D2600086D260008B4
:1000E0006D2600086D2600086D2600086D260008A4
:1000F0006D2600086D2600086D2600086D26000894
:100100006D2600086D2600086D2600086D26000883
:100110006D2600086D2600086D260008852500085C
:100120006D2600086D2600086D2600086D26000863
:100130006D2600086D2600086D2600086D26000853
:100140006D2600086D2600086D2600086D26000843
:100150006D2600086D2600086D2600086D26000833
:100160006D2600086D2600086D2600086D26000823
:100170006D2600086D2600086D26000800000000AE
:080180006D2600086D26000841
:1001880010B5054C237833B9044B13B10448AFF3C9
:1001980000800123237010BDDC0300200000000054
:1001A800B45F000808B5034B1BB103490348AFF31C
:1001B800008008BD00000000E0030020B45F0008D4
:1001C800034613F8012B002AFBD1181A013870478F
:1001D80081F0004102E000BF83F0004330B54FEAF0
:1001E80041044FEA430594EA050F08BF90EA020F5D
:1001F8001FBF54EA000C55EA020C7FEA645C7FEAF0
:10020800655C00F0E2804FEA5454D4EB5555B8BF12
:100218006D420CDD2C4480EA020281EA030382EA83
:10022800000083EA010180EA020281EA0303362D15
:1002380088BF30BD11F0004F4FEA01314FF4801CE8
:100248004CEA113102D0404261EB410113F0004FFA
:100258004FEA03334CEA133302D0524263EB4303B1
:1002680094EA050F00F0A780A4F10104D5F1200E4F
:100278000DDB02FA0EFC22FA05F2801841F10001AA
:1002880003FA0EF2801843FA05F359410EE0A5F17E
:1002980020050EF1200E012A03FA0EFC28BF4CF0AF
:1002A800020C43FA05F3C01851EBE37101F0004565
:1002B80007D54FF0000EDCF1000C7EEB00006EEB72
:1002C8000101B1F5801F1BD3B1F5001F0CD34908FC
:1002D8005FEA30004FEA3C0C04F101044FEA445253
:1002E80012F5800F80F09A80BCF1004F08BF5FEADA
:1002F800500C50F1000041EB045141EA050130BDBA
:100308005FEA4C0C404141EB010111F4801FA4F15C
:100318000104E9D191F0000F04BF01460020B1FAB1
:1003280081F308BF2033A3F10B03B3F120020CDAE9
:100338000C3208DD02F1140CC2F10C0201FA0CF0C7
:1003480021FA02F10CE002F11402D8BFC2F1200C2C
:1003580001FA02F120FA0CFCDCBF41EA0C019040E2
:10036800E41AA2BF01EB0451294330BD6FEA04042B
:100378001F3C1CDA0C340EDC04F11404C4F1200216
:1003880020FA04F001FA02F340EA030021FA04F328
:1003980045EA030130BDC4F10C04C4F1200220FA7F
:1003A80002F001FA04F340EA0300294630BD21FABD
:1003B80004F0294630BD94F0000F83F4801306BF83
:1003C80081F480110134013D4EE77FEA645C18BF77
:1003D8007FEA655C29D094EA050F08BF90EA020F0E
:1003E80005D054EA000C04BF1946104630BD91EA06
:1003F800030F1EBF0021002030BD5FEA545C05D109
:100408004000494128BF41F0004130BD14F5800447
:100418003CBF01F5801130BD01F0004545F0FE41BB
:1004280041F470014FF0000030BD7FEA645C1ABFF0
:10043800194610467FEA655C1CBF0B46024650EA27
:10044800013406BF52EA033591EA030F41F4002153
:1004580030BD00BF90F0000F04BF0021704730B5D9
:100468004FF4806404F132044FF000054FF00001AE
:1004780050E700BF90F0000F04BF0021704730B56F
:100488004FF4806404F1320410F0004548BF404244
:100498004FF000013EE700BF42004FEAE2014FEA99
:1004A80031014FEA02701FBF12F07F4393F07F4F74
:1004B80081F06051704732F07F4208BF704793F077
:1004C8007F4F04BF41F40021704730B54FF460748A
:1004D80001F0004521F000411CE700BF50EA01028D
:1004E80008BF704730B54FF000050AE050EA010236
:1004F80008BF704730B511F0004502D5404261EBA6
:1005080041014FF4806404F132045FEA915C3FF4E6
:10051800D8AE4FF003025FEADC0C18BF03325FEA83
:10052800DC0C18BF033202EBDC02C2F1200300FA34
:1005380003FC20FA02F001FA03FE40EA0E0021FA59
:1005480002F11444BDE600BF70B54FF0FF0C4CF447
:10055800E06C1CEA11541DBF1CEA135594EA0C0FF9
:1005680095EA0C0F00F0DEF82C4481EA030621EA34
:100578004C5123EA4C5350EA013518BF52EA03356F
:1005880041F4801143F4801338D0A0FB02CE4FF021
:100598000005E1FB02E506F00042E0FB03E54FF051
:1005A8000006E1FB03569CF0000F18BF4EF0010E49
:1005B800A4F1FF04B6F5007F64F5407404D25FEA45
:1005C8004E0E6D4146EB060642EAC62141EA5551F8
:1005D8004FEAC52040EA5E504FEACE2EB4F1FD0C3A
:1005E80088BFBCF5E06F1ED8BEF1004F08BF5FEAB8
:1005F800500E50F1000041EB045170BD06F000466A
:1006080046EA010140EA020081EA0301B4EB5C0416
:10061800C2BFD4EB0C0541EA045170BD41F480110E
:100628004FF0000E013C00F3AB8014F1360FDEBF33
:10063800002001F0004170BDC4F10004203C35DA0F
:100648000C341BDC04F11404C4F1200500FA05F392
:1006580020FA04F001FA05F240EA020001F0004233
:1006680021F0004110EBD37021FA04F642EB0601A9
:100678005EEA430E08BF20EAD37070BDC4F10C04D3
:10068800C4F1200500FA04F320FA05F001FA04F297
:1006980040EA020001F0004110EBD37041F1000183
:1006A8005EEA430E08BF20EAD37070BDC4F120058E
:1006B80000FA05F24EEA020E20FA04F301FA05F2F6
:1006C80043EA020321FA04F001F0004121FA04F29E
:1006D80020EA020000EBD3705EEA430E08BF20EA6E
:1006E800D37070BD94F0000F0FD101F000464000A8
:1006F80041EB010111F4801F08BF013CF7D041EA2A
:10070800060195F0000F18BF704703F0004652002D
:1007180043EB030313F4801F08BF013DF7D043EAFE
:100728000603704794EA0C0F0CEA135518BF95EAB4
:100738000C0F0CD050EA410618BF52EA4306D1D13B
:1007480081EA030101F000414FF0000070BD50EA5A
:10075800410606BF1046194652EA430619D094EAE4
:100768000C0F02D150EA013613D195EA0C0F05D1CE
:1007780052EA03361CBF104619460AD181EA030122
:1007880001F0004141F0FE4141F470014FF00000DA
:1007980070BD41F0FE4141F4780170BD70B54FF075
:1007A800FF0C4CF4E06C1CEA11541DBF1CEA1355F5
:1007B80094EA0C0F95EA0C0F00F0A7F8A4EB0504D7
:1007C80081EA030E52EA03354FEA013100F08880CE
:1007D8004FEA03334FF0805545EA131343EA126397
:1007E8004FEA022245EA111545EA10654FEA00264C
:1007F8000EF000419D4208BF964244F1FD0404F505
:10080800407402D25B084FEA3202B61A65EB030560
:100818005B084FEA32024FF480104FF4002CB6EB1D
:10082800020E75EB030E22BFB61A754640EA0C009D
:100838005B084FEA3202B6EB020E75EB030E22BFDD
:10084800B61A754640EA5C005B084FEA3202B6EB1E
:10085800020E75EB030E22BFB61A754640EA9C00DD
:100868005B084FEA3202B6EB020E75EB030E22BFAD
:10087800B61A754640EADC0055EA060E18D04FEA6B
:10088800051545EA16754FEA06164FEAC30343EA0B
:1008980052734FEAC2025FEA1C1CC0D111F4801FD8
:1008A8000BD141EA00014FF000004FF0004CB6E7D1
:1008B80011F4801F04BF01430020B4F1FD0C88BF70
:1008C800BCF5E06F3FF6AFAEB5EB030C04BFB6EB7B
:1008D800020C5FEA500C50F1000041EB045170BD6E
:1008E8000EF0004E4EEA113114EB5C04C2BFD4EB9B
:1008F8000C0541EA045170BD41F480114FF0000E1F
:10090800013C90E645EA060E8DE60CEA135594EA9A
:100918000C0F08BF95EA0C0F3FF43BAF94EA0C0F9D
:100928000AD150EA01347FF434AF95EA0C0F7FF412
:1009380025AF104619462CE795EA0C0F06D152EA66
:1009480003353FF4FDAE1046194622E750EA41064A
:1009580018BF52EA43067FF4C5AE50EA41047FF45B
:100968000DAF52EA43057FF4EBAE12E74FF0FF3CC0
:1009780006E000BF4FF0010C02E000BF4FF0010C91
:100988004DF804CD4FEA410C7FEA6C5C4FEA430C0A
:1009980018BF7FEA6C5C1BD001B050EA410C0CBF59
:1009A80052EA430C91EA030F02BF90EA020F0020BB
:1009B800704710F1000F91EA030F58BF994208BF22
:1009C80090422CBFD8176FEAE37040F001007047DF
:1009D8004FEA410C7FEA6C5C02D150EA013C07D136
:1009E8004FEA430C7FEA6C5CD6D152EA033CD3D081
:1009F8005DF8040B704700BF8446104662468C467B
:100A08001946634600E000BF01B5FFF7B7FF0028AD
:100A180048BF10F1000F01BD4DF808EDFFF7F4FFD6
:100A28000CBF012000205DF808FB00BF4DF808ED61
:100A3800FFF7EAFF34BF012000205DF808FB00BF84
:100A48004DF808EDFFF7E0FF94BF012000205DF8A6
:100A580008FB00BF4DF808EDFFF7CEFF94BF01205B
:100A680000205DF808FB00BF4DF808EDFFF7C4FF54
:100A780034BF012000205DF808FB00BF4FEA410C9D
:100A88007FEA6C5C02D150EA013C0AD14FEA430C80
:100A98007FEA6C5C02D152EA033C02D14FF00000BD
:100AA80070474FF0010070474FEA410212F50012FB
:100AB80015D211D56FF47873B3EB625212D94FEA9D
:100AC800C12343F0004343EA505311F0004F23FA87
:100AD80002F018BF404270474FF00000704750EADC
:100AE800013005D111F0004008BF6FF00040704799
:100AF8004FF00000704700BF53B94AB9002908BF3A
:100B080000281CBF4FF0FF314FF0FF3000F072B9E2
:100B1800ADF1080C6DE904CE00F006F8DDF804E04C
:100B2800DDE9022304B070472DE9F047089E04462A
:100B38008846002B4BD18A42154667D9B2FA82F211
:100B48004AB1C2F1200701FA02F320FA07F79540EB
:100B580047EA030894404FEA154E230CB8FBFEF70A
:100B68001FFA85FC0EFB178843EA084307FB0CF1C4
:100B7800994209D9EB1807F1FF3080F01B8199429F
:100B880040F21881023F2B445B1AA4B2B3FBFEF07B
:100B98000EFB103344EA034400FB0CFCA44509D9BE
:100BA8002C1900F1FF3380F00781A44540F204813D
:100BB80002382C4440EA0740A4EB0C0400271EB17D
:100BC800D4400023C6E900433946BDE8F0878B428C
:100BD80009D9002E00F0EB800027C6E9000138464D
:100BE8003946BDE8F087B3FA83F7002F47D18B4227
:100BF80002D3824200F2FA80841A61EB03030120D7
:100C08009846002EE0D0C6E90048DDE702B9FFDECD
:100C1800B2FA82F2002A40F08F80491B4FEA154E43
:100C28001FFA85F80127B1FBFEFC230C0EFB1C11F3
:100C380043EA014308FB0CF1994207D9EB180CF180
:100C4800FF3002D2994200F2CD808446591AA3B2ED
:100C5800B1FBFEF00EFB101443EA044408FB00F855
:100C6800A04507D92C1900F1FF3302D2A04500F2A4
:100C7800B6801846A4EB080440EA0C409FE7C7F189
:100C8800200CBB4022FA0CFE4EEA030E01FA07F4D0
:100C980020FA0CF521FA0CF34FEA1E482543B3FB62
:100CA800F8F92C0C08FB19331FFA8EFA44EA0343AF
:100CB80009FB0AF49C4202FA07F200FA07F10BD981
:100CC8001EEB030309F1FF3080F087809C4240F25D
:100CD8008480A9F1020973441B1BADB2B3FBF8F081
:100CE80008FB103345EA034400FB0AFAA24508D979
:100CF8001EEB040400F1FF336BD2A24569D9023818
:100D0800744440EA0940A0FB0289A4EB0A044C455C
:100D1800C2464B4654D351D0002E69D0B1EB0A05D8
:100D280064EB030404FA0CFCFD40FC404CEA0505A6
:100D3800C6E90054002747E7C2F1200320FA03F769
:100D4800954001FA02F021FA03F34FEA154E3843B1
:100D5800010CB3FBFEF71FFA85F80EFB173341EAC7
:100D6800034107FB08F38B4204FA02F407D9691818
:100D780007F1FF3C2FD28B422DD9023F2944CB1AD1
:100D880081B2B3FBFEF00EFB103341EA034100FBD6
:100D980008F38B4207D9691800F1FF3C17D28B4240
:100DA80015D902382944C91A40EA07473BE73746AC
:100DB800304609E70746E7E61846FBE64145ABD269
:100DC800B8EB020A69EB0E0201381346A4E7604645
:100DD800E9E7184695E76746D1E781467CE7023898
:100DE8002C4447E7ACF1020C2B442FE7384608E7C0
:100DF8003746E9E6704700BF80B483B000AFC7F854
:100E080004C00AE000BF0C4B93F8CC31002B09D08A
:100E1800094B93F89F31002B04D0074B93F800330C
:100E2800002BEFD1044B012283F8002300BF0C37BD
:100E3800BD465DF8047B70474C04002090B583B034
:100E480000AF07F118033B6001F00EFC00F0A8FCAE
:100E580000F0BAFD00F082FD00F00AFDA24B4FF051
:100E6800FF325A6100F0CEFE40F6FC0001F06EFC45
:100E78009E4802F0DCFB012201219D4801F064FF3D
:100E8800012204219A4801F05FFF9A4B93F89F31A1
:100E9800002B40F0F881984B01221A70954B93F87B
:100EA800A031012B19D10021944802F083FC914B09
:100EB800002283F8A0210023FB710BE0FB798D4A07
:100EC8002C2101FB03F31344143300221A70FB791D
:100ED8000133FB71FB79142BF0D90023BB71CDE1F1
:100EE800BB79844A2C2101FB03F3134415331B7887
:100EF800002B40F0AB81BB797E4A2C2101FB03F328
:100F0800134416331B78002B21D1BB79794A2C2145
:100F180001FB03F313440C331868BB79754A2C2181
:100F280001FB03F3134410331C88BB79714A2C214D
:100F380001FB03F3134413331B78002B0CBF01236D
:100F48000023DBB21A46214601F0FEFE93E1BB798D
:100F5800684A2C2101FB03F3134416331B78022B38
:100F680063D1BB79634A2C2101FB03F31344243377
:100F78001B68002B59D1BB795E4A2C2101FB03F376
:100F880013441C331B68002B2DD0BB79594A2C21E4
:100F980001FB03F313440C331868BB79554A2C2121
:100FA80001FB03F3134410331C88BB79514A2C21ED
:100FB80001FB03F3134414331B78002B0AD0BB79CD
:100FC8004C4A2C2101FB03F313441C331B681B7D83
:100FD800002B01D1012300E00023DBB21A46214691
:100FE80001F0B2FE47E1BB79424A2C2101FB03F331
:100FF80013440C331868BB793E4A2C2101FB03F3D8
:10100800134410331C88BB793A4A2C2101FB03F3A3
:10101800134414331B78002B0CBF01230023DBB2CD
:101028001A46214601F090FE25E1BB79314A2C2170
:1010380001FB03F3134424331B68002B2DD0BB7929
:101048002C4A2C2101FB03F3134416331B78012B84
:1010580023D1BB79274A2C2101FB03F31344143312
:101068001B78002B19D0BB79224A2C2101FB03F3F2
:101078001344143300221A70BB791E4A2C2101FB39
:1010880003F3134424331B68BA792C2101FB02F2C1
:1010980018490A4410469847EDE0BB79154A2C21B7
:1010A80001FB03F3134416331B78032B28D1BB79B8
:1010B800104A2C2101FB03F3134414331B78002B33
:1010C8001ED0BB790B4A2C2101FB03F313441433C4
:1010D80000221A70BB792C2202FB03F3054A134441
:1010E800184601F0BBF8C6E0000C0240E8070020F3
:1010F800001002404C040020FC0300200C040020D7
:10110800BB79C04A2C2101FB03F3134416331B7827
:10111800042B52D1BB79BB4A2C2101FB03F31344A6
:1011280014331B78002B48D0BB79B64A2C2101FB1D
:1011380003F313441C331B681B7D002B00F09A80BB
:10114800BB79B04A2C2101FB03F31344143300226A
:101158001A70BB79AB4A2C2101FB03F313440C33FF
:101168001868BB79A74A2C2101FB03F313441033F9
:101178001B880022194601F0E7FDBB79A14A2C2102
:1011880001FB03F3134418331B88184601F0DEFAF9
:10119800BB799C4A2C2101FB03F313440C331868D8
:1011A800BB79984A2C2101FB03F3134410331B88A5
:1011B8000122194601F0C8FD5DE0BB79914A2C2156
:1011C80001FB03F3134416331B78052B1DD1BB79A0
:1011D8008C4A2C2101FB03F3134414331B78002B96
:1011E80013D0BB79874A2C2101FB03F31344143332
:1011F80000221A70BB792C2202FB03F3814A1344A4
:101208000121184600F08CFF35E0BB797D4A2C217E
:1012180001FB03F3134416331B78062B16D1BB7955
:10122800784A2C2101FB03F3134414331B78002B59
:101238000CD0BB79734A2C2101FB03F313441C33F4
:101248001B680121184600F0D9FF14E0BB796D4AEC
:101258002C2101FB03F3134416331B78C82B0AD146
:10126800BB79684A2C2101FB03F313441433002291
:101278001A7000E000BFBB790133BB71BB79142B36
:101288007FF62EAE01E6604B1B78002B0AD05E4B32
:1012980000221A705B4B002283F8CC21594B0022A4
:1012A80083F80023574B93F8CC31002B00F0E281F0
:1012B800544B93F8A732012B40F0AE80534B4FF4B8
:1012C80057721A60524B42F6E0621A60514800F0B9
:1012D800C5FF642001F03AFA4A4BD3F8E800494BBD
:1012E800B3F8EC300022194601F02EFD454BD3F837
:1012F8009000444BB3F894300022194601F024FDC5
:10130800404BD3F86C013F4BB3F8703100221946BB
:1013180001F01AFD642001F019FA3A4BD3F86C0178
:10132800384BB3F870310122194601F00DFD354BE9
:10133800D3F81401334BB3F818310022194601F0E1
:1013480003FD304BD3F8BC002E4BB3F8C03000225D
:10135800194601F0F9FC3B469C4600F0A7F94FF40A
:10136800167001F0F3F9274BD3F81401254BB3F8A5
:1013780018310122194601F0E7FC224BD3F8BC00D2
:10138800204BB3F8C0300122194601F0DDFC1D4B9B
:10139800D3F8E8001B4BB3F8EC300122194601F0F2
:1013A800D3FC184BD3F89000164BB3F894300122B5
:1013B800194601F0C9FC642001F0C8F93B469C4677
:1013C800FFF71AFD0F4BD3F8CC020E4BB3F8D0320F
:1013D8000022194601F0B8FC642001F0B7F9094B66
:1013E800D3F8CC02074BB3F8D0320122194601F0EA
:1013F800ABFC4FF4E17001F0A9F9642001F0A6F903
:1014080032E100BF4C040020FC0300200000002053
:1014180004000020800500209D4B4FF457721A608D
:101428009C4B42F6E0621A609B4800F017FF64206C
:1014380001F08CF9994BD3F8E800984BB3F8EC30ED
:101448000022194601F080FC944BD3F89000934B8E
:10145800B3F894300022194601F076FC8F4BD3F88C
:101468006C018E4BB3F870310022194601F06CFC08
:10147800642001F06BF9894BD3F86C01874BB3F802
:1014880070310122194601F05FFC844BD3F8140136
:10149800824BB3F818310022194601F055FC7F4BF6
:1014A800D3F8BC007D4BB3F8C0300022194601F0D8
:1014B8004BFC3B469C4600F0F9F84FF4167001F0DF
:1014C80045F9764BD3F81401744BB3F8183101225F
:1014D800194601F039FC714BD3F8BC006F4BB3F8D7
:1014E800C0300122194601F02FFC6C4BD3F8E800FC
:1014F8006A4BB3F8EC300122194601F025FC674B22
:10150800D3F89000654BB3F894300122194601F0E6
:101518001BFC3B469C46FFF76FFC604BD3F8CC02A4
:101528005E4BB3F8D0320022194601F00DFC64205E
:1015380001F00CF9594BD3F8CC02584BB3F8D03220
:101548000122194601F000FC642001F0FFF84FF475
:10155800E17001F0FBF8642001F0F8F84E4800F063
:101568007DFE642001F0F2F84C4BD3F890004B4B11
:10157800B3F894300022194601F0E6FB474BD3F844
:10158800E800464BB3F8EC300022194601F0DCFBCA
:10159800642001F0DBF8414BD3F8BC003F4BB3F8B3
:1015A800C0300022194601F0CFFB3C4BD3F81401A0
:1015B8003A4BB3F818310022194601F0C5FB3B46F7
:1015C8009C4600F073F84FF4167001F0BFF8334BE7
:1015D800D3F8BC00314BB3F8C0300122194601F0F2
:1015E800B3FB2E4BD3F814012C4BB3F8183101225E
:1015F800194601F0A9FB294BD3F89000274BB3F803
:1016080094300122194601F09FFB244BD3F8E800DF
:10161800224BB3F8EC300122194601F095FB3B460A
:101628009C46FFF7E9FB1D4BD3F8CC021B4BB3F8E4
:10163800D0320022194601F087FB642001F086F8B9
:10164800164BD3F8CC02154BB3F8D0320122194609
:1016580001F07AFB642001F079F84FF4E17001F0B1
:1016680075F8642001F072F80D4B1B6801330C4AC1
:1016780013600AE40B4B1B78002B3FF406AC094BB4
:1016880000221A700021084802F094F8FFF7FDBB09
:101698000000002004000020800500204C040020E9
:1016A800F8030020FD0300200C04002080B584B05E
:1016B80000AFC7F804C0384BFB605FE0FB68013B34
:1016C800FB60FB68002B59D1344BD3F81401334B22
:1016D800B3F818310122194601F036FB2F4BD3F825
:1016E800BC002E4BB3F8C0300122194601F02CFB88
:1016F8002A4B002283F8CC21C823BB6019E0274B72
:10170800D3F85003254BB3F818310022194601F0DD
:101718001BFBB86801F01AF8204BD3F850031F4B95
:10172800B3F818310122194601F00EFBB86801F030
:101738000DF81A4B93F8CC31002B09D1174B93F8BD
:101748002B33002BDBD0154B93F88333002BD6D0EB
:10175800124BD3F81401114BB3F818310022194673
:1017680001F0F2FA0D4BD3F8BC000C4BB3F8C030C3
:101778000022194601F0E8FA00BF09E0074B93F888
:101788002B33002B04D1054B93F88333002B95D0D2
:1017980000BF1037BD4680BD001BB7004C040020B9
:1017A80080B594B000AF07F120033022002118461D
:1017B80002F0D0FE07F10C0300221A605A609A600A
:1017C800DA601A610023BB60274B1B6C264A43F082
:1017D80080531364244B1B6C03F08053BB60BB68BD
:1017E80000237B60214B1B68204A43F4804313602D
:1017F8001E4B1B6803F480437B607B6801233B62BC
:101808004FF480337B620223BB634FF48003FB6396
:1018180004233B6448237B640623BB640423FB64E2
:1018280007F12003184601F0A9FA0346002B01D05E
:1018380000F0C6FD0F23FB6002233B6100237B61A0
:101848004FF48053BB610023FB6107F10C030021B7
:10185800184601F003FD0346002B01D000F0B0FD4F
:1018680000BF5037BD4680BD0038024000700040C0
:1018780080B58EB000AF07F1280300221A605A60C5
:101888009A60DA6007F1200300221A605A603B1D53
:1018980000221A605A609A60DA601A615A619A6185
:1018A8002C4B2D4A1A602B4B96225A60294B00224A
:1018B8009A60284B7422DA60264B4FF400721A6142
:1018C800244B00229A61234801F086FE0346002B30
:1018D80001D000F075FD4FF48053BB6207F1280377
:1018E80019461C4802F08CF90346002B01D000F081
:1018F80067FD184801F0EAFE0346002B01D000F00E
:101908005FFD00233B6200237B6207F12003194639
:10191800104802F065FD0346002B01D000F050FD91
:1019280060237B603A23BB600023FB6000237B615C
:101938003B1D00221946074802F09CF80346002B7D
:1019480001D000F03DFD034800F0B0FD00BF38377E
:10195800BD4680BD0C0400200004004080B582B064
:1019680000AF3B4600221A605A60154B154A1A60B0
:10197800134B45F6BF525A60114B00229A60104B28
:101988000522DA600E4B00229A610D4801F024FE10
:101998000346002B01D000F013FD00233B60002319
:1019A8007B603B461946064802F01AFD0346002BA9
:1019B80001D000F005FD00BF0837BD4680BD00BF5F
:1019C800E80700200014004080B58CB000AF07F194
:1019D8001C0300221A605A609A60DA601A610023B8
:1019E800BB61824B1B6B814A43F0100313637F4B2F
:1019F8001B6B03F01003BB61BB6900237B617B4B4E
:101A08001B6B7A4A43F004031363784B1B6B03F098
:101A180004037B617B6900233B61744B1B6B734A36
:101A280043F080031363714B1B6B03F080033B612E
:101A38003B690023FB606D4B1B6B6C4A43F0010351
:101A480013636A4B1B6B03F00103FB60FB68002305
:101A5800BB60664B1B6B654A43F002031363634B21
:101A68001B6B03F00203BB60BB6800237B605F4B0A
:101A78001B6B5E4A43F0080313635C4B1B6B03F05C
:101A880008037B607B6800222521594801F05CF936
:101A98000022C021574801F057F90022202156485A
:101AA80001F052F900224FF47F41544801F04CF9FB
:101AB80000228021524801F047F90523FB611123D8
:101AC8003B6200237B620023BB6207F11C031946BB
:101AD800474800F087FF4FF6DA73FB6100233B624B
:101AE80001237B6207F11C031946414800F07AFF85
:101AF8002023FB6101233B6202237B620023BB623C
:101B080007F11C0319463A4800F06CFF42F2030340
:101B1800FB6100233B6201237B6207F11C0319462A
:101B2800354800F05FFFC023FB6101233B620023BF
:101B38007B620023BB6207F11C0319462D4800F0A5
:101B480051FF1023FB6100233B6202237B6207F1F4
:101B58001C031946284800F045FF2023FB61012398
:101B68003B6201237B620023BB6207F11C03194619
:101B7800214800F037FF40F60443FB6100233B6235
:101B880001237B6207F11C0319461D4800F02AFF58
:101B98004FF47F43FB6101233B6201237B620023F7
:101BA800BB6207F11C031946144800F01BFF1823F9
:101BB800FB6100233B6201237B6207F11C0319468A
:101BC8000E4800F00FFF8023FB6101233B620223D4
:101BD8007B620023BB6207F11C031946084800F02A
:101BE80001FF00BF3037BD4680BD00BF003802404E
:101BF800001002400000024000080240000C0240B1
:101C08000004024080B582B000AF642000F09EFD61
:101C18000023FB71B0E0FB79744A2C2101FB03F32C
:101C28001344143300221A70FB79704A2C2101FBEB
:101C380003F31344133300221A70FB796B4A2C21E7
:101C480001FB03F31344123300221A70FB79674A2D
:101C58002C2101FB03F31344153300221A70FB797E
:101C6800624A2C2101FB03F313442033604A1A60B3
:101C7800FB795E4A2C2101FB03F313442433002231
:101C88001A60FA795B4913465B001344DB000B4486
:101C98001A68FB791046554A2C2101FB03F31344BB
:101CA80004331860FA79534913465B001344DB0088
:101CB8000B4404331A68FB7990B24C4A2C2101FB7F
:101CC80003F31344083302461A80FA794949134644
:101CD8005B001344DB000B4408331A68FB79104699
:101CE800424A2C2101FB03F313440C331860FA79A0
:101CF800404913465B001344DB000B440C331A685D
:101D0800FB7990B2394A2C2101FB03F313441033B9
:101D180002461A80FA79374913465B001344DB0000
:101D28000B4410331A68FB79D0B2304A2C2101FBDE
:101D380003F31344163302461A70FA792D491346F1
:101D48005B001344DB000B4414331A68FB7990B230
:101D5800264A2C2101FB03F31344183302461A8048
:101D6800FB79224A2C2101FB03F313441C33002284
:101D78001A60FB790133FB71FB79142B7FF64BAFAB
:101D88001A4B1D4A5A62194B1C4ADA62174B1C4AF5
:101D98005A65164B1B4A9A64144B1B4AC3F8802099
:101DA800124B1A4AC3F8CC20104B194AC3F8242105
:101DB8000E4B184AC3F85C210C4B174AC3F88C2108
:101DC8000A4B164AC3F8B821084B154AC3F83C22F7
:101DD80001224021134800F0B7FF01228021114859
:101DE80000F0B2FF00BF0837BD4680BD4C0400209C
:101DF800E11F00080800002065200008D05F0008E7
:101E0800892300088806002069230008D0040020E0
:101E18002805002049230008D85F0008E05F000873
:101E2800EC5F00080000024080B584B000AF786025
:101E38007B681B68604A934240F0B98010215F4874
:101E480000F06AFF0346002B31D10023FB7316E034
:101E5800FB7B5B4A2C2101FB03F313440C3318680A
:101E6800FB7B574A2C2101FB03F3134410331B88D7
:101E78000122194600F068FFFB7B0133FB73FB7BF3
:101E8800142BE5D900214F4801F094FC4E4801F08D
:101E9800F2FB4E4800F082FA00E000BF10214748EC
:101EA80000F03AFF0346002BF7D000F08AFD00232C
:101EB800BB7345E0BB7B424A2C2101FB03F313446F
:101EC8001C331B681B7D012B13D1BB7B3C4A2C2187
:101ED80001FB03F3134416331B78042B09D1BB7B96
:101EE800374A2C2101FB03F313441C331B68002BD6
:101EF80013D1BB7B324A2C2101FB03F313441C335F
:101F08001B68002B09D0BB7B2D4A2C2101FB03F356
:101F1800134416331B78042B0FD0BB7B284A2C2183
:101F280001FB03F3134420331B68BA7B2C2101FB0C
:101F380002F223490A4410469847BB7B0133BB731E
:101F4800BB7B142BB6D9224B1B78002B04D11C4B1E
:101F580093F8CC31012B05D1194B9B6C0121184604
:101F680000F04CF91A4B1B78002B04D0144B93F853
:101F7800CC31002B04D0124B93F89F31002B06D1A3
:101F8800134B00221A7000210E4801F013FC0C4B71
:101F980093F87C32002B0AD00E4B1B68002B06D01E
:101FA800074B002283F87C220A4B00221A6000BFEC
:101FB8001037BD4680BD00BF00140040000C024031
:101FC8004C0400200C040020E8070020003E4900D3
:101FD800FD030020F803002080B582B000AF7860D0
:101FE8007B685A687B681B891946104600F094FE86
:101FF8000346002B1DD17B685B7D002B19D17B68C4
:102008009B7C092B06D87B689B7C0133DAB27B6802
:102018009A741DE07B68DB7C002B19D17B68012258
:10202800DA747B681B7D83F00103DAB27B681A756A
:102038000EE07B689B7C002B06D07B689B7C013B79
:10204800DAB27B689A7404E07B680022DA7400E0F4
:1020580000BF00BF0837BD4680BD000080B582B014
:1020680000AF78602D4BD3F890002C4BB3F8943028
:102078000022194600F068FE284BD3F8BC00274B15
:10208800B3F8EC300022194600F05EFEC82000F0DC
:102098005DFB224BD3F8E800204BB3F8C030002298
:1020A800194600F051FE1D4BD3F814011B4BB3F831
:1020B80018310022194600F047FE4FF4967000F0E0
:1020C80045FB164BD3F89000144BB3F8943001221B
:1020D800194600F039FE114BD3F8BC000F4BB3F88A
:1020E800C0300122194600F02FFE0C4BD3F8E8004F
:1020F8000A4BB3F8EC300122194600F025FE074BD5
:10210800D3F81401054BB3F818310122194600F031
:102118001BFE00BF0837BD4680BD00BF4C04002031
:1021280080B586B000AF78600B46FB70324B7B61A0
:1021380000237B820023FB6020E07B68D8687B68F3
:102148001B8A0022194600F0FFFD7B681B8B5B0889
:102158009BB2184600F022F97B68D8687B681B8A16
:102168000122194600F0F0FD7B681B8B5B089BB2CF
:10217800184600F013F9FB680133FB60FB68092B74
:10218800DBD92DE07B69013B7B617B8AB3F5487F16
:1021980002D27B8A01337B827B68D8687B681B8A82
:1021A8000022194600F0D0FD7B681B8B5B089BB2B0
:1021B8001A467B8AD31A184600F0F0F87B68D8686C
:1021C8007B681B8A0122194600F0BEFD7B681B8BC9
:1021D8005B089BB21A467B8AD31A184600F0DEF8D1
:1021E8007B68DB7CFA789A4202D17B69002BC9D1E3
:1021F80000BF1837BD4680BDA086010080B582B0FB
:1022080000AF78600B46FB707B68DB7CFA789A42FB
:102218000ED10F4B1B7883F00103DBB2002B12D0D9
:1022280000210C4801F088FA094B01221A700AE0D3
:102238000021084801F0BEFA054B00221A70064B2F
:10224800002283F8402000BF0837BD4680BD00BF8C
:10225800FD0300200C0400204C04002080B586B04B
:1022680000AF78600023FB82C823BB607B689B6A51
:10227800002B05D07B689B6A07F108021046984737
:1022880000233B6120E07B68D8687B681B8A0022BA
:10229800194600F059FD7B681B8B5B089BB21846FA
:1022A80000F07CF87B68D8687B681B8A0122194695
:1022B80000F04AFD7B681B8B5B089BB2184600F058
:1022C8006DF83B6901333B613B69132BDBD9002374
:1022D800FB602DE0FB8AB3F5487F02D2FB8A01330D
:1022E800FB827B68D8687B681B8A0022194600F04D
:1022F8002BFD7B681B8B5B089BB21A46FB8AD31AA3
:10230800184600F04BF87B68D8687B681B8A012266
:10231800194600F019FD7B681B8B5B089BB21A46B7
:10232800FB8AD31A184600F039F8FB680133FB60C2
:10233800BB68FA689A42CDD300BF1837BD4680BD46
:1023480080B483B000AF7860044B1A687B681A6069
:1023580000BF0C37BD465DF8047B704700000020C5
:1023680080B483B000AF7860044B1A687B681A6049
:1023780000BF0C37BD465DF8047B704704000020A1
:1023880080B483B000AF78607B684FF47A721A60CB
:1023980000BF0C37BD465DF8047B704780B483B03E
:1023A80000AF786000E000BF7B685A1E7A60002B9F
:1023B800F9D100BF0C37BD465DF8047B70470000BB
:1023C80080B500AF00224021044800F0BDFC002287
:1023D8008021024800F0B8FC00BF80BD0000024028
:1023E80080B483B000AF00237B60104B5B6C0F4A56
:1023F80043F4804353640D4B5B6C03F480437B6070
:102408007B6800233B60094B1B6C084A43F08053F0
:102418001364064B1B6C03F080533B603B6800BFA2
:102428000C37BD465DF8047B704700BF003802409A
:1024380080B584B000AF78607B681B68184A934207
:102448000ED10023FB60174B1B6C164A43F00203A6
:102458001364144B1B6C03F00203FB60FB681AE067
:102468007B681B68104A934215D10023BB600D4B53
:102478001B6C0C4A43F0200313640A4B1B6C03F0DB
:102488002003BB60BB6800220021372000F06FFAF0
:10249800372000F088FA00BF1037BD4680BD00BF66
:1024A80000040040003802400014004080B588B0A5
:1024B80000AF786007F10C0300221A605A609A6036
:1024C800DA601A617B681B68124A93421DD10023A7
:1024D800BB60114B1B6B104A43F0040313630E4B94
:1024E8001B6B03F00403BB60BB684023FB60022343
:1024F8003B6100237B610223BB610223FB6107F17F
:102508000C031946054800F06DFA00BF2037BD4698
:1025180080BD00BF000400400038024000080240AF
:1025280080B400AF00BFBD465DF8047B704780B43F
:1025380000AFFEE780B400AFFEE780B400AFFEE76F
:1025480080B400AFFEE780B400AF00BFBD465DF8C1
:10255800047B704780B400AF00BFBD465DF8047BC4
:10256800704780B400AF00BFBD465DF8047B70477C
:1025780080B500AF00F0CAF800BF80BD80B500AFDD
:10258800024801F06FF900BF80BD00BFE8070020D6
:1025980080B584B000AF7860114B1B68002B02D166
:1025A8000F4B104A1A600E4B1B68FB600C4B1A68E5
:1025B8007B6813446A46934207D901F0A1FF02469B
:1025C8000C2313604FF0FF3306E0054B1A687B6855
:1025D8001344034A1360FB6818461037BD4680BD94
:1025E800000400203008002080B400AF084BD3F866
:1025F8008830074A43F47003C2F88830044B4FF020
:1026080000629A6000BFBD465DF8047B704700BF5A
:1026180000ED00E0DFF834D0002103E00C4B5B58FC
:10262800435004310B480C4B42189A42F6D30B4ADC
:1026380002E0002342F8043B094B9A42F9D3FFF722
:10264800D3FF01F063FFFEF7F9FB7047000002209B
:102658004062000800000020DC030020DC030020AA
:1026680030080020FEE7000080B500AF0E4B1B6865
:102678000D4A43F4007313600B4B1B680A4A43F47A
:1026880080631360084B1B68074A43F48073136028
:10269800032000F061F9002000F008F8FFF7A0FE21
:1026A8000023184680BD00BF003C024080B582B0C0
:1026B80000AF7860124B1A68124B1B7819464FF41A
:1026C8007A73B3FBF1F3B2FBF3F3184600F07DF92C
:1026D8000346002B01D001230EE07B680F2B0AD89C
:1026E800002279684FF0FF3000F041F9064A7B6814
:1026F8001360002300E0012318460837BD4680BD5B
:1027080000020020080200200402002080B400AF6C
:10271800064B1B781A46064B1B681344044A136081
:1027280000BFBD465DF8047B704700BF080200206B
:102738002808002080B400AF034B1B681846BD462C
:102748005DF8047B704700BF2808002080B584B07E
:1027580000AF7860FFF7EEFFB8607B68FB60FB684E
:10276800B3F1FF3F05D0094B1B781A46FB681344A9
:10277800FB6000BFFFF7DEFF0246BB68D31AFA68AA
:102788009A42F7D800BF1037BD4680BD0802002026
:1027980080B485B000AF78607B6803F00703FB6006
:1027A8000C4BDB68BB60BA684FF6FF031340BB6095
:1027B800FB681A02BB68134343F0BF6343F400335A
:1027C800BB60044ABB68D36000BF1437BD465DF8E0
:1027D800047B704700ED00E080B400AF044BDB6879
:1027E8001B0A03F007031846BD465DF8047B7047D3
:1027F80000ED00E080B483B000AF0346FB7197F9A9
:102808000730002B0BDBFB7903F01F02074997F910
:1028180007305B09012000FA02F241F8232000BFCB
:102828000C37BD465DF8047B704700BF00E100E04F
:1028380080B483B000AF03463960FB7197F9073065
:10284800002B0ADB3B68DAB20C4997F90730120112
:10285800D2B20B4483F800230AE03B68DAB2084995
:10286800FB7903F00F03043B1201D2B20B441A7632
:1028780000BF0C37BD465DF8047B704700E100E0FF
:1028880000ED00E080B489B000AFF860B9607A600C
:10289800FB6803F00703FB61FB69C3F10703042B23
:1028A80028BF0423BB61FB690433062B02D9FB69EB
:1028B800033B00E000237B614FF0FF32BB6902FA63
:1028C80003F3DA43BB681A407B699A404FF0FF3143
:1028D8007B6901FA03F3D9437B680B40134318461D
:1028E8002437BD465DF8047B7047000080B400AF14
:1028F800BFF34F8F054BDB6803F4E0620349044BD9
:102908001343CB60BFF34F8F00BFFDE700ED00E03E
:102918000400FA0580B582B000AF78607B68013B9F
:10292800B3F1807F01D301230FE00A4A7B68013BA2
:1029380053600F214FF0FF30FFF77AFF054B00225D
:102948009A60044B07221A60002318460837BD46D0
:1029580080BD00BF10E000E080B582B000AF7860B5
:102968007868FFF715FF00BF0837BD4680BD80B502
:1029780086B000AF0346B9607A60FB7300237B61C1
:10298800FFF72AFF78617A68B9687869FFF77AFFF4
:10299800024697F90F3011461846FFF749FF00BF66
:1029A8001837BD4680BD80B582B000AF0346FB71C5
:1029B80097F907301846FFF71DFF00BF0837BD46D7
:1029C80080BD80B500AFFFF791FF80B582B000AF42
:1029D80078607868FFF79EFF034618460837BD46BB
:1029E80080BD000080B489B000AF786039600023F2
:1029F8007B6100233B610023BB610023FB616BE12A
:102A08000122FB6902FA03F37B613B681B687A6960
:102A180013403B613A697B699A4240F05A813B68AE
:102A28005B68012B0BD03B685B68022B07D03B68C7
:102A38005B68112B03D03B685B68122B30D17B6835
:102A48009B68BB61FB695B00032202FA03F3DB436B
:102A5800BA691340BB613B68DA68FB695B0002FA3C
:102A680003F3BA691343BB617B68BA699A607B68F0
:102A78005B68BB610122FB6902FA03F3DB43BA69B5
:102A88001340BB613B685B681B0903F00102FB69EB
:102A980002FA03F3BA691343BB617B68BA695A60E7
:102AA8007B68DB68BB61FB695B00032202FA03F306
:102AB800DB43BA691340BB613B689A68FB695B00FA
:102AC80002FA03F3BA691343BB617B68BA69DA6037
:102AD8003B685B68022B03D03B685B68122B23D1F1
:102AE800FB69DA087B68083253F82230BB61FB695E
:102AF80003F007039B000F2202FA03F3DB43BA69D2
:102B08001340BB613B681A69FB6903F007039B002C
:102B180002FA03F3BA691343BB61FB69DA087B68FD
:102B28000832B96943F822107B681B68BB61FB69EE
:102B38005B00032202FA03F3DB43BA691340BB616B
:102B48003B685B6803F00302FB695B0002FA03F36E
:102B5800BA691343BB617B68BA691A603B685B68F2
:102B680003F08053002B00F0B4800023FB605F4B20
:102B78005B6C5E4A43F4804353645C4B5B6C03F4C8
:102B88008043FB60FB685A4AFB699B08023352F892
:102B98002330BB61FB6903F003039B000F2202FA99
:102BA80003F3DB43BA691340BB617B68514A934224
:102BB8002BD07B68504A934225D07B684F4A93427A
:102BC8001FD07B684E4A934219D07B684D4A934286
:102BD80013D07B684C4A93420DD07B684B4A934292
:102BE80007D07B684A4A934201D107230EE00823A5
:102BF8000CE006230AE0052308E0042306E003238B
:102C080004E0022302E0012300E00023FA6902F055
:102C1800030292009340BA691343BB613449FB69CC
:102C28009B080233BA6941F823203A4B1B68BB6101
:102C38003B69DB43BA691340BB613B685B6803F4DB
:102C48008033002B03D0BA693B691343BB61314A17
:102C5800BB6913602F4B5B68BB613B69DB43BA6997
:102C68001340BB613B685B6803F40033002B03D05F
:102C7800BA693B691343BB61264ABB695360254B5C
:102C88009B68BB613B69DB43BA691340BB613B6826
:102C98005B6803F48013002B03D0BA693B691343C4
:102CA800BB611C4ABB6993601A4BDB68BB613B691B
:102CB800DB43BA691340BB613B685B6803F40013EC
:102CC800002B03D0BA693B691343BB61114ABB6946
:102CD800D360FB690133FB61FB690F2B7FF690AE74
:102CE80000BF2437BD465DF8047B704700380240BA
:102CF8000038014000000240000402400008024081
:102D0800000C02400010024000140240001802406B
:102D1800001C0240003C014080B485B000AF7860E0
:102D28000B467B807B681A697B881340002B02D096
:102D38000123FB7301E00023FB73FB7B1846143768
:102D4800BD465DF8047B704780B483B000AF7860FF
:102D58000B467B8013467B707B78002B03D07A88E8
:102D68007B689A6103E07B881A047B689A6100BFDC
:102D78000C37BD465DF8047B7047000080B586B00F
:102D880000AF78607B68002B01D101235BE27B6890
:102D98001B6803F00103002B75D0A34B9B6803F05D
:102DA8000C03042B0CD0A04B9B6803F00C03082BDE
:102DB80012D19D4B5B6803F48003B3F5800F0BD1F0
:102DC800994B1B6803F40033002B5BD07B685B686E
:102DD800002B57D1012336E27B685B68B3F5803F4F
:102DE80006D1914B1B68904A43F4803313601DE071
:102DF8007B685B68B3F5A02F0CD18B4B1B688A4AA4
:102E080043F480231360884B1B68874A43F480335C
:102E180013600BE0844B1B68834A23F480331360F0
:102E2800814B1B68804A23F4802313607B685B68AE
:102E3800002B13D0FFF77EFC386108E0FFF77AFC1F
:102E480002463B69D31A642B01D90323FBE1764B75
:102E58001B6803F40033002BF0D014E0FFF76AFC82
:102E6800386108E0FFF766FC02463B69D31A642B19
:102E780001D90323E7E16C4B1B6803F40033002BF3
:102E8800F0D100E000BF7B681B6803F00203002B51
:102E980063D0654B9B6803F00C03002B0BD0624B8F
:102EA8009B6803F00C03082B1CD15F4B5B6803F491
:102EB8008003002B16D15C4B1B6803F00203002B28
:102EC80005D07B68DB68012B01D00123BBE1564BA1
:102ED8001B6823F0F8027B681B69DB005249134327
:102EE8000B603AE07B68DB68002B20D04F4B012257
:102EF8001A60FFF71FFC386108E0FFF71BFC024669
:102F08003B69D31A022B01D903239CE1464B1B686A
:102F180003F00203002BF0D0434B1B6823F0F802A8
:102F28007B681B69DB00404913430B6015E03F4B8E
:102F380000221A60FFF7FEFB386108E0FFF7FAFB92
:102F480002463B69D31A022B01D903237BE1364B96
:102F58001B6803F00203002BF0D17B681B6803F0A9
:102F68000803002B30D07B685B69002B16D0304BF0
:102F780001221A60FFF7DEFB386108E0FFF7DAFB91
:102F880002463B69D31A022B01D903235BE1264B86
:102F98005B6F03F00203002BF0D015E0244B0022F6
:102FA8001A60FFF7C7FB386108E0FFF7C3FB02466A
:102FB8003B69D31A022B01D9032344E11A4B5B6FF7
:102FC80003F00203002BF0D17B681B6803F00403B5
:102FD800002B00F0A0800023FB75134B1B6C03F043
:102FE8008053002B0FD10023BB600F4B1B6C0E4A84
:102FF80043F0805313640C4B1B6C03F08053BB608D
:10300800BB680123FB750B4B1B6803F48073002B13
:1030180021D1084B1B68074A43F480731360FFF7FC
:1030280089FB386111E000BF0038024000004742C8
:10303800800E474200700040FFF77CFB02463B6968
:10304800D31A022B01D90323FDE0814B1B6803F43B
:103058008073002BF0D07B689B68012B06D17D4BD9
:103068001B6F7C4A43F0010313671CE07B689B6875
:10307800052B0CD1774B1B6F764A43F0040313677B
:10308800744B1B6F734A43F0010313670BE0714BDA
:103098001B6F704A23F0010313676E4B1B6F6D4A59
:1030A80023F0040313677B689B68002B15D0FFF798
:1030B80041FB38610AE0FFF73DFB02463B69D31A42
:1030C80041F28832934201D90323BCE0614B1B6F64
:1030D80003F00203002BEED014E0FFF72BFB38615E
:1030E8000AE0FFF727FB02463B69D31A41F2883210
:1030F800934201D90323A6E0564B1B6F03F002034A
:10310800002BEED1FB7D012B05D1524B1B6C514A94
:1031180023F0805313647B689B69002B00F0928036
:103128004C4B9B6803F00C03082B5CD07B689B69B5
:10313800022B41D1484B00221A60FFF7FBFA386195
:1031480008E0FFF7F7FA02463B69D31A022B01D9C8
:10315800032378E03F4B1B6803F00073002BF0D18A
:103168007B68DA697B681B6A1A437B685B6A9B0128
:103178001A437B689B6A5B08013B1B041A437B6804
:10318800DB6A1B06334913434B60334B01221A6039
:10319800FFF7D0FA386108E0FFF7CCFA02463B693E
:1031A800D31A022B01D903234DE02A4B1B6803F0E5
:1031B8000073002BF0D045E0274B00221A60FFF780
:1031C800B9FA386108E0FFF7B5FA02463B69D31A45
:1031D800022B01D9032336E01E4B1B6803F0007352
:1031E800002BF0D12EE07B689B69012B01D10123D4
:1031F80029E0184B5B68FB60FB6803F480027B687E
:10320800DB699A421CD1FB6803F03F027B681B6AAA
:103218009A4215D1FA6847F6C07313407A68526A21
:1032280093420DD1FB6803F440327B689B6A9A4253
:1032380006D1FB6803F070627B68DB6A9A4201D0B2
:10324800012300E0002318461837BD4680BD00BFA3
:1032580000700040003802406000474280B584B0EA
:1032680000AF786039607B68002B01D10123CCE086
:10327800684B1B6803F00F033A689A420CD9654BF8
:103288003A68D2B21A70634B1B6803F00F033A68AE
:103298009A4201D00123B8E07B681B6803F002035F
:1032A800002B20D07B681B6803F00403002B05D09B
:1032B800594B9B68584A43F4E05393607B681B68FA
:1032C80003F00803002B05D0534B9B68524A43F484
:1032D80060439360504B9B6823F0F0027B689B68C7
:1032E8004D4913438B607B681B6803F00103002B77
:1032F80044D07B685B68012B07D1474B1B6803F4FC
:103308000033002B19D101237FE07B685B68022B17
:1033180003D07B685B68032B07D13F4B1B6803F026
:103328000073002B09D101236FE03B4B1B6803F0AE
:103338000203002B01D1012367E0374B9B6823F080
:1033480003027B685B68344913438B60FFF7F2F92B
:10335800F8600AE0FFF7EEF90246FB68D31A41F27B
:103368008832934201D903234FE02B4B9B6803F02B
:103378000C027B685B689B009A42EBD1254B1B686B
:1033880003F00F033A689A420CD2224B3A68D2B241
:103398001A70204B1B6803F00F033A689A4201D059
:1033A800012332E07B681B6803F00403002B08D07C
:1033B800194B9B6823F4E0527B68DB68164913437A
:1033C8008B607B681B6803F00803002B09D0124B45
:1033D8009B6823F460427B681B69DB000E4913433A
:1033E8008B6000F021F801460B4B9B681B0903F02A
:1033F8000F030A4AD35C21FA03F3094A1360094B05
:103408001B681846FFF752F9002318461037BD46C7
:1034180080BD00BF003C024000380240F85F000851
:103428000002002004020020F0B585B000AF0023A0
:103438007B600023FB6000233B600023BB60634B81
:103448009B6803F00C03042B07D0082B08D0002B33
:1034580040F0B4805E4BBB60B3E05E4BBB60B0E055
:103468005A4B5B6803F03F037B60584B5B6803F47F
:103478008003002B4AD0554B5B689B094FF0000432
:1034880040F2FF114FF0000203EA010504EA0206C8
:10349800294632464FF000034FF00004540144EA35
:1034A800D1644B0119462246491B62EB06024FF0D4
:1034B80000034FF00004940144EA91648B015B1A05
:1034C80064EB02044FF000014FF00002E20042EA10
:1034D8005372D9000B4614465B1944EB06044FF0AF
:1034E80000014FF00002620242EAD35259020B4631
:1034F8001446184621467B684FF000041A462346B6
:10350800FDF7FAFA03460C46FB6049E02F4B5B686F
:103518009B094FF0000440F2FF114FF0000203EA4C
:10352800010504EA0206294632464FF000034FF02F
:103538000004540144EAD1644B0119462246491B50
:1035480062EB06024FF000034FF00004940144EAD6
:1035580091648B015B1A64EB02044FF000014FF099
:103568000002E20042EA5372D9000B4614465B1986
:1035780044EB06044FF000014FF00002A20242EAB9
:10358800935299020B461446184621467B684FF021
:1035980000041A462346FDF7AFFA03460C46FB60C3
:1035A8000A4B5B681B0C03F0030301335B003B60B1
:1035B800FA683B68B2FBF3F3BB6002E0044BBB6004
:1035C80000BFBB6818461437BD46F0BD003802403E
:1035D8000024F40000127A0080B582B000AF786051
:1035E8007B68002B01D101231DE07B6893F83D30F7
:1035F800DBB2002B06D17B68002283F83C20786878
:10360800FEF716FF7B68022283F83D207B681A6864
:103618007B6804331946104600F0D2FB7B68012210
:1036280083F83D20002318460837BD4680BD80B486
:1036380085B000AF78607B681B68DA687B681B68B8
:1036480042F00102DA607B681B689B6803F007039D
:10365800FB60FB68062B07D07B681B681A687B68D1
:103668001B6842F001021A60002318461437BD4651
:103678005DF8047B704780B483B000AF78607B68E6
:103688001B68DA687B681B6822F00102DA607B68D5
:103698001B681A6A41F211131340002B0FD17B6883
:1036A8001B681A6A40F244431340002B07D17B6819
:1036B8001B681A687B681B6822F001021A600023E5
:1036C80018460C37BD465DF8047B704780B582B05C
:1036D80000AF78607B68002B01D101231DE07B6877
:1036E80093F83D30DBB2002B06D17B68002283F8CB
:1036F8003C20786800F015F87B68022283F83D20AA
:103708007B681A687B6804331946104600F058FB3A
:103718007B68012283F83D20002318460837BD4600
:1037280080BD80B483B000AF786000BF0C37BD4661
:103738005DF8047B7047000080B584B000AF786006
:1037480039607B681B6801223968184600F022FE40
:103758007B681B68154A934204D07B681B68144A2F
:10376800934201D1012300E00023002B07D07B689E
:103778001B685A6C7B681B6842F400425A647B6879
:103788001B689B6803F00703FB60FB68062B07D0E8
:103798007B681B681A687B681B6842F001021A6024
:1037A800002318461037BD4680BD00BF0000014009
:1037B8000004014080B582B000AF786039607B6852
:1037C8001B6800223968184600F0E4FD7B681B6816
:1037D800224A934204D07B681B68214A934201D154
:1037E800012300E00023002B17D07B681B681A6AAE
:1037F80041F211131340002B0FD17B681B681A6A22
:1038080040F244431340002B07D17B681B685A6C75
:103818007B681B6822F400425A647B681B681A6A3A
:1038280041F211131340002B0FD17B681B681A6AF1
:1038380040F244431340002B07D17B681B681A6889
:103848007B681B6822F001021A607B68012283F8FA
:103858003D20002318460837BD4680BD00000140C2
:103868000004014080B582B000AF78607B681B68B7
:103878001B6903F00203022B22D17B681B68DB68FB
:1038880003F00203022B1BD17B681B686FF0020256
:103898001A617B6801221A777B681B689B6903F0B1
:1038A8000303002B03D0786800F06BFA05E0786812
:1038B80000F05DFA786800F06EFA7B6800221A77EB
:1038C8007B681B681B6903F00403042B22D17B6807
:1038D8001B68DB6803F00403042B1BD17B681B689F
:1038E8006FF004021A617B6802221A777B681B68F2
:1038F8009B6903F44073002B03D0786800F041FA09
:1039080005E0786800F033FA786800F044FA7B68DC
:1039180000221A777B681B681B6903F00803082BD1
:1039280022D17B681B68DB6803F00803082B1BD1D6
:103938007B681B686FF008021A617B6804221A779B
:103948007B681B68DB6903F00303002B03D07868EE
:1039580000F017FA05E0786800F009FA786800F0D6
:103968001AFA7B6800221A777B681B681B6903F0C8
:103978001003102B22D17B681B68DB6803F010034F
:10398800102B1BD17B681B686FF010021A617B68D3
:1039980008221A777B681B68DB6903F44073002BE5
:1039A80003D0786800F0EDF905E0786800F0DFF9F9
:1039B800786800F0F0F97B6800221A777B681B684A
:1039C8001B6903F00103012B0ED17B681B68DB68C0
:1039D80003F00103012B07D17B681B686FF001021C
:1039E8001A617868FEF720FA7B681B681B6903F088
:1039F8008003802B0ED17B681B68DB6803F0800393
:103A0800802B07D17B681B686FF080021A61786889
:103A180000F06CFD7B681B681B6903F04003402BBA
:103A28000ED17B681B68DB6803F04003402B07D18D
:103A38007B681B686FF040021A61786800F0B5F97E
:103A48007B681B681B6903F02003202B0ED17B6861
:103A58001B68DB6803F02003202B07D17B681B68F9
:103A68006FF020021A61786800F036FD00BF083751
:103A7800BD4680BD80B584B000AFF860B9607A609B
:103A8800FB6893F83C30012B01D10223B4E0FB68BA
:103A9800012283F83C20FB68022283F83D207B68E2
:103AA8000C2B00F29F8001A252F823F0E93A00089B
:103AB800ED3B0008ED3B0008ED3B0008293B000802
:103AC800ED3B0008ED3B0008ED3B00086B3B0008B0
:103AD800ED3B0008ED3B0008ED3B0008AB3B000860
:103AE800FB681B68B968184600F00AFAFB681B688F
:103AF8009A69FB681B6842F008029A61FB681B68B8
:103B08009A69FB681B6822F004029A61FB681B68CB
:103B18009969BB681A69FB681B680A439A6162E085
:103B2800FB681B68B968184600F05AFAFB681B68FE
:103B38009A69FB681B6842F400629A61FB681B681B
:103B48009A69FB681B6822F480629A61FB681B68AB
:103B58009969BB681B691A02FB681B680A439A616A
:103B680041E0FB681B68B968184600F0AFFAFB68CB
:103B78001B68DA69FB681B6842F00802DA61FB68B7
:103B88001B68DA69FB681B6822F00402DA61FB68CB
:103B98001B68D969BB681A69FB681B680A43DA6144
:103BA80021E0FB681B68B968184600F003FBFB6856
:103BB8001B68DA69FB681B6842F40062DA61FB681B
:103BC8001B68DA69FB681B6822F48062DA61FB68AB
:103BD8001B68D969BB681B691A02FB681B680A4322
:103BE800DA6100E000BFFB68012283F83D20FB6832
:103BF800002283F83C20002318461037BD4680BDBC
:103C080080B584B000AF786039607B6893F83C3049
:103C1800012B01D10223A6E07B68012283F83C2016
:103C28007B68022283F83D207B681B689B68FB60E9
:103C3800FB6823F07703FB60FB6823F47F43FB609A
:103C48007B681B68FA689A603B681B68402B67D0E2
:103C5800402B0BD8102B73D0102B02D8002B6FD011
:103C680078E0202B6CD0302B6AD073E0702B0DD00D
:103C7800702B04D8502B33D0602B41D06AE0B3F5B9
:103C8800805F66D0B3F5005F17D063E07B68186883
:103C98003B6899683B685A683B68DB6800F05AFBE8
:103CA8007B681B689B68FB60FB6843F07703FB60DD
:103CB8007B681B68FA689A604CE07B6818683B6808
:103CC80099683B685A683B68DB6800F043FB7B688F
:103CD8001B689A687B681B6842F480429A6039E0E6
:103CE8007B6818683B6859683B68DB681A4600F0CF
:103CF800B7FA7B681B685021184600F010FB29E0D2
:103D08007B6818683B6859683B68DB681A4600F0AE
:103D1800D6FA7B681B686021184600F000FB19E0A2
:103D28007B6818683B6859683B68DB681A4600F08E
:103D380097FA7B681B684021184600F0F0FA09E002
:103D48007B681A683B681B681946104600F0E7FA5A
:103D580000E000BF7B68012283F83D207B680022D9
:103D680083F83C20002318461037BD4680BD80B438
:103D780083B000AF786000BF0C37BD465DF8047BA8
:103D8800704780B483B000AF786000BF0C37BD4681
:103D98005DF8047B704780B483B000AF786000BFE3
:103DA8000C37BD465DF8047B704780B483B000AF24
:103DB800786000BF0C37BD465DF8047B7047000093
:103DC80080B485B000AF786039607B681B68FB60A1
:103DD8007B68404A934213D07B68B3F1804F0FD081
:103DE8007B683D4A93420BD07B683C4A934207D09C
:103DF8007B683B4A934203D07B683A4A934208D196
:103E0800FB6823F07003FB603B685B68FA68134348
:103E1800FB607B682F4A93422BD07B68B3F1804FBD
:103E280027D07B682C4A934223D07B682B4A934245
:103E38001FD07B682A4A93421BD07B68294A934249
:103E480017D07B68284A934213D07B68274A93424D
:103E58000FD07B68264A93420BD07B68254A934251
:103E680007D07B68244A934203D07B68234A934255
:103E780008D1FB6823F44073FB603B68DB68FA6891
:103E88001343FB60FB6823F080023B685B691343C4
:103E9800FB607B68FA681A603B689A687B68DA623C
:103EA8003B681A687B689A627B680A4A934203D027
:103EB8007B680C4A934203D13B681A697B681A6392
:103EC8007B6801225A6100BF1437BD465DF8047B48
:103ED800704700BF00000140000400400008004097
:103EE800000C004000040140004001400044014033
:103EF8000048014000180040001C0040002000401D
:103F080080B487B000AF786039607B681B6A23F0A3
:103F180001027B681A627B681B6A7B617B685B684D
:103F28003B617B689B69FB60FB6823F07003FB6067
:103F3800FB6823F00303FB603B681B68FA681343C4
:103F4800FB607B6923F002037B613B689B687A69AD
:103F580013437B617B68204A934203D07B681F4AE6
:103F680093420CD17B6923F008037B613B68DB68D3
:103F78007A6913437B617B6923F004037B617B6867
:103F8800154A934203D07B68144A934211D13B6986
:103F980023F480733B613B6923F400733B613B6806
:103FA8005B693A6913433B613B689B693A69134310
:103FB8003B617B683A695A607B68FA689A613B683A
:103FC8005A687B685A637B687A691A6200BF1C3733
:103FD800BD465DF8047B70470000014000040140C5
:103FE80080B487B000AF786039607B681B6A23F0C3
:103FF80010027B681A627B681B6A7B617B685B685E
:104008003B617B689B69FB60FB6823F4E043FB60D2
:10401800FB6823F44073FB603B681B681B02FA686B
:104028001343FB607B6923F020037B613B689B683B
:104038001B017A6913437B617B68224A934203D050
:104048007B68214A93420DD17B6923F080037B6111
:104058003B68DB681B017A6913437B617B6923F04A
:1040680040037B617B68174A934203D07B68164AFA
:10407800934213D13B6923F480633B613B6923F48A
:1040880000633B613B685B699B003A6913433B6192
:104098003B689B699B003A6913433B617B683A69BB
:1040A8005A607B68FA689A613B685A687B689A63C9
:1040B8007B687A691A6200BF1C37BD465DF8047BCD
:1040C800704700BF000001400004014080B487B081
:1040D80000AF786039607B681B6A23F480727B6864
:1040E8001A627B681B6A7B617B685B683B617B68E3
:1040F800DB69FB60FB6823F07003FB60FB6823F05F
:104108000303FB603B681B68FA681343FB607B6929
:1041180023F400737B613B689B681B027A69134335
:104128007B617B68214A934203D07B68204A934293
:104138000DD17B6923F400637B613B68DB681B025C
:104148007A6913437B617B6923F480637B617B68B5
:10415800164A934203D07B68154A934213D13B69B0
:1041680023F480533B613B6923F400533B613B6874
:104178005B691B013A6913433B613B689B691B01FF
:104188003A6913433B617B683A695A607B68FA680D
:10419800DA613B685A687B68DA637B687A691A6215
:1041A80000BF1C37BD465DF8047B70470000014026
:1041B8000004014080B487B000AF786039607B6844
:1041C8001B6A23F480527B681A627B681B6A3B6116
:1041D8007B685B687B617B68DB69FB60FB6823F459
:1041E800E043FB60FB6823F44073FB603B681B689B
:1041F8001B02FA681343FB603B6923F400533B61DD
:104208003B689B681B033A6913433B617B68124A0E
:10421800934203D07B68114A934209D17B6923F406
:1042280080437B613B685B699B017A6913437B61CF
:104238007B687A695A607B68FA68DA613B685A6811
:104248007B681A647B683A691A6200BF1C37BD46EE
:104258005DF8047B704700BF000001400004014086
:1042680080B487B000AFF860B9607A60FB681B6AF9
:104278007B61FB681B6A23F00102FB681A62FB681A
:104288009B693B613B6923F0F0033B617B681B0141
:104298003A6913433B617B6923F00A037B617A69BE
:1042A800BB6813437B61FB683A699A61FB687A696A
:1042B8001A6200BF1C37BD465DF8047B704780B4A6
:1042C80087B000AFF860B9607A60FB681B6A23F0BA
:1042D8001002FB681A62FB689B697B61FB681B6ABA
:1042E8003B617B6923F470437B617B681B037A69BC
:1042F80013437B613B6923F0A0033B61BB681B014F
:104308003A6913433B61FB687A699A61FB683A69C9
:104318001A6200BF1C37BD465DF8047B704780B445
:1043280085B000AF786039607B689B68FB60FB688C
:1043380023F07003FB603A68FB68134343F00703FC
:10434800FB607B68FA689A6000BF1437BD465DF869
:10435800047B704780B487B000AFF860B9607A60BA
:104368003B60FB689B687B617B6923F47F437B61CF
:104378003B681A027B681A43BB6813437A69134384
:104388007B61FB687A699A6000BF1C37BD465DF89F
:10439800047B704780B487B000AFF860B9607A607A
:1043A800BB6803F01F03012202FA03F37B61FB6879
:1043B8001A6A7B69DB431A40FB681A62FB681A6A4F
:1043C800BB6803F01F03796801FA03F31A43FB681B
:1043D8001A6200BF1C37BD465DF8047B70470000B9
:1043E80080B485B000AF786039607B6893F83C3062
:1043F800012B01D102235AE07B68012283F83C207B
:104408007B68022283F83D207B681B685B68FB6041
:104418007B681B689B68BB60FB6823F07003FB60CC
:104428003B681B68FA681343FB607B681B68FA6883
:104438005A607B681B68214A934222D07B681B68BC
:10444800B3F1804F1DD07B681B681D4A934218D07A
:104458007B681B681B4A934213D07B681B681A4A07
:1044680093420ED07B681B68184A934209D07B6838
:104478001B68174A934204D07B681B68154A93420D
:104488000CD1BB6823F08003BB603B685B68BA68EB
:104498001343BB607B681B68BA689A607B6801221B
:1044A80083F83D207B68002283F83C2000231846CF
:1044B8001437BD465DF8047B704700BF000001401B
:1044C8000004004000080040000C004000040140C7
:1044D800004001400018004080B483B000AF78600D
:1044E80000BF0C37BD465DF8047B704780B483B0CD
:1044F80000AF786000BF0C37BD465DF8047B70479D
:10450800014B1868704700BF0C02002070B50D4EB3
:104518000D4CA41BA4100025A54209D10B4E0C4C30
:1045280001F044FDA41BA4100025A54205D170BDCF
:1045380056F8253098470135EEE756F82530984764
:104548000135F2E73862000838620008386200086E
:104558003C62000802440346934200D1704703F8C6
:10456800011BF9E72DE9FF4755EC104B0D9FDDF8CE
:1045780030A0002D0E4691461946B8BF22462B465C
:1045880027F02007BBBF05F100431D4600232D235C
:10459800B8BF1446462F0B7004D0452F00D1013602
:1045A800022100E0032103AB019302AB00933246E2
:1045B800534645EC104B00F0ABFB472F804602D129
:1045C80019F0010F26D0462F08EB060911D198F8EB
:1045D8000030302B0AD10022002320462946FCF760
:1045E8001BFA18B9C6F10106CAF80060DAF80030FB
:1045F80099440022002320462946FCF70DFA38B9D1
:104608003022039B4B4505D2591C03911A70F8E7D9
:10461800CDF80C90039B0E9AA3EB08034046136059
:1046280004B0BDE8F087F7B500290446BABF49428F
:104638002D232B23092904F8022B437020DD0DF1CB
:1046480007031F460A2691FBF6F506FB15113031C4
:10465800092D03F8011C03F1FF32294609DC30312A
:10466800023B02F8011CBB42224604D3101A03B0D5
:10467800F0BD1346E7E713F8012B04F8012BF2E726
:10468800302319448370021DC170EFE72DE9F04F04
:104698008DB00C46DDF8588016461F46054601F0D9
:1046A800EFF8036804931846FBF78AFD00230A9382
:1046B800D8F800300590073323F0070303F1080208
:1046C80094F818A0D4F800B0C8F80020D3E9002363
:1046D800C4E91223D4E9128929F000430793CDF8DD
:1046E80018804FF0FF32A74BDDE90601FCF7C6F949
:1046F80070BB4FF0FF32A34BDDE90601FCF7A0F9D0
:1047080030BB0022002340464946FCF78FF910B120
:104718002D2384F843309C4A9C4BBAF1470F8CBF39
:104728009046984603232BF00402236122604FF041
:104738000009009733460BAA2146284600F0E6F9FF
:10474800013040F08D804FF0FF300DB0BDE8F08FA4
:1047580042464B4640464946FCF790F910B18C4A10
:104768008C4BDAE761684B1C4BF480620AA83ED197
:10477800062363600023CDE9020309AB009349ECEB
:10478800108B0DF123032260CDF804A06168284640
:10479800FFF7E8FE0AF0DF03472B804609D1099BA3
:1047A800D81C02DB6268934247DDAAF1020A5FFA6D
:1047B8008AFABAF1650F099924D80139524604F1E9
:1047C80050000991FFF72FFF0A9A1318012A814612
:1047D800236102DC2268D10701D5013323619DF8EA
:1047E8002330002BA5D02D2384F84330A1E7BAF15C
:1047F800670F00F07781BAF1470FBBD10029B9D113
:104808000123B6E7BAF1660F19D1002963680CDDF8
:10481800216113B92268D20702D501330B44236101
:10482800099BA3654FF00009D9E713B92268D0079F
:1048380001D50233F3E70123F1E74FF0670ADDE919
:104848000932934205DB22682361D107E8D5013399
:10485800E5E7002BD4BFC3F1020301231344DEE7CD
:1048680023685A0507D42369424631462846B84783
:1048780001302BD167E7BAF1650F40F2DC800022E6
:104888000023D4E91201FCF7C7F8002833D001232C
:10489800414A31462846B84701303FF454AFDDE974
:1048A80009239A4202DB2368D8070FD5DDE90423E0
:1048B80031462846B84701303FF445AF4FF000086D
:1048C80004F11A090A9B013B434509DC23689B074D
:1048D80000F10381E0680B9B9842B8BF184634E7A3
:1048E80001234A4631462846B84701303FF42BAFEA
:1048F80008F10108E6E7099B002B2BDC0123264A77
:1049080031462846B84701303FF41DAF099B23B90B
:104918000A9B13B92368D907D8D5DDE904233146A2
:104928002846B84701303FF40EAF4FF0000904F1B4
:104938001A0A099B5B424B4501DC0A9B94E7012359
:10494800524631462846B84701303FF4FCAE09F1DB
:104958000109EEE70A9AA36D9A42A8BF1A46002AEF
:10496800914607DD1346314642462846B84701308E
:104978003FF4E9AE04F11A034FF0000B29EAE97994
:10498800069315E0FFFFEF7F0C6000080860000841
:104998001460000810600008186000080123069AD7
:1049A80031462846B84701303FF4CDAE0BF1010B34
:1049B800D4F858A0AAEB09035B45EFDCDDE909232D
:1049C8009A42D04415DB2368DA0712D40A9B099966
:1049D800A3EB0A02A3EB010A9245A8BF9246BAF1DB
:1049E800000F0EDC4FF000082AEAEA7A04F11A09EF
:1049F80019E0DDE9042331462846B8470130E5D1FE
:104A0800A1E65346424631462846B8470130E9D127
:104A180099E601234A4631462846B84701303FF413
:104A280092AE08F10108DDE909239B1AA3EB0A03FA
:104A38004345EEDC4AE70A9A012A01DCDB073AD54E
:104A48000123424631462846B84701303FF47BAE41
:104A5800DDE9042331462846B847013008F101084A
:104A68003FF471AE0A9B002203F1FF3AD4E9120128
:104A78000023FBF7D1FFC8B95346424631462846C2
:104A8800B84701300ED15EE601235246314628462A
:104A9800B84701303FF457AE08F101080A9B013BC3
:104AA8004345F1DC4B4604F15002DEE64FF00008C6
:104AB80004F11A0AF2E70123DFE701234A463146E7
:104AC8002846B84701303FF43EAE08F10108E368D4
:104AD8000B9A9B1A4345F0DCFCE64FF0000804F102
:104AE8001909F4E700293FF48BAE0023CDE902034E
:104AF80009AB009349EC108B2260CDF804A00DF1AE
:104B080023032846FFF72EFD804648E62DE9F047A7
:104B180091461F468A680B69DDF820809342B8BF2A
:104B28001346C9F8003091F8432006460C4612B1E6
:104B38000133C9F800302368990642BFD9F800301C
:104B48000233C9F80030256815F0060507D104F1CD
:104B5800190AE368D9F800209B1AAB4228DC94F8BC
:104B680043302268003318BF012392062DD404F184
:104B7800430239463046C047013020D02368E568F3
:104B8800D9F8002003F00603042B08BFAD1AA36868
:104B980022690CBF25EAE57500259342C4BF9B1A1C
:104BA800ED184FF000091A344D451AD1002008E0DD
:104BB8000123524639463046C047013003D14FF0F1
:104BC800FF30BDE8F0870135C3E7E1185A1C3020F3
:104BD80081F84300224494F8451082F843100233C8
:104BE800C5E70123224639463046C0470130E6D0A2
:104BF80009F10109D8E72DE9F74F03690C69A342C8
:104C08008046C0F28280013C01F114074FEA840C0F
:104C180000F1140657F8245056F8240006EB0C034C
:104C2800013507EB0C090193B0FBF5F595B34FF08F
:104C3800000A3846B646D34650F8042B93B205FB13
:104C480003A34FEA134A9BB2ABEB0303120CDEF843
:104C580000B005FB02A213FA8BF34FEA124A1FFABF
:104C680082FBDEF80020CBEB124202EB23429BB220
:104C780043EA024381454FEA224B4EF8043BDBD21C
:104C880056F80C3033B9019B043B9E421A4630D388
:104C9800C8F81040404601F029F8002825DB013506
:104CA80030464FF0000C57F8042BD0F800E093B2D0
:104CB800ACEB0303120C13FA8EF3C2EB1E4202EBA9
:104CC80023429BB243EA0243B9454FEA224C40F8DB
:104CD800043BE8D256F8242006EB84032AB9043BA7
:104CE8009E421A460BD3C8F81040284603B0BDE8C8
:104CF800F08F1268043B002ACAD1013CC5E712684C
:104D0800043B002AEFD1013CEAE70020EEE700006F
:104D18002DE9F04F57EC106B97B0456A06910446A1
:104D28000B921293DDF88080CDE900673DB9102021
:104D380000F0B4FD6062C0E901550560C560636AB2
:104D4800196851B15A684A60012393408B60204624
:104D580000F0EBFD636A00221A603B1EBBBF23F024
:104D68000043019300230122ACBFC8F80030C8F803
:104D78000020AF4BDDF8048033EA080314D1129AFF
:104D880042F20F731360009B23B9C8F31300002885
:104D980000F04285219BDFF8ACB2002B00F044857F
:104DA8000BF1030300F03EBDDDE90067002200239C
:104DB80030463946FBF730FE814668B1129A012326
:104DC8001360219B002B00F024859A4B219A03F154
:104DD800FF3B136000F028BD14AA15A947EC106B1F
:104DE800204600F0FAFFC8F30A550490002D7CD045
:104DF800C7F3130343F07F5BB2464BF4401BA5F2A5
:104E0800FF35CDF84C9000228B4B50465946FBF7A6
:104E1800E3F981A3D3E90023FBF796FB80A3D3E949
:104E28000023FBF7DBF9064628460F46FBF722FB73
:104E38007DA3D3E90023FBF787FB02460B463046E8
:104E48003946FBF7CBF906460F46FBF72DFE002245
:104E58008246002330463946FBF7E8FD48B1504604
:104E6800FBF708FB32463B46FBF7D6FD08B90AF1CB
:104E7800FF3ABAF1160F59D8704901EBCA01DDE9BA
:104E88000023D1E90001FBF7EFFD002850D00AF11B
:104E9800FF3A00230F93149B5D1BB5F1010849BF2E
:104EA800C5F10103002305934FF0000858BF05938F
:104EB800BAF1000F3EDB0023D044CDF838A00793A9
:104EC800069B092B00F29080052BC4BF043B069378
:104ED800069BA3F10203CCBF00250125032B00F29A
:104EE8008F80DFE803F07D7F3171DDE914531D44C5
:104EF80005F23240202813DDC0F14000009B08FA7B
:104F080000F805F2124023FA00F048EA0000FBF727
:104F1800A1FA01238246A1F1F87B013D139372E7C0
:104F2800009BC0F1200003FA00F0F0E70123B1E78D
:104F38000F90B0E7059BA3EB0A030593CAF10003A2
:104F4800079300230E93BBE701230A930B9B002BC7
:104F580059DD02939946666A00227260042202F1C2
:104F680014009842716853D9204600F0AAFC636A7D
:104F78003060B9F10E0FD3F800B000F2E680002DD2
:104F880000F0E3809DED007BBAF1000F8DED107B02
:104F980074DD2A4A0AF00F0302EBC30393ED007B8A
:104FA8004FEA2A16F0068DED087B65D5244BDDE91E
:104FB8001001D3E90823FBF7F1FBCDE9000106F066
:104FC8000F0603251E4F4CE001230A930B9B534405
:104FD80003F1010902934B46012BB8BF0123BAE73D
:104FE8000023B2E70023F0E70125002306930A9582
:104FF8004FF0FF3302939946002212230B92AAE73F
:1050080001230A93F4E70123029399461A46F5E728
:10501800013171605200A2E761436F63A787D23FF5
:10502800B3C8608B288AC63FFB799F501344D33F8F
:105038000000F07F196000080000F83F5060000889
:105048002860000823600008F10708D5DDE9080199
:10505800D7E90023FBF778FACDE908010135761086
:105068000837002EF0D1DDE90823DDE90001FBF760
:1050780095FBCDE900011AE00225A3E700F0A08026
:10508800CAF100069F4BA04F06F00F0203EBC203C4
:10509800D3E90023DDE91001FBF756FACDE9000159
:1050A800361100230225002E7FD1002BE1D10F9B62
:1050B800002B00F08780DDE900670022934B304623
:1050C8003946FBF7B3FC00287CD0B9F1000F79D042
:1050D800029B002B35DD0AF1FF3308933946002285
:1050E8008B4B3046FBF730FACDE90001029F0135C2
:1050F8002846FBF7BFF9DDE90023FBF725FA002274
:10510800844BFBF76BF80546A1F15076002F5DD173
:105118000022814BDDE90001FBF75EF82A463346A1
:10512800CDE90001FBF7A0FC002840F088822A4660
:1051380006F10043DDE90001FBF778FC002840F0A8
:105148007C82DDE91023CDE90023159B002BC0F2FA
:105158005081BAF10E0F00F34C816A4B03EBCA037E
:1051680093ED007B0B9B002B8DED027B80F2D880AA
:10517800B9F1000F00F3D48040F05E820022664B44
:1051880051EC170BFBF7E0F9DDE90023FBF762FCB4
:105198004F464E46002840F0348231230BF101057A
:1051A8008BF800300AF1010A2FE2F20705D5D7E99A
:1051B8000023FBF7C9F9013501237610083772E798
:1051C800022574E7CDF820A04F4691E74D4B03EB3D
:1051D800C70353E902010A9B002B47D002460B463E
:1051E80000204E49FBF7DAFA2A463346FAF7F4FF6D
:1051F800CDE90C015D46DDE90001FBF755FC0646EB
:10520800FBF738F902460B46DDE90001FAF7E4FF3F
:10521800303605F8016BDDE90C23CDE90001FBF719
:1052280005FC002863D1DDE9002300203749FAF79F
:10523800D3FFDDE90C23FBF7F9FB002840F0B7802A
:10524800A5EB0B039F427FF77CAF0022304BDDE9D3
:105258000C01FBF779F90022CDE90C012C4BDDE9B3
:105268000001FBF771F9CDE90001C4E72A4633468E
:10527800FBF76AF9CDE90C010BEB07055E46DDE9A2
:105288000001FBF711FC0746FBF7F4F8303702463C
:105298000B46DDE90001FAF79FFF06F8017BAE42F5
:1052A800CDE900014FF0000226D11C4BDDE90C01CD
:1052B800FAF794FF02460B46DDE90001FBF7D4FB41
:1052C800002874D1DDE90C2300201449FAF784FF83
:1052D80002460B46DDE90001FBF7A8FB00283FF476
:1052E80030AF15F8013C302B05F1FF3202D0DDF864
:1052F80020A04AE01546F4E7054BFBF725F9CDE970
:105308000001BCE750600008286000080000F03F7A
:105318000000244000001C40000014400000E03F52
:10532800DDE900675D46DDE9022330463946FBF7D3
:1053380035FAFBF7B9FB8046FBF79CF8DDE9022359
:10534800FBF702F902460B463046394608F13006AB
:10535800FAF742FF05F8016BA5EB0B06B1450246CB
:105368000B4639D1FAF73AFFDDE9022306460F4624
:10537800FBF77AFBC8B9DDE9022330463946FBF76B
:105388004BFB10B118F0010F0FD10499204600F023
:10539800CCFA0023129A2B700AF101031360219BA7
:1053A800002B00F041821D603EE2CDF820A015F8E8
:1053B800012C392A05F1FF3308D19B450AD1089BF6
:1053C8000133089330238BF800305B461A7801329A
:1053D8001A708CE71D46EAE700229B4BFBF7B4F8EE
:1053E8000022002306460F46FBF716FB00289AD03A
:1053F800CBE70A9A002A00F08B80069A012A6EDC15
:10540800139A002A67D003F23343079F059D059A34
:1054180001211A4420460592984400F026FB0646CE
:10542800002D0CDDB8F1000F09DD4545059A2B4626
:10543800A8BF4346D21A0592ED1AA8EB0308079BAA
:10544800EBB10A9B002B67D08FB131463A46204614
:1054580000F0AAFB049A01460646204600F00EFB1F
:1054680004990890204600F060FA089B0493079B73
:10547800DA1B04D00499204600F096FB0490012121
:10548800204600F0F2FA0E9B0746002B00F0D08170
:105498001A460146204600F087FB069B012B07466B
:1054A80040DC009B002B39D1019BC3F31303002B75
:1054B80036D1019B23F000431B0D1B052BB1059B27
:1054C8000133059308F10108012307930E9B002B74
:1054D8002AD1012030E0149BC3F1360395E7079BDE
:1054E80009F1FF37BB42BFBF079B0797FA1A0E9B0C
:1054F800BBBF9B180E93DF1B0027B9F1000FB5BF88
:10550800059B059DA3EB09054B46B8BF00237EE725
:10551800079F059D0A9E83E7079AABE70023D4E718
:10552800009BD2E7002307933B6907EB83031869C5
:1055380000F04DFAC0F12000404410F01F0047D0A1
:10554800C0F12003042B3BDD059BC0F11C00034484
:10555800059305448044059B002B05DD1A460499F4
:10556800204600F06FFB0490B8F1000F05DD3946C6
:105578004246204600F066FB07460F9B53B3394668
:10558800049800F0B3FB002824DA00230A220499C7
:10559800204600F0E1F90A9B04900AF1FF3A002B3B
:1055A80000F04D81002331460A22204600F0D4F94C
:1055B800029B002B06464FDC069B022B4CDD11E0BC
:1055C800C9D0059A1C331A4405921D449844C2E771
:1055D8000346F6E7B9F1000F38DC069B022B35DDF0
:1055E800CDF80890029B63B939460522204600F0A1
:1055F800B3F901460746049800F078FB00283FF706
:10560800CCAD0B9B5D466FEA030A4FF000093946A3
:10561800204600F08AF9002E3FF4B7AEB9F1000F2A
:1056280005D0B14503D04946204600F07EF9314601
:10563800204600F07AF9A8E600273E46E1E7DDF8C3
:1056480020A03E46A9E500BF000024400A9BCDF8F3
:105658000890002B00F0FA80002D05DD31462A461F
:10566800204600F0EFFA0646079B002B4CD07168E5
:10567800204600F026F9326902320546920006F10A
:105688000C010C3000F012F901222946204600F0E6
:10569800D9FA009BCDF814B003F00103B146079383
:1056A800064639460498FFF7A6FA4946054600F12A
:1056B8003008049800F01AFB32460090394620461C
:1056C80000F02EFBC368024603BB0146089004980D
:1056D80000F00CFB089A034611462046089300F098
:1056E80024F9089BA3B9069A92B9079A82B9B8F126
:1056F800390F29D0009B002B01DD05F13108059BEE
:105708005D1C83F8008082E73046C2E70123E3E7A7
:10571800009A002A04DB25D1069A1ABB079A0ABB0D
:10572800002BECDD01220499204600F08BFA394663
:10573800049000F0DBFA002803DCE0D118F0010F38
:10574800DDD0B8F1390FD8D1059B059A5D1C3923F6
:10575800137015F8013C392B05F1FF324FD0013396
:10576800137054E7059A002B02F1010506DDB8F124
:10577800390FE9D008F10108059BC2E7029A05F83C
:10578800018CA5EB0B03934221D000230A22049934
:10579800204600F0E1F8B14504904FF000034FF0C7
:1057A8000A024946204605D100F0D6F88146064649
:1057B800059576E700F0D0F83146814600230A22A5
:1057C800204600F0C9F80646F2E74FF0000901222A
:1057D8000499204600F036FA3946049000F086FA1B
:1057E8000028B6DC02D118F0010FB2D115F8013C3F
:1057F800302B05F1FF327FF40AAF1546F6E79345E3
:1058080005D131230AF1010A8BF80030FFE615466D
:105818009FE7DFF864B007E0219BDFF860B01BB1B9
:105828000BF10803219A1360584617B0BDE8F08FB2
:10583800069B012B7FF735AE0E9B079349E6029B2B
:10584800002B03DC069B022B3FF7CCAE5D463946A6
:105858000498FFF7D0F900F1300805F8018B029A97
:10586800A5EB0B039A42B0DD00230A2204992046D7
:1058780000F072F80490EAE7186000081A6000085F
:10588800044B1B68186A044B002808BF1846F03000
:10589800704700BF0C02002070020020024B014636
:1058A800186800F0F7BA00BF0C02002010B5431EBC
:1058B8000A44914200D110BD11F8014B03F8014F81
:1058C800F7E770B5456A04460E463DB91020FFF764
:1058D800E5FF6062C0E901550560C560656AEB686F
:1058E80083B1636ADB6853F82600B8B9012101FA6D
:1058F80006F56A1D9200204600F0BEFA60B1C0E9C4
:1059080001650EE021220421204600F0B5FA636A01
:10591800E860DB68002BE4D1002070BD026843F822
:1059280026200023C0E90333F7E770B5446A06462A
:105938000D463CB91020FFF7B1FF7062C0E9014481
:105948000460C4603DB1736A6A68DB6853F822106A
:10595800296043F8225070BD2DE9F0410D691F46BA
:1059680006460C4601F1140C0023DCF8000081B255
:1059780002FB01710F0C000C02FB007089B20133AD
:1059880001EB00419D424FEA10474CF8041BECDC48
:10599800D7B1A368AB4212DC616830460131FFF72A
:1059A80090FF2269023204F10C01804692000C300B
:1059B800FFF77CFF21463046FFF7B7FF444604EB6C
:1059C800850301355F6125612046BDE8F081020C41
:1059D80012040346B2B90304102013F07F4F04BF2A
:1059E8001B02083013F0704F04BF1B01043013F082
:1059F800404F04BF9B000230002B06DB5B0003D541
:105A0800013070470020E8E720207047036813F052
:105A1800070201460BD0DA0723D4980749BF5B0871
:105A28009B0801200B605CBF0B600220704798B296
:105A3800A8B91B0C102013F0FF0F04BF1B0A083075
:105A48001A0704BF1B0904309A0704BF9B080230D9
:105A5800DA0702D45B0806D001300B6070471046A5
:105A6800E9E7002070472020704710B50C46012157
:105A7800FFF727FF01224461026110BD2DE9F74FAE
:105A880014460A6923699A42B8BF0B468846BCBFC8
:105A9800A0461C46D8F81070D4F81090D8F80830F2
:105AA800D8F8041007EB0906B342B8BF0131FFF775
:105AB80008FF00F1140505EB860E2B4600227345FE
:105AC80016D304F1140208F1140102EB890301EB67
