:020000040800F2
:10000000000002207D2A0008612900086F290008ED
:10001000752900087B2900088129000800000000DC
:100020000000000000000000000000008729000818
:100030009529000800000000A3290008B129000844
:10004000CD2A0008CD2A0008CD2A0008CD2A0008B4
:10005000CD2A0008CD2A0008CD2A0008CD2A0008A4
:10006000CD2A0008CD2A0008CD2A0008CD2A000894
:10007000CD2A0008CD2A0008CD2A0008BD29000895
:10008000CD2A0008CD2A0008CD2A0008CD2A000874
:10009000CD2A0008CD2A0008CD2A0008CD2A000864
:1000A000CD2A0008CD2A0008CD2A0008CD2A000854
:1000B000CD2A0008CD2A0008CD2A0008CD2A000844
:1000C000CD2A0008CD2A0008CD2A0008CD2A000834
:1000D000D1290008CD2A0008CD2A0008CD2A000821
:1000E000CD2A0008CD2A0008CD2A0008CD2A000814
:1000F000CD2A0008CD2A0008CD2A0008CD2A000804
:10010000CD2A0008CD2A0008CD2A0008CD2A0008F3
:10011000CD2A0008CD2A0008CD2A0008E5290008CC
:10012000CD2A0008CD2A0008CD2A0008CD2A0008D3
:10013000CD2A0008CD2A0008CD2A0008CD2A0008C3
:10014000CD2A0008CD2A0008CD2A0008CD2A0008B3
:10015000CD2A0008CD2A0008CD2A0008CD2A0008A3
:10016000CD2A0008CD2A0008CD2A0008CD2A000893
:10017000CD2A0008CD2A0008CD2A00080000000082
:08018000CD2A0008CD2A000879
:1001900010B5054C237833B9044B13B10448AFF3C1
:1001A00000800123237010BD4403002000000000E4
:1001B0009081000808B5034B1BB103490348AFF316
:1001C000008008BD00000000480300209081000866
:1001D000034613F8012B002AFBD1181A0138704787
:1001E00001F0FF01102A2BDB10F0070F08D010F8E8
:1001F000013B013A8B422DD010F0070F42B3F6D1EC
:10020000F0B441EA012141EA014122F007047FF004
:1002100000070023F0E80256083C85EA010586EA5B
:10022000010685FA47F5A3FA87F586FA47F6A5FA97
:1002300087F68EB9EED1F0BC01F0FF0102F00702A3
:1002400032B110F8013B013A83EA010313B1F8D14E
:100250000020704701387047002D06BF354603382F
:10026000073815F0010F07D1013015F4807F02BF68
:10027000013015F4C03F0130F0BC0138704700BFB9
:1002800081F0004102E000BF83F0004330B54FEA47
:1002900041044FEA430594EA050F08BF90EA020FB4
:1002A0001FBF54EA000C55EA020C7FEA645C7FEA47
:1002B000655C00F0E2804FEA5454D4EB5555B8BF6A
:1002C0006D420CDD2C4480EA020281EA030382EADB
:1002D000000083EA010180EA020281EA0303362D6D
:1002E00088BF30BD11F0004F4FEA01314FF4801C40
:1002F0004CEA113102D0404261EB410113F0004F52
:100300004FEA03334CEA133302D0524263EB430308
:1003100094EA050F00F0A780A4F10104D5F1200EA6
:100320000DDB02FA0EFC22FA05F2801841F1000101
:1003300003FA0EF2801843FA05F359410EE0A5F1D5
:1003400020050EF1200E012A03FA0EFC28BF4CF006
:10035000020C43FA05F3C01851EBE37101F00045BC
:1003600007D54FF0000EDCF1000C7EEB00006EEBC9
:100370000101B1F5801F1BD3B1F5001F0CD3490853
:100380005FEA30004FEA3C0C04F101044FEA4452AA
:1003900012F5800F80F09A80BCF1004F08BF5FEA31
:1003A000500C50F1000041EB045141EA050130BD11
:1003B0005FEA4C0C404141EB010111F4801FA4F1B4
:1003C0000104E9D191F0000F04BF01460020B1FA09
:1003D00081F308BF2033A3F10B03B3F120020CDA41
:1003E0000C3208DD02F1140CC2F10C0201FA0CF01F
:1003F00021FA02F10CE002F11402D8BFC2F1200C84
:1004000001FA02F120FA0CFCDCBF41EA0C01904039
:10041000E41AA2BF01EB0451294330BD6FEA040482
:100420001F3C1CDA0C340EDC04F11404C4F120026D
:1004300020FA04F001FA02F340EA030021FA04F37F
:1004400045EA030130BDC4F10C04C4F1200220FAD6
:1004500002F001FA04F340EA0300294630BD21FA14
:1004600004F0294630BD94F0000F83F4801306BFDA
:1004700081F480110134013D4EE77FEA645C18BFCE
:100480007FEA655C29D094EA050F08BF90EA020F65
:1004900005D054EA000C04BF1946104630BD91EA5D
:1004A000030F1EBF0021002030BD5FEA545C05D160
:1004B0004000494128BF41F0004130BD14F580049F
:1004C0003CBF01F5801130BD01F0004545F0FE4113
:1004D00041F470014FF0000030BD7FEA645C1ABF48
:1004E000194610467FEA655C1CBF0B46024650EA7F
:1004F000013406BF52EA033591EA030F41F40021AB
:1005000030BD00BF90F0000F04BF0021704730B530
:100510004FF4806404F132044FF000054FF0000105
:1005200050E700BF90F0000F04BF0021704730B5C6
:100530004FF4806404F1320410F0004548BF40429B
:100540004FF000013EE700BF42004FEAE2014FEAF0
:1005500031014FEA02701FBF12F07F4393F07F4FCB
:1005600081F06051704732F07F4208BF704793F0CE
:100570007F4F04BF41F40021704730B54FF46074E1
:1005800001F0004521F000411CE700BF50EA0102E4
:1005900008BF704730B54FF000050AE050EA01028D
:1005A00008BF704730B511F0004502D5404261EBFD
:1005B00041014FF4806404F132045FEA915C3FF43E
:1005C000D8AE4FF003025FEADC0C18BF03325FEADB
:1005D000DC0C18BF033202EBDC02C2F1200300FA8C
:1005E00003FC20FA02F001FA03FE40EA0E0021FAB1
:1005F00002F11444BDE600BF70B54FF0FF0C4CF49F
:10060000E06C1CEA11541DBF1CEA135594EA0C0F50
:1006100095EA0C0F00F0DEF82C4481EA030621EA8B
:100620004C5123EA4C5350EA013518BF52EA0335C6
:1006300041F4801143F4801338D0A0FB02CE4FF078
:100640000005E1FB02E506F00042E0FB03E54FF0A8
:100650000006E1FB03569CF0000F18BF4EF0010EA0
:10066000A4F1FF04B6F5007F64F5407404D25FEA9C
:100670004E0E6D4146EB060642EAC62141EA55514F
:100680004FEAC52040EA5E504FEACE2EB4F1FD0C91
:1006900088BFBCF5E06F1ED8BEF1004F08BF5FEA0F
:1006A000500E50F1000041EB045170BD06F00046C1
:1006B00046EA010140EA020081EA0301B4EB5C046E
:1006C000C2BFD4EB0C0541EA045170BD41F4801166
:1006D0004FF0000E013C00F3AB8014F1360FDEBF8B
:1006E000002001F0004170BDC4F10004203C35DA67
:1006F0000C341BDC04F11404C4F1200500FA05F3EA
:1007000020FA04F001FA05F240EA020001F000428A
:1007100021F0004110EBD37021FA04F642EB060100
:100720005EEA430E08BF20EAD37070BDC4F10C042A
:10073000C4F1200500FA04F320FA05F001FA04F2EE
:1007400040EA020001F0004110EBD37041F10001DA
:100750005EEA430E08BF20EAD37070BDC4F12005E5
:1007600000FA05F24EEA020E20FA04F301FA05F24D
:1007700043EA020321FA04F001F0004121FA04F2F5
:1007800020EA020000EBD3705EEA430E08BF20EAC5
:10079000D37070BD94F0000F0FD101F000464000FF
:1007A00041EB010111F4801F08BF013CF7D041EA81
:1007B000060195F0000F18BF704703F00046520085
:1007C00043EB030313F4801F08BF013DF7D043EA56
:1007D0000603704794EA0C0F0CEA135518BF95EA0C
:1007E0000C0F0CD050EA410618BF52EA4306D1D193
:1007F00081EA030101F000414FF0000070BD50EAB2
:10080000410606BF1046194652EA430619D094EA3B
:100810000C0F02D150EA013613D195EA0C0F05D125
:1008200052EA03361CBF104619460AD181EA030179
:1008300001F0004141F0FE4141F470014FF0000031
:1008400070BD41F0FE4141F4780170BD70B54FF0CC
:10085000FF0C4CF4E06C1CEA11541DBF1CEA13554C
:1008600094EA0C0F95EA0C0F00F0A7F8A4EB05042E
:1008700081EA030E52EA03354FEA013100F0888025
:100880004FEA03334FF0805545EA131343EA1263EE
:100890004FEA022245EA111545EA10654FEA0026A3
:1008A0000EF000419D4208BF964244F1FD0404F55C
:1008B000407402D25B084FEA3202B61A65EB0305B8
:1008C0005B084FEA32024FF480104FF4002CB6EB75
:1008D000020E75EB030E22BFB61A754640EA0C00F5
:1008E0005B084FEA3202B6EB020E75EB030E22BF35
:1008F000B61A754640EA5C005B084FEA3202B6EB76
:10090000020E75EB030E22BFB61A754640EA9C0034
:100910005B084FEA3202B6EB020E75EB030E22BF04
:10092000B61A754640EADC0055EA060E18D04FEAC2
:10093000051545EA16754FEA06164FEAC30343EA62
:1009400052734FEAC2025FEA1C1CC0D111F4801F2F
:100950000BD141EA00014FF000004FF0004CB6E728
:1009600011F4801F04BF01430020B4F1FD0C88BFC7
:10097000BCF5E06F3FF6AFAEB5EB030C04BFB6EBD2
:10098000020C5FEA500C50F1000041EB045170BDC5
:100990000EF0004E4EEA113114EB5C04C2BFD4EBF2
:1009A0000C0541EA045170BD41F480114FF0000E76
:1009B000013C90E645EA060E8DE60CEA135594EAF2
:1009C0000C0F08BF95EA0C0F3FF43BAF94EA0C0FF5
:1009D0000AD150EA01347FF434AF95EA0C0F7FF46A
:1009E00025AF104619462CE795EA0C0F06D152EABE
:1009F00003353FF4FDAE1046194622E750EA4106A2
:100A000018BF52EA43067FF4C5AE50EA41047FF4B2
:100A10000DAF52EA43057FF4EBAE12E74FF0FF3C17
:100A200006E000BF4FF0010C02E000BF4FF0010CE8
:100A30004DF804CD4FEA410C7FEA6C5C4FEA430C61
:100A400018BF7FEA6C5C1BD001B050EA410C0CBFB0
:100A500052EA430C91EA030F02BF90EA020F002012
:100A6000704710F1000F91EA030F58BF994208BF79
:100A700090422CBFD8176FEAE37040F00100704736
:100A80004FEA410C7FEA6C5C02D150EA013C07D18D
:100A90004FEA430C7FEA6C5CD6D152EA033CD3D0D8
:100AA0005DF8040B704700BF8446104662468C46D2
:100AB0001946634600E000BF01B5FFF7B7FF002805
:100AC00048BF10F1000F01BD4DF808EDFFF7F4FF2E
:100AD0000CBF012000205DF808FB00BF4DF808EDB9
:100AE000FFF7EAFF34BF012000205DF808FB00BFDC
:100AF0004DF808EDFFF7E0FF94BF012000205DF8FE
:100B000008FB00BF4DF808EDFFF7CEFF94BF0120B2
:100B100000205DF808FB00BF4DF808EDFFF7C4FFAB
:100B200034BF012000205DF808FB00BF4FEA410CF4
:100B30007FEA6C5C02D150EA013C0AD14FEA430CD7
:100B40007FEA6C5C02D152EA033C02D14FF0000014
:100B500070474FF0010070474FEA410212F5001252
:100B600015D211D56FF47873B3EB625212D94FEAF4
:100B7000C12343F0004343EA505311F0004F23FADE
:100B800002F018BF404270474FF00000704750EA33
:100B9000013005D111F0004008BF6FF000407047F0
:100BA0004FF00000704700BF53B94AB9002908BF91
:100BB00000281CBF4FF0FF314FF0FF3000F072B93A
:100BC000ADF1080C6DE904CE00F006F8DDF804E0A4
:100BD000DDE9022304B070472DE9F047089E044682
:100BE0008846002B4BD18A42154667D9B2FA82F269
:100BF0004AB1C2F1200701FA02F320FA07F7954043
:100C000047EA030894404FEA154E230CB8FBFEF761
:100C10001FFA85FC0EFB178843EA084307FB0CF11B
:100C2000994209D9EB1807F1FF3080F01B819942F6
:100C300040F21881023F2B445B1AA4B2B3FBFEF0D2
:100C40000EFB103344EA034400FB0CFCA44509D915
:100C50002C1900F1FF3380F00781A44540F2048194
:100C600002382C4440EA0740A4EB0C0400271EB1D4
:100C7000D4400023C6E900433946BDE8F0878B42E3
:100C800009D9002E00F0EB800027C6E900013846A4
:100C90003946BDE8F087B3FA83F7002F47D18B427E
:100CA00002D3824200F2FA80841A61EB030301202E
:100CB0009846002EE0D0C6E90048DDE702B9FFDE25
:100CC000B2FA82F2002A40F08F80491B4FEA154E9B
:100CD0001FFA85F80127B1FBFEFC230C0EFB1C114B
:100CE00043EA014308FB0CF1994207D9EB180CF1D8
:100CF000FF3002D2994200F2CD808446591AA3B245
:100D0000B1FBFEF00EFB101443EA044408FB00F8AC
:100D1000A04507D92C1900F1FF3302D2A04500F2FB
:100D2000B6801846A4EB080440EA0C409FE7C7F1E0
:100D3000200CBB4022FA0CFE4EEA030E01FA07F427
:100D400020FA0CF521FA0CF34FEA1E482543B3FBB9
:100D5000F8F92C0C08FB19331FFA8EFA44EA034306
:100D600009FB0AF49C4202FA07F200FA07F10BD9D8
:100D70001EEB030309F1FF3080F087809C4240F2B4
:100D80008480A9F1020973441B1BADB2B3FBF8F0D8
:100D900008FB103345EA034400FB0AFAA24508D9D0
:100DA0001EEB040400F1FF336BD2A24569D902386F
:100DB000744440EA0940A0FB0289A4EB0A044C45B4
:100DC000C2464B4654D351D0002E69D0B1EB0A0530
:100DD00064EB030404FA0CFCFD40FC404CEA0505FE
:100DE000C6E90054002747E7C2F1200320FA03F7C1
:100DF000954001FA02F021FA03F34FEA154E384309
:100E0000010CB3FBFEF71FFA85F80EFB173341EA1E
:100E1000034107FB08F38B4204FA02F407D969186F
:100E200007F1FF3C2FD28B422DD9023F2944CB1A28
:100E300081B2B3FBFEF00EFB103341EA034100FB2D
:100E400008F38B4207D9691800F1FF3C17D28B4297
:100E500015D902382944C91A40EA07473BE7374603
:100E6000304609E70746E7E61846FBE64145ABD2C0
:100E7000B8EB020A69EB0E0201381346A4E760469C
:100E8000E9E7184695E76746D1E781467CE70238EF
:100E90002C4447E7ACF1020C2B442FE7384608E717
:100EA0003746E9E6704700BF80B584B000AF03461F
:100EB000FB7101222021164802F084FCF823FB7309
:100EC00007F10F0301221946124803F093FEFB7944
:100ED00023F00F03DBB2FB7307F10F030122194666
:100EE0000C4803F087FEFB791B01DBB2FB7307F1B3
:100EF0000F0301221946074803F07CFE002220213F
:100F0000034802F05FFC00BF1037BD4680BD00BF44
:100F100000100240F007002080B584B000AF034607
:100F2000FB7101222021164802F04CFCFA23FB73CE
:100F300007F10F0301221946124803F05BFEFB790B
:100F400023F00F03DBB2FB7307F10F0301221946F5
:100F50000C4803F04FFEFB791B01DBB2FB7307F17A
:100F60000F0301221946074803F044FE0022202106
:100F7000034802F027FC00BF1037BD4680BD00BF0C
:100F800000100240F007002080B582B000AF0022C0
:100F900080211E4802F016FC0A2001F00BFE0122FF
:100FA00080211A4802F00EFC282001F003FE3023B5
:100FB000FB71FB791846FFF777FF012001F0FAFD7E
:100FC000FB791846FFF770FF012001F0F3FD0C23B9
:100FD000FB71FB791846FFF767FF012001F0EAFD7E
:100FE0000123FB71FB791846FFF75EFF0C2001F02F
:100FF000E1FD0623FB71FB791846FFF755FF012041
:1010000001F0D8FD00BF0837BD4680BD0004024096
:1010100080B582B000AF0346FB71FB79002B0CD08A
:101020003420FFF741FF012001F0C4FD3620FFF717
:101030003BFF012001F0BEFD0BE0FB7983F00103D3
:10104000DBB2002B05D03020FFF72EFF012001F08E
:10105000B1FD00BF0837BD4680BD80B582B000AF8E
:101060000023BB712DE0BB791F2B0AD8BB7963F03D
:101070007F03DBB21846FFF717FF8020FFF714FF4E
:101080000DE0BB79203BDBB25BB263F07F035BB268
:10109000DBB21846FFF708FF8820FFF705FF0023A3
:1010A000FB7108E00020FFF737FF0020FFF734FF57
:1010B000FB790133FB71FB79072BF3D9BB79013342
:1010C000BB71BB793F2BCED900F08AFA00BF08373D
:1010D000BD4680BD80B584B000AF78600023BB8181
:1010E0000023BB733AE10023FB7330E1BB7B1F2B72
:1010F0000ED8BB7B63F07F03DBB21846FFF7D4FE4C
:10110000FB7B63F07F03DBB21846FFF7CDFE11E0F7
:10111000BB7B203BDBB25BB263F07F035BB2DBB235
:101120001846FFF7C1FEFB7B63F07703DBB218467E
:10113000FFF7BAFEBB7BDB08DBB2DA00FB7B1344B4
:101140009BB21B01BB81BB7B03F00703FB72BB8916
:101150007A6813441B781A46FB7A42FA03F3DB01E0
:101160005AB2BB89013379680B441B781946FB7A64
:1011700041FA03F39B015BB203F040035BB21343FC
:101180005AB2BB89023379680B441B781946FB7A43
:1011900041FA03F35B015BB203F020035BB213433C
:1011A0005AB2BB89033379680B441B781946FB7A22
:1011B00041FA03F31B015BB203F010035BB213436C
:1011C0005AB2BB89043379680B441B781946FB7A01
:1011D00041FA03F3DB005BB203F008035BB2134395
:1011E0005AB2BB89053379680B441B781946FB7AE0
:1011F00041FA03F39B005BB203F004035BB21343B9
:101200005AB2BB89063379680B441B781946FB7ABE
:1012100041FA03F35B005BB203F002035BB21343DA
:101220005AB2BB89073379680B441B781946FB7A9D
:1012300041FA03F35BB203F001035BB213435BB209
:10124000BB72BB7A1846FFF767FEBB8908337A6822
:1012500013441B781A46FB7A42FA03F3DB015AB2B5
:10126000BB89093379680B441B781946FB7A41FA2C
:1012700003F39B015BB203F040035BB213435AB22A
:10128000BB890A3379680B441B781946FB7A41FA0B
:1012900003F35B015BB203F020035BB213435AB26A
:1012A000BB890B3379680B441B781946FB7A41FAEA
:1012B00003F31B015BB203F010035BB213435AB29A
:1012C000BB890C3379680B441B781946FB7A41FAC9
:1012D00003F3DB005BB203F008035BB213435AB2C3
:1012E000BB890D3379680B441B781946FB7A41FAA8
:1012F00003F39B005BB203F004035BB213435AB2E7
:10130000BB890E3379680B441B781946FB7A41FA86
:1013100003F35B005BB203F002035BB213435AB208
:10132000BB890F3379680B441B781946FB7A41FA65
:1013300003F35BB203F001035BB213435BB2BB7216
:10134000BB7A1846FFF7E8FDFB7B0133FB73FB7BA1
:10135000072B7FF6CBAEBB7B0133BB73BB7B3F2B35
:101360007FF6C1AE00BF1037BD4680BD80B500AF6F
:101370000248FFF7AFFE00BF80BD00BFE0030020C2
:1013800080B485B000AF0346FB800B46BB8013469C
:10139000FB700023FB6028E0FB78002B12D0BA889A
:1013A00013465B0013445B001A46FB681344134A60
:1013B000D25CF988FB680B44013BD243D1B2104A9E
:1013C000D1540FE0BA8813465B0013445B001A4601
:1013D000FB681A44F988FB680B44013B0749895CA8
:1013E000074AD154FB680133FB60FB68062BD3DD51
:1013F00000BF1437BD465DF8047B7047DC810008F0
:10140000E003002080B586B000AF3B600346FB8060
:101410000B467B7113463B717B799BB2DB019AB221
:10142000FB881344FB800023FB810023FB75002312
:101430003B61C8E03B693A6813441B78BF2B22D854
:10144000FB7D002B02D00023FB75B9E03B693A68B5
:1014500013441B78FB813B79002B08D0FB89203B90
:1014600099B2FB8801221846FFF78AFF07E0FB8943
:10147000203B99B2FB8800221846FFF781FFFB88CA
:101480000633FB809CE03B693A6813441B781B02DF
:101490001AB23B69013339680B441B781BB2134302
:1014A0001BB2FB81FB894DF27F12934220D8FB894E
:1014B0004DF2810293421BD93B79002B0AD0FB8964
:1014C00003F53F530F3399B2FB8801221846FFF70B
:1014D00057FF09E0FB8903F53F530F3399B2FB88AF
:1014E00000221846FFF74CFFFB880633FB8065E0BF
:1014F000FB894DF28102934213D13B79002B06D038
:10150000FB8801229F211846FFF73AFF05E0FB8880
:1015100000229F211846FFF733FFFB880633FB802C
:101520004CE0FB894DF29112934213D13B79002B91
:1015300006D0FB880122A0211846FFF721FF05E015
:10154000FB880022A0211846FFF71AFFFB8806330C
:10155000FB8033E0FB894CF2B022934213D13B79FC
:10156000002B06D0FB880122A1211846FFF708FFB7
:1015700005E0FB880022A1211846FFF701FFFB8848
:101580000633FB801AE03B79002B0AD0FB8903F578
:101590003C530F3399B2FB8801221846FFF7F0FE47
:1015A00009E0FB8903F53C530F3399B2FB88002215
:1015B0001846FFF7E5FEFB880633FB800123FB7529
:1015C0003B6901333B613868FEF702FE02463B6926
:1015D0009A423FF62FAF00BF1837BD4680BD0000CE
:1015E00080B500AF4FF480620021024804F08CFD0A
:1015F00000BF80BDE003002090B583B000AF01F0D4
:1016000067FA00F0D3FB00F0F5FC00F0D3FC00F02B
:101610009BFC00F033FC00F061FCB94B4FF0FF3253
:101620005A61642001F0C6FAFFF7AEFC0120FFF713
:10163000EFFCB44AB44B03CB10605160B14B0022B5
:1016400003213220FFF7DEFEFFF790FE0023FB713F
:10165000B0E0FB79AD4A2C2101FB03F313441433B2
:1016600000221A70FB79A94A2C2101FB03F31344D1
:10167000133300221A70FB79A44A2C2101FB03F3D7
:101680001344123300221A70FB79A04A2C2101FB6B
:1016900003F31344153300221A70FB799B4A2C2163
:1016A00001FB03F313442033994A1A60FB79974AEC
:1016B0002C2101FB03F31344243300221A60FA792E
:1016C000944913465B001344DB000B441A68FB7912
:1016D00010468E4A2C2101FB03F313440433186097
:1016E000FA798C4913465B001344DB000B44043346
:1016F0001A68FB7990B2854A2C2101FB03F313444D
:10170000083302461A80FA79824913465B00134473
:10171000DB000B4408331A68FB7910467B4A2C2106
:1017200001FB03F313440C331860FA79794913462B
:101730005B001344DB000B440C331A68FB7990B256
:10174000724A2C2101FB03F31344103302461A8022
:10175000FA79704913465B001344DB000B441033E5
:101760001A68FB79D0B2694A2C2101FB03F31344B8
:10177000163302461A70FA79664913465B00134421
:10178000DB000B4414331A68FB7990B25F4A2C21BA
:1017900001FB03F31344183302461A80FB795B4ABA
:1017A0002C2101FB03F313441C3300221A60FB7944
:1017B0000133FB71FB790E2B7FF64BAF534B564A2F
:1017C0005A62524B554A5A65504B554AC3F88020CD
:1017D0004E4B544A9A644D4B534AC3F8CC204B4B62
:1017E000524AC3F82421494B514AC3F85C21474B64
:1017F000504AC3F88C21454B4F4AC3F8B821434B9C
:101800004E4AC3F83C22012240214D4801F0DAFF44
:10181000012280214A4801F0D5FF4FF42F7001F0DA
:10182000C9F9FFF71AFC474B1B681A464649354869
:1018300005F0CEF8334B002204211420FFF7E2FD1F
:10184000FFF794FD414803F0FEFC304B93F89F31C5
:10185000002B40F004822D4B93F8A031012B15D1C1
:101860002A4B002283F8A0210023BB710BE0BB7937
:10187000264A2C2101FB03F31344143300221A706F
:10188000BB790133BB71BB790E2BF0D900237B717F
:10189000E0E17B791D4A2C2101FB03F3134415334E
:1018A0001B78002B40F0D3817B79184A2C2101FB57
:1018B00003F3134416331B78002B49D17B79134A69
:1018C0002C2101FB03F313440C3318687B790F4A76
:1018D0002C2101FB03F3134410331C887B790B4A42
:1018E0002C2101FB03F3134413331B78002B0CBF93
:1018F00001230023DBB21A46214601F063FFA6E173
:10190000000C024060030020A88100084808002065
:101910001123000800000020952300084F2600082E
:1019200033260008840A0020CC0800202409002067
:1019300017260008B0810008B8810008C48100089B
:1019400000000240E0070020D0810008C00B00200A
:101950007B79A84A2C2101FB03F3134416331B782F
:10196000022B63D17B79A34A2C2101FB03F313449F
:1019700024331B68002B59D17B799E4A2C2101FB13
:1019800003F313441C331B68002B2DD07B79994A39
:101990002C2101FB03F313440C3318687B79954A1F
:1019A0002C2101FB03F3134410331C887B79914AEB
:1019B0002C2101FB03F3134414331B78002B0AD0B2
:1019C0007B798C4A2C2101FB03F313441C331B68E5
:1019D0001B7D002B01D1012300E00023DBB21A465E
:1019E000214601F0EFFE32E17B79824A2C2101FB96
:1019F00003F313440C3318687B797E4A2C2101FBD6
:101A000003F3134410331C887B797A4A2C2101FBA1
:101A100003F3134414331B78002B0CBF0123002362
:101A2000DBB21A46214601F0CDFE10E17B79714A06
:101A30002C2101FB03F3134424331B68002B2DD00E
:101A40007B796C4A2C2101FB03F3134416331B787A
:101A5000012B23D17B79674A2C2101FB03F313442B
:101A600014331B78002B19D07B79624A2C2101FB9F
:101A700003F31344143300221A707B795D4A2C213E
:101A800001FB03F3134424331B687A792C2101FBF7
:101A900002F258490A4410469847D8E07B79554AE3
:101AA0002C2101FB03F3134416331B78032B1CD1A9
:101AB0007B79504A2C2101FB03F3134414331B7828
:101AC000002B12D07B794B4A2C2101FB03F31344EA
:101AD000143300221A707B792C2202FB03F3454A4F
:101AE0001344184600F025FDB1E07B79414A2C21D2
:101AF00001FB03F3134416331B78042B52D17B797B
:101B00003C4A2C2101FB03F3134414331B78002BB4
:101B100048D07B79374A2C2101FB03F313441C3353
:101B20001B681B7D002B00F091807B79314A2C21B2
:101B300001FB03F31344143300221A707B792D4AFE
:101B40002C2101FB03F313440C3318687B79294AD9
:101B50002C2101FB03F3134410331B880022194688
:101B600001F030FE7B79234A2C2101FB03F313445F
:101B700018331B88184601F01DF87B791D4A2C216B
:101B800001FB03F313440C3318687B79194A2C21A9
:101B900001FB03F3134410331B880122194601F0A3
:101BA00011FE54E07B79134A2C2101FB03F313440B
:101BB00016331B78052B1FD17B790E4A2C2101FB94
:101BC00003F3134414331B78002B15D07B79094A97
:101BD0002C2101FB03F31344143300221A707B7988
:101BE0002C2202FB03F3034A13440121184600F0A0
:101BF00033FC2CE0480800207B79654A2C2101FB4E
:101C000003F3134416331B78062B20D17B79604AEB
:101C10002C2101FB03F3134414331B78002B16D043
:101C20007B795B4A2C2101FB03F31344143300221C
:101C30001A707B79564A2C2101FB03F313441C33A1
:101C40001B680121184600F007FC00E000BF7B790B
:101C500001337B717B790E2B7FF61BAEF5E54C4B88
:101C600093F8CC31002B00F08280494B93F84F322F
:101C7000012B03D10121474800F0EEFB464800F05C
:101C800058FC434BD3F89000414BB3F894300022FA
:101C9000194601F097FD3E4BD3F8BC003C4BB3F81E
:101CA000EC300022194601F08DFDC82000F082FFC3
:101CB000374BD3F86C01364BB3F87031002219461C
:101CC00001F080FD324BD3F8E800314BB3F8C0305F
:101CD0000022194601F076FD2D4BD3F814012C4B50
:101CE000B3F818310022194601F06CFD4FF49670DC
:101CF00000F060FF264BD3F86C01254BB3F8703130
:101D00000122194601F05EFD214BD3F89000204BD3
:101D1000B3F894300122194601F054FD1C4BD3F85E
:101D2000BC001B4BB3F8C0300122194601F04AFD3C
:101D3000174BD3F8E800164BB3F8EC3001221946E4
:101D400001F040FD124BD3F81401114BB3F81831D8
:101D50000122194601F036FD104800F0EAFBC820C8
:101D600000F028FF0E4B1B6801330D4A13600C4B2B
:101D70001B681A460B490C4804F02AFE0A4B002245
:101D800004211420FFF73EFBFFF7F0FA5DE500BFEA
:101D900048080020840A00207C090020A0080020B8
:101DA000E0070020D08100086003002080B594B0D7
:101DB00000AF07F1200330220021184604F0A4F9F7
:101DC00007F10C0300221A605A609A60DA601A6107
:101DD0000023BB60274B1B6C264A43F080531364DF
:101DE000244B1B6C03F08053BB60BB6800237B60FB
:101DF000214B1B68204A43F4804313601E4B1B6831
:101E000003F480437B607B6801233B624FF48033A3
:101E10007B620223BB634FF48003FB6304233B64B8
:101E200048237B640623BB640423FB6407F120037F
:101E3000184601F0E1FC0346002B01D000F026FC1F
:101E40000F23FB6002233B6100237B614FF480532F
:101E5000BB610023FB6107F10C030021184601F070
:101E60003BFF0346002B01D000F010FC00BF5037B1
:101E7000BD4680BD003802400070004080B500AF14
:101E8000144B154A1A60134B00225A60114B002262
:101E90009A60104B0022DA600E4B00221A610D4B43
:101EA00000225A610B4B00229A610A4802F0D2F8D4
:101EB0000346002B01D000F0E9FB4FF40061054818
:101EC00002F0FCFA0346002B01D000F0DFFB00BF5C
:101ED00080BD00BFDC0A0020002C014080B500AFAF
:101EE000174B184A1A60164B4FF482725A60144B03
:101EF00000229A60124B0022DA60114B02221A6112
:101F00000F4B01225A610E4B4FF400729A610C4B39
:101F10000022DA610A4B00221A62094B00225A623F
:101F2000074B00229A62064B0A22DA62044802F04A
:101F3000FDFD0346002B01D000F0A8FB00BF80BDD3
:101F4000F00700200038004080B582B000AF3B466B
:101F500000221A605A60154B154A1A60134B45F659
:101F6000BF525A60114B00229A60104B0522DA6072
:101F70000E4B00229A610D4803F03AF90346002BFC
:101F800001D000F083FB00233B6000237B603B46D5
:101F90001946064803F076FB0346002B01D000F0FB
:101FA00075FB00BF0837BD4680BD00BFC00B0020D9
:101FB0000014004080B582B000AF00237B600C4B62
:101FC0001B6B0B4A43F400131363094B1B6B03F4A5
:101FD00000137B607B68002200210F2000F0FBFED5
:101FE0000F2000F014FF00BF0837BD4680BD00BFC2
:101FF0000038024080B58CB000AF07F11C0300220E
:102000001A605A609A60DA601A610023BB61754BEE
:102010001B6B744A43F010031363724B1B6B03F08A
:102020001003BB61BB6900237B616E4B1B6B6D4A68
:1020300043F0040313636B4B1B6B03F004037B61DE
:102040007B6900233B61674B1B6B664A43F080034F
:102050001363644B1B6B03F080033B613B690023FC
:10206000FB60604B1B6B5F4A43F0010313635D4BE6
:102070001B6B03F00103FB60FB680023BB60594B43
:102080001B6B584A43F002031363564B1B6B03F060
:102090000203BB60BB6800237B60524B1B6B514A41
:1020A00043F0080313634F4B1B6B03F008037B6083
:1020B0007B68002220214C4801F084FB0022C021D3
:1020C0004A4801F07FFB00224FF47E41484801F06E
:1020D00079FB00224021474801F074FB0022802157
:1020E000454801F06FFB4FF6DA73FB6100233B625A
:1020F00001237B6207F11C0319463B4801F0B0F94C
:102100002023FB6101233B6200237B620023BB622F
:1021100007F11C031946344801F0A2F942F2020308
:10212000FB6100233B6201237B6207F11C0319461C
:10213000304801F095F9C023FB6101233B62002385
:102140007B620023BB6207F11C031946274801F09C
:1021500087F94FF44063FB6100233B6201237B62FC
:1021600007F11C031946244801F07AF94FF47E4325
:10217000FB6101233B6201237B620023BB6207F109
:102180001C0319461A4801F06BF94023FB61012337
:102190003B6200237B620023BB6207F11C031946EC
:1021A000144801F05DF91823FB6100233B62012311
:1021B0007B6207F11C0319460D4801F051F9802399
:1021C000FB6101233B6200237B620023BB6207F1BA
:1021D0001C031946084801F043F900BF3037BD46DB
:1021E00080BD00BF003802400010024000000240E5
:1021F000000C0240000802400004024080B584B098
:1022000000AF786010213C4801F0C4FA0346002B6F
:102210002DD10023FB7316E0FB7B384A2C2101FBF8
:1022200003F313440C331868FB7B344A2C2101FB65
:1022300003F3134410331B880122194601F0C2FA3C
:10224000FB7B0133FB73FB7B0E2BE5D92C4803F0A2
:102250001EF82C4800F009FA00E000BF10212648C3
:1022600001F098FA0346002BF7D000F0DEFD7B6802
:102270001B68254A93422DD10023BB7327E0BB7B0B
:102280001E4A2C2101FB03F313441C331B681B7DE6
:10229000002B09D1BB7B194A2C2101FB03F313440A
:1022A0001C331B68002B0FD1BB7B144A2C2101FB74
:1022B00003F3134420331B68BA7B2C2101FB02F289
:1022C0000E490A4410469847BB7B0133BB73BB7B66
:1022D0000E2BD4D9094B93F87B32002B08D00B4B33
:1022E0001B68002B04D0094B00221A60FEF7B5FED4
:1022F00000BF1037BD4680BD000C024048080020DA
:10230000C00B0020003E490000140040E007002000
:1023100080B582B000AF78607B685A687B681B89A3
:102320001946104601F036FA0346002B1DD17B6892
:102330005B7D002B19D17B689B7C092B06D87B68C1
:102340009B7C0133DAB27B689A741DE07B68DB7C8E
:10235000002B19D17B680122DA747B681B7D83F026
:102360000103DAB27B681A750EE07B689B7C002B58
:1023700006D07B689B7C013BDAB27B689A7404E0F0
:102380007B680022DA7400E000BF00BF0837BD465A
:1023900080BD000080B582B000AF78602D4BD3F8CF
:1023A00090002C4BB3F894300022194601F00AFA41
:1023B000284BD3F8BC00274BB3F8EC300022194669
:1023C00001F000FAC82000F0F5FB224BD3F8E8003A
:1023D000204BB3F8C0300022194601F0F3F91D4B31
:1023E000D3F814011B4BB3F818310022194601F041
:1023F000E9F94FF4967000F0DDFB164BD3F890002E
:10240000144BB3F894300122194601F0DBF9114B5B
:10241000D3F8BC000F4BB3F8C0300122194601F0CD
:10242000D1F90C4BD3F8E8000A4BB3F8EC30012299
:10243000194601F0C7F9074BD3F81401054BB3F85F
:1024400018310122194601F0BDF900BF0837BD4619
:1024500080BD00BF4808002080B584B000AF786020
:102460000B46FB7042F21073FB810023BB810023FB
:10247000BB6020E07B68D8687B681B8A0022194615
:1024800001F0A0F97B681B8B5B089BB2184600F03B
:10249000ECF87B68D8687B681B8A0122194601F03A
:1024A00091F97B681B8B5B089BB2184600F0DDF846
:1024B000BB680133BB60BB68092BDBD92DE0FB890E
:1024C000013BFB81BB89B3F5487F02D2BB89013355
:1024D000BB817B68D8687B681B8A0022194601F0A3
:1024E00071F97B681B8B5B089BB21A46BB89D31AB8
:1024F000184600F0BAF87B68D8687B681B8A01220E
:10250000194601F05FF97B681B8B5B089BB21A468A
:10251000BB89D31A184600F0A8F87B68DB7CFA78F0
:102520009A4202D1FB89002BC9D100BF1037BD46AA
:1025300080BD80B586B000AF78600023FB82C823E1
:10254000BB607B689B6A002B05D07B689B6A07F1A8
:1025500008021046984700233B6120E07B68D8685A
:102560007B681B8A0022194601F02CF97B681B8BC3
:102570005B089BB2184600F078F87B68D8687B68E7
:102580001B8A0122194601F01DF97B681B8B5B0831
:102590009BB2184600F069F83B6901333B613B6927
:1025A000132BDBD90023FB602DE0FB8AB3F5487FBA
:1025B00002D2FB8A0133FB827B68D8687B681B8A66
:1025C0000022194601F0FEF87B681B8B5B089BB26A
:1025D0001A46FB8AD31A184600F047F87B68D86879
:1025E0007B681B8A0122194601F0ECF87B681B8B83
:1025F0005B089BB21A46FB8AD31A184600F035F8DE
:10260000FB680133FB60BB68FA689A42CDD300BF18
:102610001837BD4680BD80B483B000AF78607B685A
:1026200040F24C421A6000BF0C37BD465DF8047B97
:10263000704780B483B000AF78607B6841F2F812D5
:102640001A6000BF0C37BD465DF8047B704780B44C
:1026500083B000AF78607B684FF47A721A6000BF75
:102660000C37BD465DF8047B704780B483B000AF83
:10267000786000E000BF7B685A1E7A60002BF9D1B9
:1026800000BF0C37BD465DF8047B704780B500AFD6
:1026900000224021044801F095F8002280210248E0
:1026A00001F090F800BF80BD0000024080B483B00C
:1026B00000AF00237B60104B5B6C0F4A43F48043F8
:1026C00053640D4B5B6C03F480437B607B68002399
:1026D0003B60094B1B6C084A43F080531364064B64
:1026E0001B6C03F080533B603B6800BF0C37BD465A
:1026F0005DF8047B704700BF0038024080B58AB0A7
:1027000000AF786007F1140300221A605A609A60E3
:10271000DA601A617B681B68284A93424AD1002319
:102720003B61274B5B6C264A43F400635364244BA4
:102730005B6C03F400633B613B690023FB60204B4F
:102740001B6B1F4A43F0040313631D4B1B6B03F009
:102750000403FB60FB680023BB60194B1B6B184A2A
:1027600043F008031363164B1B6B03F00803BB60B5
:10277000BB684FF4F8537B610223BB610023FB610C
:1027800003233B620C237B6207F1140319460D48B7
:1027900000F066FE04237B610223BB610023FB6122
:1027A00003233B620C237B6207F11403194606489E
:1027B00000F056FE00BF2837BD4680BD002C01400A
:1027C0000038024000080240000C024080B58AB088
:1027D00000AF786007F1140300221A605A609A6013
:1027E000DA601A617B681B68434A93427FD10023F9
:1027F0003B61424B1B6C414A43F4804313643F4BA3
:102800001B6C03F480433B613B690023FB603B4B43
:102810001B6B3A4A43F004031363384B1B6B03F002
:102820000403FB60FB680023BB60344B1B6B334A23
:1028300043F002031363314B1B6B03F00203BB60D5
:10284000BB6808237B610223BB610023FB61032378
:102850003B6205237B6207F114031946284800F008
:10286000FFFD4FF400537B610223BB610023FB613A
:1028700003233B6205237B6207F1140319462148B9
:1028800000F0EEFD204B214A1A601F4B00225A60D7
:102890001D4B40229A601C4B0022DA601A4B4FF409
:1028A00080621A61184B00225A61174B00229A610C
:1028B000154B0022DA61144B00221A62124B0022DF
:1028C0005A62114800F0C2FA0346002B01D0FFF70C
:1028D000DDFE7B680C4A9A640B4A7B689363002296
:1028E0000021242000F077FA242000F090FA00BFA5
:1028F0002837BD4680BD00BF003800400038024088
:102900000008024000040240600B0020706002409A
:1029100080B584B000AF78607B681B680E4A934234
:1029200015D10023FB600D4B1B6C0C4A43F02003B8
:1029300013640A4B1B6C03F02003FB60FB6800224E
:102940000021372000F047FA372000F060FA00BF7E
:102950001037BD4680BD00BF001400400038024063
:1029600080B400AF00BFBD465DF8047B704780B403
:1029700000AFFEE780B400AFFEE780B400AFFEE733
:1029800080B400AFFEE780B400AF00BFBD465DF885
:10299000047B704780B400AF00BFBD465DF8047B88
:1029A000704780B400AF00BFBD465DF8047B704740
:1029B00080B500AF00F0DEF800BF80BD80B500AF8D
:1029C000024800F013FB00BF80BD00BF600B002079
:1029D00080B500AF024802F08FF900BF80BD00BF94
:1029E000F007002080B500AF024802F07BFC00BF7A
:1029F00080BD00BFC00B002080B584B000AF786000
:102A0000114B1B68002B02D10F4B104A1A600E4B62
:102A10001B68FB600C4B1A687B6813446A46934240
:102A200007D903F047FB02460C2313604FF0FF3336
:102A300006E0054B1A687B681344034A1360FB6881
:102A400018461037BD4680BDE4070020080C002062
:102A500080B400AF084BD3F88830074A43F47003C2
:102A6000C2F88830044B4FF000629A6000BFBD4648
:102A70005DF8047B704700BF00ED00E0DFF834D064
:102A8000002103E00C4B5B58435004310B480C4BC6
:102A900042189A42F6D30B4A02E0002342F8043B64
:102AA000094B9A42F9D3FFF7D3FF03F009FBFEF776
:102AB000A3FD7047000002203088000800000020BD
:102AC0004403002044030020080C0020FEE700001F
:102AD00080B500AF0E4B1B680D4A43F400731360C2
:102AE0000B4B1B680A4A43F480631360084B1B6856
:102AF000074A43F480731360032000F061F900205B
:102B000000F008F8FFF7D2FD0023184680BD00BF93
:102B1000003C024080B582B000AF7860124B1A686A
:102B2000124B1B7819464FF47A73B3FBF1F3B2FBE7
:102B3000F3F3184600F07DF90346002B01D0012382
:102B40000EE07B680F2B0AD8002279684FF0FF3027
:102B500000F041F9064A7B681360002300E001237E
:102B600018460837BD4680BD68010020700100206E
:102B70006C01002080B400AF064B1B781A46064B50
:102B80001B681344044A136000BFBD465DF8047B14
:102B9000704700BF70010020000C002080B400AF1F
:102BA000034B1B681846BD465DF8047B704700BFA9
:102BB000000C002080B584B000AF7860FFF7EEFF16
:102BC000B8607B68FB60FB68B3F1FF3F05D0094B41
:102BD0001B781A46FB681344FB6000BFFFF7DEFF5B
:102BE0000246BB68D31AFA689A42F7D800BF10377A
:102BF000BD4680BD7001002080B485B000AF786014
:102C00007B6803F00703FB600C4BDB68BB60BA68B2
:102C10004FF6FF031340BB60FB681A02BB68134307
:102C200043F0BF6343F40033BB60044ABB68D36026
:102C300000BF1437BD465DF8047B704700ED00E02F
:102C400080B400AF044BDB681B0A03F0070318468F
:102C5000BD465DF8047B704700ED00E080B483B0B2
:102C600000AF0346FB7197F90730002B0BDBFB79B4
:102C700003F01F02074997F907305B09012000FAAA
:102C800002F241F8232000BF0C37BD465DF8047BFB
:102C9000704700BF00E100E080B483B000AF03469E
:102CA0003960FB7197F90730002B0ADB3B68DAB219
:102CB0000C4997F907301201D2B20B4483F8002374
:102CC0000AE03B68DAB20849FB7903F00F03043BE2
:102CD0001201D2B20B441A7600BF0C37BD465DF824
:102CE000047B704700E100E000ED00E080B489B0B3
:102CF00000AFF860B9607A60FB6803F00703FB611E
:102D0000FB69C3F10703042B28BF0423BB61FB69E4
:102D10000433062B02D9FB69033B00E000237B61EF
:102D20004FF0FF32BB6902FA03F3DA43BB681A4083
:102D30007B699A404FF0FF317B6901FA03F3D94375
:102D40007B680B40134318462437BD465DF8047B6F
:102D50007047000080B400AFBFF34F8F054BDB68B6
:102D600003F4E0620349044B1343CB60BFF34F8F7E
:102D700000BFFDE700ED00E00400FA0580B582B079
:102D800000AF78607B68013BB3F1807F01D3012302
:102D90000FE00A4A7B68013B53600F214FF0FF3080
:102DA000FFF77AFF054B00229A60044B07221A6056
:102DB000002318460837BD4680BD00BF10E000E084
:102DC00080B582B000AF78607868FFF715FF00BF6C
:102DD0000837BD4680BD80B586B000AF0346B960F8
:102DE0007A60FB7300237B61FFF72AFF78617A68C2
:102DF000B9687869FFF77AFF024697F90F301146F4
:102E00001846FFF749FF00BF1837BD4680BD80B5A3
:102E100082B000AF0346FB7197F907301846FFF701
:102E20001DFF00BF0837BD4680BD80B500AFFFF76E
:102E300091FF80B582B000AF78607868FFF79EFFA1
:102E4000034618460837BD4680BD000080B586B0F1
:102E500000AF786000237B61FFF7A0FE38617B68DC
:102E6000002B01D1012399E07B68002283F83420F4
:102E70007B68022283F835207B681B681A687B68B0
:102E80001B6822F001021A600FE0FFF787FE02467E
:102E90003B69D31A052B08D97B6820225A657B68C9
:102EA000032283F83520032378E07B681B681B68C6
:102EB00003F00103002BE8D17B681B681B687B6172
:102EC0007A69384B13407B617B685A687B689B68E2
:102ED0001A437B68DB681A437B681B691A437B686B
:102EE0005B691A437B689B691A437B68DB691A43F9
:102EF0007B681B6A13437A6913437B617B685B6A57
:102F0000042B07D17B68DA6A7B681B6B13437A69F1
:102F100013437B617B681B687A691A607B681B6856
:102F20005B697B617B6923F007037B617B685B6A7C
:102F30007A6913437B617B685B6A042B17D17B68DA
:102F40009B6A7A6913437B617B68DB6A002B0ED036
:102F5000786800F00BFA0346002B08D07B6840220B
:102F60005A657B68012283F83520012316E07B68CF
:102F70001B687A695A61786800F0C2F90346FB6001
:102F80007B68DB6D3F229A40FB689A607B68002279
:102F90005A657B68012283F83520002318461837CC
:102FA000BD4680BD3F8010F080B483B000AF786034
:102FB0007B6893F83530DBB2022B04D07B6880222B
:102FC0005A6501230CE07B68052283F835207B6875
:102FD0001B681A687B681B6822F001021A600023D4
:102FE00018460C37BD465DF8047B704780B586B047
:102FF00000AF78600023BB60924B1B68924AA2FB33
:1030000003239B0A7B617B689B6D3B613B691B686B
:10301000FB607B68DB6D08229A40FB681340002B45
:103020001AD07B681B681B6803F00403002B13D0C5
:103030007B681B681A687B681B6822F004021A60B0
:103040007B68DB6D08229A403B699A607B685B6D08
:1030500043F001027B685A657B68DB6D01229A4070
:10306000FB681340002B12D07B681B685B6903F080
:103070008003002B0BD07B68DB6D01229A403B69FB
:103080009A607B685B6D43F002027B685A657B68DF
:10309000DB6D04229A40FB681340002B12D07B6842
:1030A0001B681B6803F00203002B0BD07B68DB6DF1
:1030B00004229A403B699A607B685B6D43F004028E
:1030C0007B685A657B68DB6D10229A40FB68134071
:1030D000002B43D07B681B681B6803F00803002BA0
:1030E0003CD07B68DB6D10229A403B699A607B681C
:1030F0001B681B6803F48023002B18D07B681B68B7
:103100001B6803F40023002B08D17B681B6C002B89
:1031100024D07B681B6C786898471FE07B689B6CA9
:10312000002B1BD07B689B6C7868984716E07B6807
:103130001B681B6803F48073002B07D17B681B6836
:103140001A687B681B6822F008021A607B681B6C97
:10315000002B03D07B681B6C786898477B68DB6D1D
:1031600020229A40FB681340002B00F08E807B6881
:103170001B681B6803F01003002B00F086807B683F
:10318000DB6D20229A403B699A607B6893F835306A
:10319000DBB2052B36D17B681B681A687B681B681D
:1031A00022F016021A607B681B685A697B681B68EC
:1031B00022F080025A617B681B6C002B03D17B6874
:1031C0009B6C002B07D07B681B681A687B681B68A8
:1031D00022F008021A607B68DB6D3F229A403B694F
:1031E0009A607B68002283F834207B68012283F890
:1031F00035207B681B6D002B7DD07B681B6D78684C
:10320000984778E07B681B681B6803F48023002BD9
:103210001CD07B681B681B6803F40023002B08D1BB
:103220007B685B6C002B30D07B685B6C7868984760
:103230002BE07B68DB6B002B27D07B68DB6B78682F
:10324000984722E068010020B5814E1B7B681B680F
:103250001B6803F48073002B0FD17B681B681A680E
:103260007B681B6822F010021A607B68002283F8DA
:1032700034207B68012283F835207B68DB6B002BD0
:1032800003D07B68DB6B786898477B685B6D002BAD
:1032900032D07B685B6D03F00103002B22D07B688A
:1032A000052283F835207B681B681A687B681B68D9
:1032B00022F001021A60BB680133BB607A699A424E
:1032C00007D37B681B681B6803F00103002BF2D156
:1032D00000E000BF7B68002283F834207B68012275
:1032E00083F835207B68DB6C002B05D07B68DB6CBA
:1032F0007868984700E000BF1837BD4680BD00BF22
:1033000080B485B000AF78607B681B68DBB2103B8F
:10331000144AA2FB03231B09FB60134AFB681344F6
:103320001B781A467B68DA65FB68032B09D97B6832
:103330001B6823F47F7323F003031A1D7B689A65CF
:1033400007E07B681B6823F47F7323F003037A682C
:1033500093657B689B6D18461437BD465DF8047B0A
:10336000704700BFABAAAAAAB885000880B485B090
:1033700000AF78600023FB737B689B6ABB607B684F
:103380009B69002B1FD1BB68032B55D801A252F8B3
:1033900023F000BFA5330008B7330008A5330008A9
:1033A000393400087B68DB6A03F08073002B45D05A
:1033B0000123FB7342E07B68DB6AB3F1C07F3FD13E
:1033C0000123FB733CE07B689B69B3F5005F21D16F
:1033D000BB68032B36D801A252F823F0ED33000866
:1033E000F3330008ED330008053400080123FB73B4
:1033F0002FE07B68DB6A03F08073002B24D001236D
:10340000FB7321E07B68DB6AB3F1C07F1ED101232F
:10341000FB731BE0BB68022B02D9032B03D018E01F
:103420000123FB7315E07B68DB6A03F08073002BDC
:103430000ED00123FB730BE000BF0AE000BF08E0E1
:1034400000BF06E000BF04E000BF02E000BF00E0F4
:1034500000BFFB7B18461437BD465DF8047B704700
:1034600080B489B000AF7860396000237B610023AD
:103470003B610023BB610023FB616BE10122FB691F
:1034800002FA03F37B613B681B687A6913403B6176
:103490003A697B699A4240F05A813B685B68012B2C
:1034A0000BD03B685B68022B07D03B685B68112B35
:1034B00003D03B685B68122B30D17B689B68BB6193
:1034C000FB695B00032202FA03F3DB43BA69134092
:1034D000BB613B68DA68FB695B0002FA03F3BA6917
:1034E0001343BB617B68BA699A607B685B68BB61A8
:1034F0000122FB6902FA03F3DB43BA691340BB61A3
:103500003B685B681B0903F00102FB6902FA03F3E5
:10351000BA691343BB617B68BA695A607B68DB6830
:10352000BB61FB695B00032202FA03F3DB43BA6968
:103530001340BB613B689A68FB695B0002FA03F3C6
:10354000BA691343BB617B68BA69DA603B685B6840
:10355000022B03D03B685B68122B23D1FB69DA088E
:103560007B68083253F82230BB61FB6903F0070324
:103570009B000F2202FA03F3DB43BA691340BB61DD
:103580003B681A69FB6903F007039B0002FA03F327
:10359000BA691343BB61FB69DA087B680832B96911
:1035A00043F822107B681B68BB61FB695B00032248
:1035B00002FA03F3DB43BA691340BB613B685B6803
:1035C00003F00302FB695B0002FA03F3BA691343D9
:1035D000BB617B68BA691A603B685B6803F0805323
:1035E000002B00F0B4800023FB605F4B5B6C5E4AF5
:1035F00043F4804353645C4B5B6C03F48043FB6097
:10360000FB685A4AFB699B08023352F82330BB61BE
:10361000FB6903F003039B000F2202FA03F3DB4371
:10362000BA691340BB617B68514A93422BD07B68D7
:10363000504A934225D07B684F4A93421FD07B6803
:103640004E4A934219D07B684D4A934213D07B680F
:103650004C4A93420DD07B684B4A934207D07B681B
:103660004A4A934201D107230EE008230CE00623C7
:103670000AE0052308E0042306E0032304E0022314
:1036800002E0012300E00023FA6902F00302920045
:103690009340BA691343BB613449FB699B08023309
:1036A000BA6941F823203A4B1B68BB613B69DB4395
:1036B000BA691340BB613B685B6803F48033002B3D
:1036C00003D0BA693B691343BB61314ABB691360DC
:1036D0002F4B5B68BB613B69DB43BA691340BB613D
:1036E0003B685B6803F40033002B03D0BA693B6985
:1036F0001343BB61264ABB695360254B9B68BB6182
:103700003B69DB43BA691340BB613B685B6803F408
:103710008013002B03D0BA693B691343BB611C4A79
:10372000BB6993601A4BDB68BB613B69DB43BA69D9
:103730001340BB613B685B6803F40013002B03D0AC
:10374000BA693B691343BB61114ABB69D360FB692A
:103750000133FB61FB690F2B7FF690AE00BF24376E
:10376000BD465DF8047B70470038024000380140D8
:10377000000002400004024000080240000C024029
:10378000001002400014024000180240001C0240D9
:10379000003C014080B485B000AF78600B467B8070
:1037A0007B681A697B881340002B02D00123FB73CE
:1037B00001E00023FB73FB7B18461437BD465DF820
:1037C000047B704780B483B000AF78600B467B8089
:1037D00013467B707B78002B03D07A887B689A61D4
:1037E00003E07B881A047B689A6100BF0C37BD46F2
:1037F0005DF8047B7047000080B586B000AF78604C
:103800007B68002B01D101235BE27B681B6803F01E
:103810000103002B75D0A34B9B6803F00C03042B12
:103820000CD0A04B9B6803F00C03082B12D19D4BCE
:103830005B6803F48003B3F5800F0BD1994B1B68D1
:1038400003F40033002B5BD07B685B68002B57D1FF
:10385000012336E27B685B68B3F5803F06D1914B6C
:103860001B68904A43F4803313601DE07B685B68FB
:10387000B3F5A02F0CD18B4B1B688A4A43F48023ED
:103880001360884B1B68874A43F4803313600BE056
:10389000844B1B68834A23F480331360814B1B687D
:1038A000804A23F4802313607B685B68002B13D06D
:1038B000FFF774F9386108E0FFF770F902463B69D9
:1038C000D31A642B01D90323FBE1764B1B6803F465
:1038D0000033002BF0D014E0FFF760F9386108E006
:1038E000FFF75CF902463B69D31A642B01D9032325
:1038F000E7E16C4B1B6803F40033002BF0D100E0D0
:1039000000BF7B681B6803F00203002B63D0654B8C
:103910009B6803F00C03002B0BD0624B9B6803F0F9
:103920000C03082B1CD15F4B5B6803F48003002B56
:1039300016D15C4B1B6803F00203002B05D07B689B
:10394000DB68012B01D00123BBE1564B1B6823F040
:10395000F8027B681B69DB00524913430B603AE0B5
:103960007B68DB68002B20D04F4B01221A60FFF7E9
:1039700015F9386108E0FFF711F902463B69D31ADF
:10398000022B01D903239CE1464B1B6803F0020381
:10399000002BF0D0434B1B6823F0F8027B681B69B7
:1039A000DB00404913430B6015E03F4B00221A60D7
:1039B000FFF7F4F8386108E0FFF7F0F802463B69DA
:1039C000D31A022B01D903237BE1364B1B6803F08A
:1039D0000203002BF0D17B681B6803F00803002B67
:1039E00030D07B685B69002B16D0304B01221A6007
:1039F000FFF7D4F8386108E0FFF7D0F802463B69DA
:103A0000D31A022B01D903235BE1264B5B6F03F032
:103A10000203002BF0D015E0244B00221A60FFF7C0
:103A2000BDF8386108E0FFF7B9F802463B69D31AE0
:103A3000022B01D9032344E11A4B5B6F03F002030D
:103A4000002BF0D17B681B6803F00403002B00F00F
:103A5000A0800023FB75134B1B6C03F08053002BDD
:103A60000FD10023BB600F4B1B6C0E4A43F08053F9
:103A700013640C4B1B6C03F08053BB60BB680123C9
:103A8000FB750B4B1B6803F48073002B21D1084B93
:103A90001B68074A43F480731360FFF77FF83861AF
:103AA00011E000BF0038024000004742800E47424C
:103AB00000700040FFF772F802463B69D31A022BF0
:103AC00001D90323FDE0814B1B6803F48073002BB5
:103AD000F0D07B689B68012B06D17D4B1B6F7C4A25
:103AE00043F0010313671CE07B689B68052B0CD136
:103AF000774B1B6F764A43F004031367744B1B6FBD
:103B0000734A43F0010313670BE0714B1B6F704A5C
:103B100023F0010313676E4B1B6F6D4A23F0040300
:103B200013677B689B68002B15D0FFF737F8386167
:103B30000AE0FFF733F802463B69D31A41F28832B4
:103B4000934201D90323BCE0614B1B6F03F00203D6
:103B5000002BEED014E0FFF721F838610AE0FFF700
:103B60001DF802463B69D31A41F28832934201D9CB
:103B70000323A6E0564B1B6F03F00203002BEED18C
:103B8000FB7D012B05D1524B1B6C514A23F0805316
:103B900013647B689B69002B00F092804C4B9B6800
:103BA00003F00C03082B5CD07B689B69022B41D18E
:103BB000484B00221A60FEF7F1FF386108E0FEF77B
:103BC000EDFF02463B69D31A022B01D9032378E0AB
:103BD0003F4B1B6803F00073002BF0D17B68DA6960
:103BE0007B681B6A1A437B685B6A9B011A437B688C
:103BF0009B6A5B08013B1B041A437B68DB6A1B065C
:103C0000334913434B60334B01221A60FEF7C6FF62
:103C1000386108E0FEF7C2FF02463B69D31A022B67
:103C200001D903234DE02A4B1B6803F00073002BDE
:103C3000F0D045E0274B00221A60FEF7AFFF386155
:103C400008E0FEF7ABFF02463B69D31A022B01D90D
:103C5000032336E01E4B1B6803F00073002BF0D1EA
:103C60002EE07B689B69012B01D1012329E0184BD1
:103C70005B68FB60FB6803F480027B68DB699A4247
:103C80001CD1FB6803F03F027B681B6A9A4215D186
:103C9000FA6847F6C07313407A68526A93420DD1AE
:103CA000FB6803F440327B689B6A9A4206D1FB684A
:103CB00003F070627B68DB6A9A4201D0012300E066
:103CC000002318461837BD4680BD00BF0070004075
:103CD000003802406000474280B584B000AF786091
:103CE00039607B68002B01D10123CCE0684B1B6855
:103CF00003F00F033A689A420CD9654B3A68D2B286
:103D00001A70634B1B6803F00F033A689A4201D0A4
:103D10000123B8E07B681B6803F00203002B20D06E
:103D20007B681B6803F00403002B05D0594B9B688C
:103D3000584A43F4E05393607B681B6803F0080320
:103D4000002B05D0534B9B68524A43F46043936069
:103D5000504B9B6823F0F0027B689B684D491343EE
:103D60008B607B681B6803F00103002B44D07B68E9
:103D70005B68012B07D1474B1B6803F40033002B12
:103D800019D101237FE07B685B68022B03D07B683D
:103D90005B68032B07D13F4B1B6803F00073002BBC
:103DA00009D101236FE03B4B1B6803F00203002B9A
:103DB00001D1012367E0374B9B6823F003027B6846
:103DC0005B68344913438B60FEF7E8FEF8600AE055
:103DD000FEF7E4FE0246FB68D31A41F288329342B2
:103DE00001D903234FE02B4B9B6803F00C027B6847
:103DF0005B689B009A42EBD1254B1B6803F00F03D5
:103E00003A689A420CD2224B3A68D2B21A70204BCE
:103E10001B6803F00F033A689A4201D0012332E095
:103E20007B681B6803F00403002B08D0194B9B68C8
:103E300023F4E0527B68DB68164913438B607B6890
:103E40001B6803F00803002B09D0124B9B6823F476
:103E500060427B681B69DB000E4913438B6000F0F6
:103E600021F801460B4B9B681B0903F00F030A4A1C
:103E7000D35C21FA03F3094A1360094B1B68184607
:103E8000FEF748FE002318461037BD4680BD00BF30
:103E9000003C024000380240A8850008680100206C
:103EA0006C010020F0B585B000AF00237B600023DB
:103EB000FB6000233B600023BB60634B9B6803F007
:103EC0000C03042B07D0082B08D0002B40F0B48043
:103ED0005E4BBB60B3E05E4BBB60B0E05A4B5B68CF
:103EE00003F03F037B60584B5B6803F48003002BB7
:103EF0004AD0554B5B689B094FF0000440F2FF111C
:103F00004FF0000203EA010504EA020629463246A0
:103F10004FF000034FF00004540144EAD1644B0118
:103F200019462246491B62EB06024FF000034FF090
:103F30000004940144EA91648B015B1A64EB02046F
:103F40004FF000014FF00002E20042EA5372D90044
:103F50000B4614465B1944EB06044FF000014FF08A
:103F60000002620242EAD35259020B461446184636
:103F700021467B684FF000041A462346FCF714FEE6
:103F800003460C46FB6049E02F4B5B689B094FF0F2
:103F9000000440F2FF114FF0000203EA010504EAB9
:103FA0000206294632464FF000034FF00004540148
:103FB00044EAD1644B0119462246491B62EB0602D2
:103FC0004FF000034FF00004940144EA91648B0128
:103FD0005B1A64EB02044FF000014FF00002E200B4
:103FE00042EA5372D9000B4614465B1944EB0604AF
:103FF0004FF000014FF00002A20242EA93529902F0
:104000000B461446184621467B684FF000041A46BA
:104010002346FCF7C9FD03460C46FB600A4B5B6870
:104020001B0C03F0030301335B003B60FA683B6841
:10403000B2FBF3F3BB6002E0044BBB6000BFBB68A4
:1040400018461437BD46F0BD003802400024F40085
:1040500000127A0080B582B000AF78607B68002BD8
:1040600001D1012322E07B6893F83430DBB2002BCE
:1040700005D17B6800221A777868FEF73FFB7B68E2
:10408000032283F83420786800F014F80346002BEC
:1040900001D001230AE07B6800229A637B6800223A
:1040A0001A637B68012283F83420002318460837FE
:1040B000BD4680BDB0B58EB004AF78600023BB6054
:1040C0000023FB6000233B6100237B610023BB6175
:1040D0007623FB617B681D686C4607F1140393E847
:1040E000070084E8070007F108030ECB284601F01B
:1040F00059FB034687F8273097F82730002B01D06B
:10410000012331E01A4B00221A607B681B681846B5
:1041100001F080FB164B01221A60786800F018FB52
:1041200038623B6A002B0BD07B68012283F8342075
:104130007B689A6B3B6A1A437B689A63012313E09E
:10414000786800F037FA38623B6A002B0BD07B6846
:10415000012283F834207B689A6B3B6A1A437B68A0
:104160009A63012300E0002318462837BD46B0BDFE
:10417000A080254280B483B000AF786039607B684E
:104180005B6E9B0FDAB23B681A707B685B6E9B0EAE
:10419000DBB203F00F03DAB23B685A707B685B6EE8
:1041A0001B0EDBB203F00303DAB23B689A707B6844
:1041B0005B6E1B0CDAB23B68DA707B685B6E1B0AC5
:1041C000DAB23B681A717B685B6EDAB23B685A718F
:1041D0007B689B6E1B0D9AB23B68DA807B689B6E96
:1041E0001B0CDBB203F00F03DAB23B681A727B6878
:1041F0009B6EDB0BDBB203F00103DAB23B685A7251
:104200007B689B6E9B0BDBB203F00103DAB23B6869
:104210009A727B689B6E5B0BDBB203F00103DAB230
:104220003B68DA727B689B6E1B0BDBB203F0010309
:10423000DAB23B681A733B6800225A737B685B6C86
:10424000002B63D17B689B6E9A0040F6FC73134091
:104250007A68D26E920F1A433B681A617B68DB6EF4
:10426000DB0EDBB203F00703DAB23B681A757B683A
:10427000DB6E1B0EDBB203F00703DAB23B685A7544
:104280007B68DB6E5B0DDBB203F00703DAB23B68E1
:104290009A757B68DB6E9B0CDBB203F00703DAB226
:1042A0003B68DA757B68DB6EDB0BDBB203F0070380
:1042B000DAB23B681A763B681B695A1C7B685A6500
:1042C0003B681B7EDBB203F007030233012202FAD4
:1042D00003F37A68526D02FB03F27B685A653B6810
:1042E0001B7ADBB203F00F0301229A407B689A65C8
:1042F0007B685B6D7A68926D520A02FB03F27B6801
:10430000DA657B684FF400721A6631E07B685B6C9B
:10431000012B1DD17B689B6E1B0403F47C127B6810
:10432000DB6E1B0C1A433B681A613B681B69013347
:104330009A027B685A657B685A6D7B68DA657B6890
:104340004FF400729A657B689A6D7B681A660FE07D
:104350007B681B68584A9A637B689B6B43F080526A
:104360007B689A637B68012283F8342001239DE0F7
:104370007B68DB6E9B0BDBB203F00103DAB23B68B8
:104380005A767B68DB6EDB09DBB203F07F03DAB2BF
:104390003B689A767B68DB6EDBB203F07F03DAB2B0
:1043A0003B68DA767B681B6FDB0FDAB23B681A7703
:1043B0007B681B6F5B0FDBB203F00303DAB23B6871
:1043C0005A777B681B6F9B0EDBB203F00703DAB2F0
:1043D0003B689A777B681B6F9B0DDBB203F00F0382
:1043E000DAB23B68DA777B681B6F5B0DDBB203F0F8
:1043F0000103DAB23B6883F820203B68002283F88F
:1044000021207B681B6F1B0CDBB203F00103DAB2C7
:104410003B6883F822207B681B6FDB0BDBB203F069
:104420000103DAB23B6883F823207B681B6F9B0B88
:10443000DBB203F00103DAB23B6883F824207B6827
:104440001B6F5B0BDBB203F00103DAB23B6883F84E
:1044500025207B681B6F1B0BDBB203F00103DAB274
:104460003B6883F826207B681B6F9B0ADBB203F056
:104470000303DAB23B6883F827207B681B6F1B0AB3
:10448000DBB203F00303DAB23B6883F828207B68D1
:104490001B6F5B08DBB203F07F03DAB23B6883F883
:1044A00029203B68012283F82A20002318460C3774
:1044B000BD465DF8047B7047FF054000B0B58EB087
:1044C00004AF786039607B68032283F834207B680E
:1044D0005B6C032B2ED03B68B3F5805F06D17B6805
:1044E0009B6B43F080527B689A6329E03B68B3F58D
:1044F000006F0AD1786800F0B9F978627B689A6B2E
:104500007B6A1A437B689A631AE03B68002B0AD1E6
:10451000786800F0F6F978627B689A6B7B6A1A43D8
:104520007B689A630CE07B689B6B43F000627B685E
:104530009A6305E07B689B6B43F080527B689A63CB
:104540007B689B6B002B09D07B681B68184A9A63B9
:104550007B68012283F83420012324E07B685B68B8
:10456000FB607B689B683B617B68DB687B613B68C9
:10457000BB617B685B69FB617B689B693B627B68B5
:104580001D686C4607F1180393E8070084E80700EC
:1045900007F10C030ECB284601F004F97B680122D9
:1045A00083F83420002318462837BD46B0BD00BF2D
:1045B000FF054000B0B594B004AF78600123FB81E3
:1045C0007B681B68184601F034F90346002B02D1C2
:1045D0004FF08063B7E07B685B6C032B2FD07B6868
:1045E0001B68184601F0B3FAF863FB6B002B01D08F
:1045F000FB6BA8E07B681B680021184601F05EF9A0
:1046000002467B685A677B681B680421184601F0E4
:1046100055F902467B689A677B681B680821184633
:1046200001F04CF902467B68DA677B681B680C2155
:10463000184601F043F902467B68C3F880207B6886
:104640005B6C032B0DD07B681B6807F10E021146D3
:10465000184601F0B9FAF863FB6B002B01D0FB6B35
:1046600071E07B685B6C032B36D0FB891A467B6854
:104670001A657B681A687B681B6D1B041946104617
:1046800001F083FAF863FB6B002B01D0FB6B5AE05F
:104690007B681B680021184601F010F902467B6810
:1046A0005A667B681B680421184601F007F9024628
:1046B0007B689A667B681B680821184601F0FEF843
:1046C00002467B68DA667B681B680C21184601F09D
:1046D000F5F802467B681A677B681B680421184658
:1046E00001F0ECF803461A0D7B68DA6407F1100359
:1046F00019467868FFF73EFD0346002B02D04FF0C5
:10470000805320E07B6819687B681B6D1B044FF0A9
:1047100000041A462346084601F031F9F863FB6BA2
:10472000002B01D0FB6B0EE07B681D687B686C463C
:1047300003F1100207CA84E8070004330ECB2846B1
:1047400001F030F8002318464037BD46B0BD0000E8
:1047500080B586B000AF78600023BB6000237B612A
:1047600000233B617B681B68184601F02BF9F86059
:10477000FB68002B01D0FB6872E07B681B68184661
:1047800001F03EF9F860FB68002B0DD07B68002239
:104790009A647B681B68184601F014F9F860FB689E
:1047A000002B04D0FB685BE07B6801229A647B6885
:1047B0009B6C012B37D17B681B680021184601F0E8
:1047C0003EF9F860FB68002B2DD04FF0805347E096
:1047D0007B681B680021184601F031F9F860FB681E
:1047E000002B01D0FB683BE07B681B681E49184624
:1047F00001F047F9F860FB68002B02D04FF08053BE
:104800002EE07B681B680021184601F057F878619C
:104810007B69DB0F012B01D1012300E000233B6109
:10482000BB680133BB60BB684FF6FE72934202D88F
:104830003B69002BCCD0BB684FF6FE72934202D985
:104840004FF080730CE07B6903F08043002B03D0B2
:104850007B6801225A6402E07B6800225A640023CC
:1048600018461837BD4680BD000010C180B586B01F
:1048700000AF78600023FB6000233B617B681B680E
:104880000021184601F01AF8034603F00073B3F153
:10489000007F02D14FF400632FE007F10C031946AB
:1048A000786800F079F878617B69002B01D07B692A
:1048B00023E03B6903F48023002B1CD07B681A683B
:1048C0007B681B6D1B041946104601F0B8F878612F
:1048D0007B69002B01D07B690FE07B681B6802219C
:1048E000184601F0F1F878617B69002B01D07B69F3
:1048F00003E0002301E04FF0806318461837BD46FF
:1049000080BD80B586B000AF78600023FB600023D7
:104910003B617B681B680021184600F0CFFF03460F
:1049200003F00073B3F1007F02D14FF400632FE076
:1049300007F10C031946786800F02EF878617B695E
:10494000002B01D07B6923E03B6903F48033002B0B
:104950001CD07B681A687B681B6D1B0419461046C7
:1049600001F06DF878617B69002B01D07B690FE065
:104970007B681B680021184601F0A6F878617B6906
:10498000002B01D07B6903E0002301E04FF080633E
:1049900018461837BD4680BD90B58FB000AF78601F
:1049A0003960FEF7FBF8386300237B630023BB60AC
:1049B0000023FB603B68FB627B681B68082118468C
:1049C00000F0BBFFB862BB6A002B01D0BB6AA9E054
:1049D0007B681A687B681B6D1B041946104601F042
:1049E0002EF8B862BB6A002B01D0BB6A9AE04FF088
:1049F000FF333B6108237B613023BB610223FB61F2
:104A000000233B6201237B627B681B6807F1100275
:104A10001146184600F065FF7B681B68184601F0D8
:104A200075F8B862BB6A002B22D0BB6A7AE07B685B
:104A30001B685B6B03F40013002B0ED07B681968B6
:104A40007B6B9B0007F10802D418084600F0D5FEE6
:104A5000034623607B6B01337B63FEF79FF80246BE
:104A60003B6BD31AB3F1FF3F02D14FF0004359E043
:104A70007B681B685A6B40F22A431340002BD6D048
:104A80007B681B685B6B03F00803002B05D07B6819
:104A90001B6808229A63082344E07B681B685B6BF1
:104AA00003F00203002B05D07B681B6802229A6387
:104AB000022337E07B681B685B6B03F02003002B4D
:104AC00005D07B681B6820229A6320232AE07B683C
:104AD0001B6840F23A529A63FB681A06FB681B0295
:104AE00003F47F031A43FB681B0A03F47F431A4352
:104AF000FB681B0E1A43FB6A1A60FB6A0433FB62F5
:104B0000BB681A06BB681B0203F47F031A43BB6829
:104B10001B0A03F47F431A43BB681B0E1A43FB6A4C
:104B20001A60002318463C37BD4690BD80B582B060
:104B300000AF78607B68002B01D1012356E07B68D1
:104B400000229A627B6893F85130DBB2002B06D1C9
:104B50007B68002283F850207868FDF737FE7B6879
:104B6000022283F851207B681B681A687B681B68E7
:104B700022F040021A607B685A687B689B681A437F
:104B80007B68DB681A437B681B691A437B685B6937
:104B90001A437B689B6903F400731A437B68DB69E3
:104BA0001A437B681B6A42EA03017B689A6A7B6846
:104BB0001B680A431A607B689B691B0C03F00401A5
:104BC0007B685A6A7B681B680A435A607B681B686B
:104BD000DA697B681B6822F40062DA617B68002274
:104BE0005A657B68012283F8512000231846083754
:104BF000BD4680BD80B487B000AFF860B960134691
:104C0000FB800023FB75FB6893F85030012B01D12A
:104C1000022367E0FB68012283F85020BB68002B69
:104C200002D0FB88002B02D10123FB7555E0FB6805
:104C300093F85130DBB2012B02D00223FB754CE01C
:104C4000FB68032283F85120FB6800225A65FB6849
:104C5000BA681A63FB68FA889A86FB68FA88DA866B
:104C6000FB6800229A63FB6800229A87FB68002297
:104C7000DA87FB6800221A64FB68DB68002B03D02C
:104C8000FB681B4A5A6402E0FB681A4A5A64FB68D4
:104C90009B68B3F5004F07D1FB681B681A68FB6877
:104CA0001B6842F480421A60FB681B685A68FB6804
:104CB0001B6842F0A0025A60FB681B681B6803F087
:104CC0004003402B08D0FB681B681A68FB681B6810
:104CD00042F040021A6000E000BFFB68002283F847
:104CE0005020FB7D18461C37BD465DF8047B70479D
:104CF0008F4F0008494F000880B588B000AF78603A
:104D00007B681B685B68FB617B681B689B68BB6199
:104D1000BB699B0903F00103002B0FD1BB6903F0B2
:104D20000103002B0AD0FB699B0903F00103002B50
:104D300004D07B681B6C78689847D8E0BB695B0837
:104D400003F00103002B0AD0FB69DB0903F0010328
:104D5000002B04D07B685B6C78689847C7E0BB6920
:104D60005B0903F00103002B0CD1BB699B0903F025
:104D70000103002B06D1BB691B0A03F00103002BC2
:104D800000F0B580FB695B0903F00103002B00F024
:104D9000AE80BB699B0903F00103002B23D07B6825
:104DA00093F85130DBB2032B11D07B685B6D43F07D
:104DB00004027B685A6500237B617B681B68DB68A3
:104DC0007B617B681B689B687B617B690BE00023D0
:104DD0003B617B681B68DB683B617B681B689B6889
:104DE0003B613B6983E0BB695B0903F00103002B76
:104DF00014D07B685B6D43F001027B685A65002329
:104E0000FB607B681B689B68FB607B681B681A689B
:104E10007B681B6822F040021A60FB68BB691B0AB2
:104E200003F00103002B0CD07B685B6D43F008029C
:104E30007B685A650023BB607B681B689B68BB600E
:104E4000BB687B685B6D002B50D07B681B685A6821
:104E50007B681B6822F0E0025A607B68012283F8BD
:104E60005120FB6903F00203002B04D1FB6903F01E
:104E70000103002B34D07B681B685A687B681B6871
:104E800022F003025A607B68DB6C002B11D07B6838
:104E9000DB6C184A1A657B68DB6C1846FEF784F8F1
:104EA0000346002B05D07B685B6D43F040027B68B6
:104EB0005A657B689B6C002B16D07B689B6C0D4AF7
:104EC0001A657B689B6C1846FEF76EF80346002B4C
:104ED0000AD07B685B6D43F040027B685A6503E053
:104EE000786800F013F800E000BF00BF00BF203773
:104EF000BD4680BD214F000880B483B000AF78600C
:104F000000BF0C37BD465DF8047B704780B483B0AA
:104F100000AF786000BF0C37BD465DF8047B70477A
:104F200080B584B000AF78607B689B6BFB60FB68EA
:104F30000022DA87FB680022DA86F868FFF7E6FFCE
:104F400000BF1037BD4680BD80B582B000AF78602D
:104F50007B681A6B7B681B680C3312781A707B684D
:104F60001B6B5A1C7B681A637B68DB8E9BB2013B10
:104F70009AB27B68DA867B68DB8E9BB2002B02D10B
:104F8000786800F0D3F800BF0837BD4680BD80B513
:104F900082B000AF78607B681B6B1A887B681B68E7
:104FA000DA607B681B6B9A1C7B681A637B68DB8EFC
:104FB0009BB2013B9AB27B68DA867B68DB8E9BB240
:104FC000002B02D1786800F0B1F800BF0837BD4669
:104FD00080BD80B584B000AFF860B9603B60134617
:104FE000FB714CE03B68B3F1FF3F48D0FDF7D6FDC5
:104FF0000246BB69D31A3A689A4202D93B68002B31
:105000003DD1FB681B685A68FB681B6822F0E00210
:105010005A60FB685B68B3F5827F11D1FB689B68BF
:10502000B3F5004F04D0FB689B68B3F5806F07D1E0
:10503000FB681B681A68FB681B6822F040021A6054
:10504000FB689B6AB3F5005F0FD1FB681B681A68A9
:10505000FB681B6822F400521A60FB681B681A6820
:10506000FB681B6842F400521A60FB68012283F857
:105070005120FB68002283F8502003230FE0FB68D7
:105080001B689A68BB681340BA689A420CBF012338
:105090000023DBB21A46FB799A42A3D100231846BB
:1050A0001037BD4680BD000080B588B002AFF86003
:1050B000B9607A601B4B1B681B4AA2FB03235B0D84
:1050C0004FF47A7202FB03F37B61FB685B68B3F514
:1050D000827F12D17B680093BB6800228021F86830
:1050E000FFF777FF0346002B16D0FB685B6D43F09C
:1050F0002002FB685A6503230FE07B69002B0AD06E
:105100007B69013B7B61FB681B689B6803F0800344
:10511000802BF2D000E000BF002318461837BD46B0
:1051200080BD00BF68010020819F5E1680B586B0FB
:1051300000AF78602C4B1B682C4AA2FB03235B0A50
:10514000642202FB03F33B61FDF728FD78613B69B4
:10515000002B06D17B685B6D43F020027B685A65AB
:1051600009E03B69013B3B617B681B689B6803F07E
:105170000203002BEBD07B681B685A687B681B68B6
:1051800022F0A0025A607A6964217868FFF78CFFE8
:105190000346002B05D07B685B6D43F020027B68E3
:1051A0005A657B689B68002B0AD10023FB607B68F3
:1051B0001B68DB68FB607B681B689B68FB60FB68A7
:1051C0007B68012283F851207B685B6D002B03D044
:1051D0007868FFF79BFE02E07868FFF78DFE00BF5E
:1051E0001837BD4680BD00BF68010020F119760563
:1051F00080B582B000AF78607B68002B01D10123BD
:105200001DE07B6893F83D30DBB2002B06D17B6854
:10521000002283F83C207868FDF77AFB7B68022245
:1052200083F83D207B681A687B6804331946104672
:1052300000F088F97B68012283F83D20002318469E
:105240000837BD4680BD80B485B000AF78607B680C
:105250001B68DA687B681B6842F00102DA607B68D1
:105260001B689B6803F00703FB60FB68062B07D0F5
:105270007B681B681A687B681B6842F001021A6031
:10528000002318461437BD465DF8047B704780B490
:1052900083B000AF78607B681B68DA687B681B6846
:1052A00022F00102DA607B681B681A6A41F211136E
:1052B0001340002B0FD17B681B681A6A40F24443ED
:1052C0001340002B07D17B681B681A687B681B683A
:1052D00022F001021A60002318460C37BD465DF823
:1052E000047B704780B582B000AF78607B681B6834
:1052F0001B6903F00203022B22D17B681B68DB6869
:1053000003F00203022B1BD17B681B686FF00202C3
:105310001A617B6801221A777B681B689B6903F01E
:105320000303002B03D0786800F0EEF805E07868FE
:1053300000F0E0F8786800F0F1F87B6800221A7756
:105340007B681B681B6903F00403042B22D17B6874
:105350001B68DB6803F00403042B1BD17B681B680C
:105360006FF004021A617B6802221A777B681B685F
:105370009B6903F44073002B03D0786800F0C4F8F5
:1053800005E0786800F0B6F8786800F0C7F87B6848
:1053900000221A777B681B681B6903F00803082B3F
:1053A00022D17B681B68DB6803F00803082B1BD144
:1053B0007B681B686FF008021A617B6804221A7709
:1053C0007B681B68DB6903F00303002B03D078685C
:1053D00000F09AF805E0786800F08CF8786800F042
:1053E0009DF87B6800221A777B681B681B6903F0B5
:1053F0001003102B22D17B681B68DB6803F01003BD
:10540000102B1BD17B681B686FF010021A617B6840
:1054100008221A777B681B68DB6903F44073002B52
:1054200003D0786800F070F805E0786800F062F862
:10543000786800F073F87B6800221A777B681B6835
:105440001B6903F00103012B0ED17B681B68DB682D
:1054500003F00103012B07D17B681B686FF0010289
:105460001A617868FCF7CAFE7B681B681B6903F049
:105470008003802B0ED17B681B68DB6803F0800300
:10548000802B07D17B681B686FF080021A617868F7
:1054900000F07EF97B681B681B6903F04003402B1A
:1054A0000ED17B681B68DB6803F04003402B07D1FB
:1054B0007B681B686FF040021A61786800F038F86A
:1054C0007B681B681B6903F02003202B0ED17B68CF
:1054D0001B68DB6803F02003202B07D17B681B6867
:1054E0006FF020021A61786800F048F900BF0837B1
:1054F000BD4680BD80B483B000AF786000BF0C377C
:10550000BD465DF8047B704780B483B000AF78601F
:1055100000BF0C37BD465DF8047B704780B483B094
:1055200000AF786000BF0C37BD465DF8047B704764
:1055300080B483B000AF786000BF0C37BD465DF823
:10554000047B704780B485B000AF786039607B68B9
:105550001B68FB607B68404A934213D07B68B3F1C1
:10556000804F0FD07B683D4A93420BD07B683C4A0A
:10557000934207D07B683B4A934203D07B683A4A08
:10558000934208D1FB6823F07003FB603B685B68C3
:10559000FA681343FB607B682F4A93422BD07B68E9
:1055A000B3F1804F27D07B682C4A934223D07B688D
:1055B0002B4A93421FD07B682A4A93421BD07B68B8
:1055C000294A934217D07B68284A934213D07B68BC
:1055D000274A93420FD07B68264A93420BD07B68C0
:1055E000254A934207D07B68244A934203D07B68C4
:1055F000234A934208D1FB6823F44073FB603B6865
:10560000DB68FA681343FB60FB6823F080023B68A9
:105610005B691343FB607B68FA681A603B689A68B1
:105620007B68DA623B681A687B689A627B680A4A20
:10563000934203D07B680C4A934203D13B681A69BA
:105640007B681A637B6801225A6100BF1437BD462C
:105650005DF8047B704700BF00000140000400407B
:1056600000080040000C00400004014000400140E0
:10567000004401400048014000180040001C004068
:105680000020004080B485B000AF786039607B684E
:1056900093F83C30012B01D102235AE07B680122B0
:1056A00083F83C207B68022283F83D207B681B68DE
:1056B0005B68FB607B681B689B68BB60FB6823F0D2
:1056C0007003FB603B681B68FA681343FB607B68F0
:1056D0001B68FA685A607B681B68214A934222D093
:1056E0007B681B68B3F1804F1DD07B681B681D4A27
:1056F000934218D07B681B681B4A934213D07B6887
:105700001B681A4A93420ED07B681B68184A934262
:1057100009D07B681B68174A934204D07B681B68DA
:10572000154A93420CD1BB6823F08003BB603B68F1
:105730005B68BA681343BB607B681B68BA689A6091
:105740007B68012283F83D207B68002283F83C209F
:10575000002318461437BD465DF8047B704700BF30
:10576000000001400004004000080040000C004020
:1057700000040140004001400018004080B483B0A4
:1057800000AF786000BF0C37BD465DF8047B704702
:1057900080B483B000AF786000BF0C37BD465DF8C1
:1057A000047B704784B080B485B000AF786007F1A7
:1057B0001C0080E80E000023FB60FA693B6A1A4374
:1057C0007B6A1A43BB6A1A43FB6A1A433B6B134357
:1057D000FA681343FB607B685B6823F4FD4323F0A6
:1057E0007F03FA681A437B685A600023184614370F
:1057F000BD465DF8047B04B0704780B483B000AF51
:1058000078607B68D3F8803018460C37BD465DF869
:10581000047B704780B582B000AF78607B6803225C
:105820001A600220FDF7C6F9002318460837BD4666
:1058300080BD80B483B000AF78607B681B6803F0E4
:10584000030318460C37BD465DF8047B704780B4EF
:1058500085B000AF786039600023FB603B681A6850
:105860007B689A603B685A683B689B681A433B6850
:10587000DB681A433B681B691343FA681343FB60F8
:105880007B68DB6823F47F6323F00F03FA681A4315
:105890007B68DA60002318461437BD465DF8047B48
:1058A000704780B483B000AF78607B681B69DBB25F
:1058B00018460C37BD465DF8047B704780B485B050
:1058C00000AF786039607B6814331A463B68134434
:1058D000FB60FB681B6818461437BD465DF8047B07
:1058E000704780B485B000AF786039600023FB60FA
:1058F0003B681A687B685A623B685A687B689A62A0
:105900003B689A683B68DB681A433B681B691A432B
:105910003B685B691343FA681343FB607B68DB6A8F
:1059200023F0F702FB681A437B68DA62002318460B
:105930001437BD465DF8047B704780B588B000AF72
:10594000786039603B68BB601023FB6040233B619B
:1059500000237B614FF48063BB6107F108031946A4
:105960007868FFF774FF41F288321021786800F000
:1059700075F9F861FB6918462037BD4680BD80B5D2
:105980008AB000AFF860C7E900233B683B6107239A
:105990007B614023BB610023FB614FF480633B626A
:1059A00007F110031946F868FFF751FF41F28832FA
:1059B0000721F86800F052F978627B6A18462837A8
:1059C000BD4680BD80B588B000AF78600023BB6065
:1059D0000023FB6000233B6100237B614FF4806365
:1059E000BB6107F1080319467868FFF730FF786854
:1059F00000F00CF9F861FB6918462037BD4680BD00
:105A000080B588B000AF78604FF4D573BB600823D1
:105A1000FB6040233B6100237B614FF48063BB61EB
:105A200007F1080319467868FFF711FF786800F05E
:105A3000F5FAF861FB6918462037BD4680BD80B590
:105A400088B000AF786039603B68BB603723FB608B
:105A500040233B6100237B614FF48063BB6107F10E
:105A6000080319467868FFF7F2FE41F288323721C1
:105A7000786800F0F3F8F861FB6918462037BD46F6
:105A800080BD80B588B000AF786039603B6843F076
:105A9000004343F48013BB602923FB6040233B6138
:105AA00000237B614FF48063BB6107F10803194653
:105AB0007868FFF7CCFE786800F002FAF861FB69BD
:105AC00018462037BD4680BD80B588B000AF7860ED
:105AD00039603B68BB600623FB6040233B610023C9
