:020000040800F2
:10000000000002205D280008492600085726000845
:100010005D2600086326000869260008000000002D
:100020000000000000000000000000006F26000833
:100030007D260008000000008B2600089926000895
:10004000AD280008AD280008AD280008AD2800083C
:10005000AD280008AD280008AD280008AD2800082C
:10006000AD280008AD280008AD280008AD2800081C
:10007000AD280008AD280008AD280008AD2800080C
:10008000AD280008AD280008AD280008AD280008FC
:10009000AD280008AD280008AD280008AD280008EC
:1000A000AD280008AD280008AD280008AD280008DC
:1000B000AD280008AD280008AD280008AD280008CC
:1000C000AD280008AD280008AD280008AD280008BC
:1000D000AD280008AD280008AD280008AD280008AC
:1000E000AD280008AD280008AD280008AD2800089C
:1000F000AD280008AD280008AD280008AD2800088C
:10010000AD280008AD280008AD280008AD2800087B
:10011000AD280008AD280008AD280008A526000875
:10012000AD280008AD280008AD280008AD2800085B
:10013000AD280008AD280008AD280008AD2800084B
:10014000AD280008AD280008AD280008AD2800083B
:10015000AD280008AD280008AD280008AD2800082B
:10016000AD280008AD280008AD280008AD2800081B
:10017000AD280008AD280008AD28000800000000E8
:08018000AD280008AD280008BD
:1001900010B5054C237833B9044B13B10448AFF3C1
:1001A00000800123237010BD0C040020000000001B
:1001B0000C74000808B5034B1BB103490348AFF3A7
:1001C000008008BD00000000100400200C7400082E
:1001D000034613F8012B002AFBD1181A0138704787
:1001E00001F0FF01102A2BDB10F0070F08D010F8E8
:1001F000013B013A8B422DD010F0070F42B3F6D1EC
:10020000F0B441EA012141EA014122F007047FF004
:1002100000070023F0E80256083C85EA010586EA5B
:10022000010685FA47F5A3FA87F586FA47F6A5FA97
:1002300087F68EB9EED1F0BC01F0FF0102F00702A3
:1002400032B110F8013B013A83EA010313B1F8D14E
:100250000020704701387047002D06BF354603382F
:10026000073815F0010F07D1013015F4807F02BF68
:10027000013015F4C03F0130F0BC0138704700BFB9
:1002800081F0004102E000BF83F0004330B54FEA47
:1002900041044FEA430594EA050F08BF90EA020FB4
:1002A0001FBF54EA000C55EA020C7FEA645C7FEA47
:1002B000655C00F0E2804FEA5454D4EB5555B8BF6A
:1002C0006D420CDD2C4480EA020281EA030382EADB
:1002D000000083EA010180EA020281EA0303362D6D
:1002E00088BF30BD11F0004F4FEA01314FF4801C40
:1002F0004CEA113102D0404261EB410113F0004F52
:100300004FEA03334CEA133302D0524263EB430308
:1003100094EA050F00F0A780A4F10104D5F1200EA6
:100320000DDB02FA0EFC22FA05F2801841F1000101
:1003300003FA0EF2801843FA05F359410EE0A5F1D5
:1003400020050EF1200E012A03FA0EFC28BF4CF006
:10035000020C43FA05F3C01851EBE37101F00045BC
:1003600007D54FF0000EDCF1000C7EEB00006EEBC9
:100370000101B1F5801F1BD3B1F5001F0CD3490853
:100380005FEA30004FEA3C0C04F101044FEA4452AA
:1003900012F5800F80F09A80BCF1004F08BF5FEA31
:1003A000500C50F1000041EB045141EA050130BD11
:1003B0005FEA4C0C404141EB0101013C28BFB1F523
:1003C000801FE9D291F0000F04BF01460020B1FA6E
:1003D00081F308BF2033A3F10B03B3F120020CDA41
:1003E0000C3208DD02F1140CC2F10C0201FA0CF01F
:1003F00021FA02F10CE002F11402D8BFC2F1200C84
:1004000001FA02F120FA0CFCDCBF41EA0C01904039
:10041000E41AA2BF01EB0451294330BD6FEA040482
:100420001F3C1CDA0C340EDC04F11404C4F120026D
:1004300020FA04F001FA02F340EA030021FA04F37F
:1004400045EA030130BDC4F10C04C4F1200220FAD6
:1004500002F001FA04F340EA0300294630BD21FA14
:1004600004F0294630BD94F0000F83F4801306BFDA
:1004700081F480110134013D4EE77FEA645C18BFCE
:100480007FEA655C29D094EA050F08BF90EA020F65
:1004900005D054EA000C04BF1946104630BD91EA5D
:1004A000030F1EBF0021002030BD5FEA545C05D160
:1004B0004000494128BF41F0004130BD14F580049F
:1004C0003CBF01F5801130BD01F0004545F0FE4113
:1004D00041F470014FF0000030BD7FEA645C1ABF48
:1004E000194610467FEA655C1CBF0B46024650EA7F
:1004F000013406BF52EA033591EA030F41F40021AB
:1005000030BD00BF90F0000F04BF0021704730B530
:100510004FF4806404F132044FF000054FF0000105
:1005200050E700BF90F0000F04BF0021704730B5C6
:100530004FF4806404F1320410F0004548BF40429B
:100540004FF000013EE700BF42004FEAE2014FEAF0
:1005500031014FEA02701FBF12F07F4393F07F4FCB
:1005600081F06051704732F07F4208BF704793F0CE
:100570007F4F04BF41F40021704730B54FF46074E1
:1005800001F0004521F000411CE700BF50EA0102E4
:1005900008BF704730B54FF000050AE050EA01028D
:1005A00008BF704730B511F0004502D5404261EBFD
:1005B00041014FF4806404F132045FEA915C3FF43E
:1005C000D8AE4FF003025FEADC0C18BF03325FEADB
:1005D000DC0C18BF033202EBDC02C2F1200300FA8C
:1005E00003FC20FA02F001FA03FE40EA0E0021FAB1
:1005F00002F11444BDE600BF70B54FF0FF0C4CF49F
:10060000E06C1CEA11541DBF1CEA135594EA0C0F50
:1006100095EA0C0F00F0DEF82C4481EA030621EA8B
:100620004C5123EA4C5350EA013518BF52EA0335C6
:1006300041F4801143F4801338D0A0FB02CE4FF078
:100640000005E1FB02E506F00042E0FB03E54FF0A8
:100650000006E1FB03569CF0000F18BF4EF0010EA0
:10066000A4F1FF04B6F5007F64F5407404D25FEA9C
:100670004E0E6D4146EB060642EAC62141EA55514F
:100680004FEAC52040EA5E504FEACE2EB4F1FD0C91
:1006900088BFBCF5E06F1ED8BEF1004F08BF5FEA0F
:1006A000500E50F1000041EB045170BD06F00046C1
:1006B00046EA010140EA020081EA0301B4EB5C046E
:1006C000C2BFD4EB0C0541EA045170BD41F4801166
:1006D0004FF0000E013C00F3AB8014F1360FDEBF8B
:1006E000002001F0004170BDC4F10004203C35DA67
:1006F0000C341BDC04F11404C4F1200500FA05F3EA
:1007000020FA04F001FA05F240EA020001F000428A
:1007100021F0004110EBD37021FA04F642EB060100
:100720005EEA430E08BF20EAD37070BDC4F10C042A
:10073000C4F1200500FA04F320FA05F001FA04F2EE
:1007400040EA020001F0004110EBD37041F10001DA
:100750005EEA430E08BF20EAD37070BDC4F12005E5
:1007600000FA05F24EEA020E20FA04F301FA05F24D
:1007700043EA020321FA04F001F0004121FA04F2F5
:1007800020EA020000EBD3705EEA430E08BF20EAC5
:10079000D37070BD94F0000F0FD101F000464000FF
:1007A00041EB010111F4801F08BF013CF7D041EA81
:1007B000060195F0000F18BF704703F00046520085
:1007C00043EB030313F4801F08BF013DF7D043EA56
:1007D0000603704794EA0C0F0CEA135518BF95EA0C
:1007E0000C0F0CD050EA410618BF52EA4306D1D193
:1007F00081EA030101F000414FF0000070BD50EAB2
:10080000410606BF1046194652EA430619D094EA3B
:100810000C0F02D150EA013613D195EA0C0F05D125
:1008200052EA03361CBF104619460AD181EA030179
:1008300001F0004141F0FE4141F470014FF0000031
:1008400070BD41F0FE4141F4780170BD70B54FF0CC
:10085000FF0C4CF4E06C1CEA11541DBF1CEA13554C
:1008600094EA0C0F95EA0C0F00F0A7F8A4EB05042E
:1008700081EA030E52EA03354FEA013100F0888025
:100880004FEA03334FF0805545EA131343EA1263EE
:100890004FEA022245EA111545EA10654FEA0026A3
:1008A0000EF000419D4208BF964244F1FD0404F55C
:1008B000407402D25B084FEA3202B61A65EB0305B8
:1008C0005B084FEA32024FF480104FF4002CB6EB75
:1008D000020E75EB030E22BFB61A754640EA0C00F5
:1008E0005B084FEA3202B6EB020E75EB030E22BF35
:1008F000B61A754640EA5C005B084FEA3202B6EB76
:10090000020E75EB030E22BFB61A754640EA9C0034
:100910005B084FEA3202B6EB020E75EB030E22BF04
:10092000B61A754640EADC0055EA060E18D04FEAC2
:10093000051545EA16754FEA06164FEAC30343EA62
:1009400052734FEAC2025FEA1C1CC0D111F4801F2F
:100950000BD141EA00014FF000004FF0004CB6E728
:1009600011F4801F04BF01430020B4F1FD0C88BFC7
:10097000BCF5E06F3FF6AFAEB5EB030C04BFB6EBD2
:10098000020C5FEA500C50F1000041EB045170BDC5
:100990000EF0004E4EEA113114EB5C04C2BFD4EBF2
:1009A0000C0541EA045170BD41F480114FF0000E76
:1009B000013C90E645EA060E8DE60CEA135594EAF2
:1009C0000C0F08BF95EA0C0F3FF43BAF94EA0C0FF5
:1009D0000AD150EA01347FF434AF95EA0C0F7FF46A
:1009E00025AF104619462CE795EA0C0F06D152EABE
:1009F00003353FF4FDAE1046194622E750EA4106A2
:100A000018BF52EA43067FF4C5AE50EA41047FF4B2
:100A10000DAF52EA43057FF4EBAE12E74FF0FF3C17
:100A200006E000BF4FF0010C02E000BF4FF0010CE8
:100A30004DF804CD4FEA410C7FEA6C5C4FEA430C61
:100A400018BF7FEA6C5C1BD001B050EA410C0CBFB0
:100A500052EA430C91EA030F02BF90EA020F002012
:100A6000704710F1000F91EA030F58BF994208BF79
:100A700090422CBFD8176FEAE37040F00100704736
:100A80004FEA410C7FEA6C5C02D150EA013C07D18D
:100A90004FEA430C7FEA6C5CD6D152EA033CD3D0D8
:100AA0005DF8040B704700BF8446104662468C46D2
:100AB0001946634600E000BF01B5FFF7B7FF002805
:100AC00048BF10F1000F01BD4DF808EDFFF7F4FF2E
:100AD0000CBF012000205DF808FB00BF4DF808EDB9
:100AE000FFF7EAFF34BF012000205DF808FB00BFDC
:100AF0004DF808EDFFF7E0FF94BF012000205DF8FE
:100B000008FB00BF4DF808EDFFF7CEFF94BF0120B2
:100B100000205DF808FB00BF4DF808EDFFF7C4FFAB
:100B200034BF012000205DF808FB00BF4FEA410CF4
:100B30007FEA6C5C02D150EA013C0AD14FEA430CD7
:100B40007FEA6C5C02D152EA033C02D14FF0000014
:100B500070474FF0010070474FEA410212F5001252
:100B600015D211D56FF47873B3EB625212D94FEAF4
:100B7000C12343F0004343EA505311F0004F23FADE
:100B800002F018BF404270474FF00000704750EA33
:100B9000013005D111F0004008BF6FF000407047F0
:100BA0004FF00000704700BF53B94AB9002908BF91
:100BB00000281CBF4FF0FF314FF0FF3000F06EB93E
:100BC000ADF1080C6DE904CE00F006F8DDF804E0A4
:100BD000DDE9022304B070472DE9F047089D044683
:100BE0008C46002B40F083808A42174647D9B2FAE0
:100BF00082F242B1C2F1200024FA00F09140974005
:100C000040EA010C94404FEA1748230CBCFBF8F66D
:100C10001FFA87FE08FB16C143EA014306FB0EF1EB
:100C2000994209D9FB1806F1FF3080F019819942E9
:100C300040F21681023E3B445B1AA4B2B3FBF8F0CB
:100C400008FB103344EA034400FB0EFEA64509D915
:100C50003C1900F1FF3380F00581A64540F2028186
:100C600002383C4440EA0640A4EB0E0400261DB1C5
:100C7000D4400023C5E900433146BDE8F08702B9FE
:100C8000FFDEB2FA82F2002A50D1CB1B4FEA174E98
:100C90001FFA87F80126B3FBFEFC210C0EFB1C3368
:100CA00041EA034108FB0CF38B4207D979180CF198
:100CB000FF3002D28B4200F2E9808446C91AA3B207
:100CC000B1FBFEF00EFB101143EA014408FB00F8F3
:100CD000A04507D93C1900F1FF3302D2A04500F22C
:100CE000D9801846A4EB080440EA0C40BFE78B42C9
:100CF00009D9002D00F0B1800026C5E90001304679
:100D00003146BDE8F087B3FA83F6002E4AD18B4214
:100D100002D3824200F2B880841A61EB0301012001
:100D20008C46002DA8D0C5E9004CA5E7C2F12003F0
:100D300020FA03F6974001FA02F04FEA174ED94025
:100D40003043030CB1FBFEF61FFA87F80EFB1611B9
:100D500043EA014306FB08F1994204FA02F409D977
:100D6000FB1806F1FF3C80F08D80994240F28A80AA
:100D7000023E3B445B1A81B2B3FBFEF00EFB103324
:100D800041EA034100FB08F38B4207D9791800F1CF
:100D9000FF3C73D28B4271D902383944CB1A40EAF6
:100DA000064678E7C6F1200C03FA06F422FA0CF3A3
:100DB0001C4320FA0CF701FA06F34FEA144E21FA0D
:100DC0000CF11F433B0CB1FBFEF91FFA84F80EFB3C
:100DD000191143EA014109FB08FA8A4502FA06F2B1
:100DE00000FA06F308D9611809F1FF3048D28A45A4
:100DF00046D9A9F102092144A1EB0A01BFB2B1FB16
:100E0000FEF00EFB101147EA014700FB08F8B84559
:100E100007D9E71900F1FF312ED2B8452CD9023895
:100E2000274440EA0940A7EB0807A0FB02894F4589
:100E3000C64649461AD317D05DB1B3EB0E0267EB35
:100E4000010707FA0CFCF2404CEA0202F740C5E940
:100E5000002700263146BDE8F0872E4628460BE7DE
:100E60000646E9E61846FDE64345E5D2B8EB020E34
:100E700069EB04010138DFE70846D2E760468DE7F9
:100E80008146B9E7664675E730464AE7ACF1020CA1
:100E9000394413E702383C4424E700BF704700BFE1
:100EA00080B584B000AFC7F804C00023FB812FE0F9
:100EB000FB890133FB81012001F06CFDFB89B3F557
:100EC000617F25D31A4B002283F8CC210023FB81BC
:100ED0000FE000224021174802F060F8C82001F01E
:100EE00059FD01224021134802F058F8C82001F0B2
:100EF00051FD0F4B93F8CC31002B09D10C4B93F8DB
:100F0000AF33002BE5D00A4B93F8DB33002BE0D056
:100F1000074B93F8AF33002BCAD0054B93F8DB3364
:100F2000002BC5D000BF00BF1037BD4680BD00BF3D
:100F3000840400200004024090B583B000AF07F1A4
:100F400018033B6001F0B4FC00F0C4FC00F0D6FDD7
:100F500000F09EFD00F026FD9E4B4FF0FF325A61DF
:100F600000F0E2FE40F6FC0001F014FD9A4802F0A9
:100F7000BFFC01224021994802F010F8984B93F8E9
:100F80009F31002B40F0F581964B01221A70944B53
:100F900093F8A031012B19D10021934802F068FE8B
:100FA0008F4B002283F8A0210023FB710BE0FB791B
:100FB0008B4A2C2101FB03F31344143300221A70D3
:100FC000FB790133FB71FB79162BF0D90023BB7140
:100FD000CAE1BB79824A2C2101FB03F31344153388
:100FE0001B78002B40F0A881BB797D4A2C2101FBA6
:100FF00003F3134416331B78002B20D1BB79784AB6
:101000002C2101FB03F313440C331868BB79744A99
:101010002C2101FB03F3134410331988BB79704A68
:101020002C2404FB03F3134413331B78002B0CBF55
:1010300001230023DBB21A4601F0B0FF91E1BB7936
:10104000674A2C2101FB03F3134416331B78022B50
:1010500061D1BB79624A2C2101FB03F31344243391
:101060001B68002B57D1BB795D4A2C2101FB03F390
:1010700013441C331B68002B2CD0BB79584A2C21FD
:1010800001FB03F313440C331868BB79544A2C2139
:1010900001FB03F3134410331988BB79504A2C2405
:1010A00004FB03F3134414331B78002B0AD0BB79E1
:1010B0004B4A2C2404FB03F313441C331B681B7D95
:1010C000002B01D1012300E00023DBB21A4601F01E
:1010D00065FF46E1BB79424A2C2101FB03F313442F
:1010E0000C331868BB793E4A2C2101FB03F31344EF
:1010F00010331988BB793A4A2C2404FB03F31344B8
:1011000014331B78002B0CBF01230023DBB21A46DB
:1011100001F044FF25E1BB79314A2C2101FB03F3A7
:10112000134424331B68002B2DD0BB792C4A2C216F
:1011300001FB03F3134416331B78012B23D1BB7936
:10114000274A2C2101FB03F3134414331B78002B93
:1011500019D0BB79224A2C2101FB03F31344143329
:1011600000221A70BB791E4A2C2101FB03F31344A1
:1011700024331B68BA792C2101FB02F218490A4476
:1011800010469847EDE0BB79154A2C2101FB03F38B
:10119000134416331B78032B28D1BB79104A2C211A
:1011A00001FB03F3134414331B78002B1ED0BB79CF
:1011B0000B4A2C2101FB03F31344143300221A7051
:1011C000BB792C2202FB03F3054A1344184601F0B5
:1011D000D7F8C6E0000C0240780800200004024066
:1011E000840400202C0400203C040020BB79C24A67
:1011F0002C2101FB03F3134416331B78042B52D12B
:10120000BB79BD4A2C2101FB03F3134414331B7833
:10121000002B48D0BB79B84A2C2101FB03F31344BF
:101220001C331B681B7D002B00F09A80BB79B24AEF
:101230002C2101FB03F31344143300221A70BB79F1
:10124000AD4A2C2101FB03F313440C331868BB791E
:10125000A94A2C2101FB03F3134410331B880022FD
:10126000194601F09BFEBB79A34A2C2101FB03F335
:10127000134418331B88184601F08CFBBB799E4A37
:101280002C2101FB03F313440C331868BB799A4AF1
:101290002C2101FB03F3134410331B880122194650
:1012A00001F07CFE5DE0BB79934A2C2101FB03F346
:1012B000134416331B78052B1DD1BB798E4A2C2184
:1012C00001FB03F3134414331B78002B13D0BB79B9
:1012D000894A2C2101FB03F31344143300221A70B2
:1012E000BB792C2202FB03F3834A134401211846E5
:1012F00000F0A8FF35E0BB797F4A2C2101FB03F306
:10130000134416331B78062B16D1BB797A4A2C214D
:1013100001FB03F3134414331B78002B0CD0BB796F
:10132000754A2C2101FB03F313441C331B68012174
:10133000184600F0F5FF14E0BB796F4A2C2101FB41
:1013400003F3134416331B78C82B0AD1BB796A4ABE
:101350002C2101FB03F31344143300221A7000E024
:1013600000BFBB790133BB71BB79162B7FF631AE61
:1013700004E6624B1B78002B0AD0604B00221A70E7
:101380005D4B002283F8CC215B4B002283F80023C5
:10139000594B93F8CC31002B00F0EE81564B93F86B
:1013A000A732012B40F0B280554B4FF457721A60B0
:1013B000544B42F6E0621A60534800F0E1FF6420AB
:1013C00001F0E8FA4C4BD3F8E8304B4AB2F8EC1095
:1013D0000022184601F0E2FD474BD3F89030464A10
:1013E000B2F894100022184601F0D8FD3B469C4606
:1013F000FFF756FD404BD3F86C313F4AB2F87011FD
:101400000022184601F0CAFD642001F0C3FA3A4BED
:10141000D3F86C31384AB2F870110122184601F045
:10142000BDFD354BD3F81431334AB2F81811002200
:10143000184601F0B3FD304BD3F8BC302E4AB2F859
:10144000C0100022184601F0A9FD3B469C4600F062
:10145000D1F94FF4167001F09DFA274BD3F81431EF
:10146000254AB2F818110122184601F097FD224BC7
:10147000D3F8BC30204AB2F8C0100122184601F05F
:101480008DFD1D4BD3F8E8301B4AB2F8EC10012259
:10149000184601F083FD184BD3F89030164AB2F885
:1014A00094100122184601F079FD642001F072FACF
:1014B0003B469C4600F07CF90F4BD3F8CC320E4AE9
:1014C000B2F8D0120022184601F068FD642001F045
:1014D00061FA094BD3F8CC32074AB2F8D012012294
:1014E000184601F05BFD4FF4E17001F053FA6420FF
:1014F00001F050FA3AE100BF840400202C040020DF
:101500000000002004000020B8050020A14B4FF48B
:1015100057721A60A04B42F6E0621A609F4800F0D2
:101520002FFF642001F036FA9D4BD3F8E8309C4A37
:10153000B2F8EC100022184601F030FD984BD3F8B9
:101540009030974AB2F894100022184601F026FD18
:101550003B469C46FFF7A4FC914BD3F86C31904A74
:10156000B2F870110022184601F018FD642001F055
:1015700011FA8B4BD3F86C31894AB2F87011012201
:10158000184601F00BFD864BD3F81431844AB2F8AB
:1015900018110022184601F001FD814BD3F8BC3030
:1015A0007F4AB2F8C0100022184601F0F7FC3B4613
:1015B0009C4600F01FF94FF4167001F0EBF9784BE0
:1015C000D3F81431764AB2F818110122184601F006
:1015D000E5FC734BD3F8BC30714AB2F8C01001225D
:1015E000184601F0DBFC6E4BD3F8E8306C4AB2F8D9
:1015F000EC100122184601F0D1FC694BD3F8903071
:10160000674AB2F894100122184601F0C7FC3B4625
:101610009C4600F0CDF8624BD3F8CC32604AB2F869
:10162000D0120022184601F0B9FC642001F0B2F992
:101630005B4BD3F8CC325A4AB2F8D012012218468A
:1016400001F0ACFC642001F0A5F94FF4E17001F069
:10165000A1F9642001F09EF9504800F091FE642049
:1016600001F098F94E4BD3F890304D4AB2F89410EF
:101670000022184601F092FC494BD3F8E830484A62
:10168000B2F8EC100022184601F088FC3B469C465C
:10169000FFF706FC642001F07DF9414BD3F8BC3024
:1016A0003F4AB2F8C0100022184601F077FC3C4BCC
:1016B000D3F814313A4AB2F818110022184601F052
:1016C0006DFC3B469C4600F095F84FF4167001F017
:1016D00061F9334BD3F8BC30314AB2F8C010012263
:1016E000184601F05BFC2E4BD3F814312C4AB2F8AB
:1016F00018110122184601F051FC294BD3F8903003
:10170000274AB2F894100122184601F047FC244BF6
:10171000D3F8E830224AB2F8EC100122184601F062
:101720003DFC3B469C4600F043F81D4BD3F8CC32C1
:101730001B4AB2F8D0120022184601F02FFC642098
:1017400001F028F9164BD3F8CC32154AB2F8D01272
:101750000122184601F022FC642001F01BF94FF42D
:10176000E17001F017F9642001F014F90D4B1B68CA
:1017700001330C4A136001E40B4B1B78002B3FF440
:10178000FDAB094B00221A700021084802F070FAE4
:10179000FFF7F4BB0000002004000020B805002083
:1017A00084040020280400202D0400203C04002094
:1017B00080B483B000AFC7F804C00AE000BF0C4B90
:1017C00093F8CC31002B09D0094B93F89F31002BB3
:1017D00004D0074B93F80033002BEFD1044B0122C8
:1017E00083F8002300BF0C37BD465DF8047B7047CB
:1017F0008404002080B584B000AFC7F804C0324B29
:10180000FB6052E0FB68013BFB60FB68002B4CD1A6
:101810002E4BD3F814312D4AB2F818110122184674
:1018200001F0BCFB294BD3F8BC30284AB2F8C010F9
:101830000122184601F0B2FB244B002283F8CC2190
:101840000FE000224021224801F0A8FBC82001F04F
:10185000A1F8012240211E4801F0A0FBC82001F0A0
:1018600099F81A4B93F8CC31002B09D1174B93F808
:101870002B33002BE5D0154B93F88333002BE0D0AE
:10188000124BD3F81431114AB2F81811002218463D
:1018900001F084FB0D4BD3F8BC300C4AB2F8C010F9
:1018A0000022184601F07AFB0AE0084B93F82B332C
:1018B000002BA7D0054B93F88333002BA2D000BF99
:1018C00000BF1037BD4680BD001BB7008404002058
:1018D0000004024080B594B000AF07F1200330222D
:1018E0000021184603F0B8F807F10C0300221A6033
:1018F0005A609A60DA601A610023BB60274B1B6C48
:10190000264A43F080531364244B1B6C03F080532E
:10191000BB60BB6800237B60214B1B68204A43F4FB
:10192000804313601E4B1B6803F480437B607B681D
:1019300001233B624FF480337B620223BB634FF48D
:101940008003FB6304233B6448237B640623BB645E
:101950000423FB6407F12003184601F039FB03461A
:10196000002B01D000F0C0FD0F23FB6002233B6180
:1019700000237B614FF48053BB610023FB6107F1BF
:101980000C030021184601F09BFD0346002B01D0FB
:1019900000F0AAFD00BF5037BD4680BD00380240B0
:1019A0000070004080B58EB000AF07F12803002220
:1019B0001A605A609A60DA6007F1200300221A6008
:1019C0005A603B1D00221A605A609A60DA601A6100
:1019D0005A619A612C4B2D4A1A602B4B96225A6001
:1019E000294B00229A60284B7422DA60264B4FF470
:1019F00000721A61244B00229A61234801F028FFEB
:101A00000346002B01D000F06FFD4FF48053BB6202
:101A100007F1280319461C4802F064FB0346002B1B
:101A200001D000F061FD184802F001F80346002BD8
:101A300001D000F059FD00233B6200237B6207F1D7
:101A400020031946104802F04DFF0346002B01D039
:101A500000F04AFD60237B603A23BB600023FB60FB
:101A600000237B613B1D00221946074802F078FAEB
:101A70000346002B01D000F037FD034800F0AAFD1B
:101A800000BF3837BD4680BD3C0400200004004044
:101A900080B582B000AF3B4600221A605A60154BF9
:101AA000154A1A60134B45F6BF525A60114B00227B
:101AB0009A60104B0522DA600E4B00229A610D48A5
:101AC00001F0C6FE0346002B01D000F00DFD0023FF
:101AD0003B6000237B603B461946064802F002FF4C
:101AE0000346002B01D000F0FFFC00BF0837BD46C5
:101AF00080BD00BF780800200014004080B58CB085
:101B000000AF07F11C0300221A605A609A60DA6085
:101B10001A610023BB617E4B1B6B7D4A43F01003AF
:101B200013637B4B1B6B03F01003BB61BB6900238A
:101B30007B61774B1B6B764A43F004031363744B52
:101B40001B6B03F004037B617B6900233B61704BDB
:101B50001B6B6F4A43F0800313636D4B1B6B03F0E9
:101B600080033B613B690023FB60694B1B6B684A48
:101B700043F001031363664B1B6B03F00103FB602F
:101B8000FB680023BB60624B1B6B614A43F002039E
:101B900013635F4B1B6B03F00203BB60BB68002346
:101BA0007B605B4B1B6B5A4A43F008031363584B33
:101BB0001B6B03F008037B607B68002220215548E3
:101BC00001F0ECF90022C021534801F0E7F90022AE
:101BD0004FF47F41514801F0E1F90022C021504803
:101BE00001F0DCF94FF6DA73FB6100233B6201235D
:101BF0007B6207F11C031946464801F01BF82023BD
:101C0000FB6101233B6202237B620023BB6207F17D
:101C10001C0319463F4801F00DF842F20303FB6133
:101C200000233B6201237B6207F11C0319463D48F8
:101C300001F000F8C023FB6101233B6200237B62BB
:101C40000023BB6207F11C031946334800F0F2FF82
:101C50001023FB6100233B6202237B6207F11C031C
:101C60001946304800F0E6FF40F60443FB610023CC
:101C70003B6201237B6207F11C031946284800F0F0
:101C8000D9FF4FF47F43FB6101233B6201237B6259
:101C90000023BB6207F11C031946204800F0CAFF6D
:101CA0005823FB6100233B6201237B6207F11C0385
:101CB00019461A4800F0BEFF8023FB6100233B62F7
:101CC00000237B6207F11C031946144800F0B2FFA1
:101CD0004023FB6101233B6200237B620023BB6244
:101CE00007F11C0319460E4800F0A4FF8023FB6196
:101CF00001233B6202237B620023BB6207F11C03CA
:101D00001946074800F096FF00BF3037BD4680BD3A
:101D1000003802400010024000000240000C024067
:101D2000000402400008024080B582B000AF642089
:101D300000F030FE0023FB71B0E0FB79744A2C21E7
:101D400001FB03F31344143300221A70FB79704A29
:101D50002C2101FB03F31344133300221A70FB7987
:101D60006B4A2C2101FB03F31344123300221A7037
:101D7000FB79674A2C2101FB03F31344153300223E
:101D80001A70FB79624A2C2101FB03F313442033C0
:101D9000604A1A60FB795E4A2C2101FB03F313446D
:101DA000243300221A60FA795B4913465B0013441E
:101DB000DB000B441A68FB791046554A2C2101FBC5
:101DC00003F3134404331860FA79534913465B0054
:101DD0001344DB000B4404331A68FB7990B24C4A7D
:101DE0002C2101FB03F31344083302461A80FA79CD
:101DF000494913465B001344DB000B4408331A685F
:101E0000FB791046424A2C2101FB03F313440C33A7
:101E10001860FA79404913465B001344DB000B4419
:101E20000C331A68FB7990B2394A2C2101FB03F379
:101E30001344103302461A80FA79374913465B007F
:101E40001344DB000B4410331A68FB79D0B2304ADC
:101E50002C2101FB03F31344163302461A70FA795E
:101E60002D4913465B001344DB000B4414331A68FE
:101E7000FB7990B2264A2C2101FB03F3134418335B
:101E800002461A80FB79224A2C2101FB03F31344FA
:101E90001C3300221A60FB790133FB71FB79162B8E
:101EA0007FF64BAF1A4B1D4A5A62194B1C4ADA6235
:101EB000174B1C4A5A65164B1B4A9A64144B1B4A13
:101EC000C3F88020124B1A4AC3F8CC20104B194A91
:101ED000C3F824210E4B184AC3F85C210C4B174A57
:101EE000C3F88C210A4B164AC3F8B821084B154A8F
:101EF000C3F83C2201224021134801F04FF801228F
:101F00008021114801F04AF800BF0837BD4680BD66
:101F100084040020FD200008080000208121000822
:101F200028740008A9240008C0060020892400089D
:101F300008050020600500206924000830740008AE
:101F400038740008447400080000024080B584B072
:101F500000AF78607B681B68604A934240F0B980AC
:101F600010215F4801F002F80346002B31D1002315
:101F7000FB7316E0FB7B5B4A2C2101FB03F313444C
:101F80000C331868FB7B574A2C2101FB03F31344E5
:101F900010331B880122194601F000F8FB7B013346
:101FA000FB73FB7B162BE5D900214F4801F060FE47
:101FB0004E4801F00DFD4E4800F084FA00E000BFED
:101FC0001021474800F0D2FF0346002BF7D000F065
:101FD00020FE0023BB7345E0BB7B424A2C2101FB62
:101FE00003F313441C331B681B7D012B13D1BB7BF4
:101FF0003C4A2C2101FB03F3134416331B78042BBA
:1020000009D1BB7B374A2C2101FB03F313441C335A
:102010001B68002B13D1BB7B324A2C2101FB03F33D
:1020200013441C331B68002B09D0BB7B2D4A2C2189
:1020300001FB03F3134416331B78042B0FD0BB7B37
:10204000284A2C2101FB03F3134420331B68BA7B7D
:102050002C2101FB02F223490A4410469847BB7B1E
:102060000133BB73BB7B162BB6D9224B1B78002BDD
:1020700004D11C4B93F8CC31012B05D1194B9B6C2F
:102080000121184600F04CF91A4B1B78002B04D0A4
:10209000144B93F8CC31002B04D0124B93F89F31A2
:1020A000002B06D1134B00221A7000210E4801F0BC
:1020B000DFFD0C4B93F87C32002B0AD00E4B1B68D3
:1020C000002B06D0074B002283F87C220A4B00220B
:1020D0001A6000BF1037BD4680BD00BF001400402D
:1020E000000C0240840400203C04002078080020FA
:1020F000003E49002D0400202804002080B582B055
:1021000000AF78607B685A687B681B891946104667
:1021100000F02CFF0346002B1DD17B685B7D002B5C
:1021200019D17B689B7C132B06D87B689B7C013381
:10213000DAB27B689A741DE07B68DB7C002B19D1D6
:102140007B680122DA747B681B7D83F00103DAB2BD
:102150007B681A750EE07B689B7C002B06D07B6841
:102160009B7C013BDAB27B689A7404E07B680022B6
:10217000DA7400E000BF00BF0837BD4680BD000034
:1021800080B582B000AF78602D4BD3F890302C4AE8
:10219000B2F894100022184600F000FF284BD3F844
:1021A000BC30274AB2F8EC100022184600F0F6FEC8
:1021B000C82000F0EFFB224BD3F8E830204AB2F8F9
:1021C000C0100022184600F0E9FE1D4BD3F8143170
:1021D0001B4AB2F818110022184600F0DFFE4FF437
:1021E000967000F0D7FB164BD3F89030144AB2F833
:1021F00094100122184600F0D1FE114BD3F8BC30E8
:102200000F4AB2F8C0100122184600F0C7FE0C4B6E
:10221000D3F8E8300A4AB2F8EC100122184600F070
:10222000BDFE074BD3F81431054AB2F8181101224C
:10223000184600F0B3FE00BF0837BD4680BD00BFA2
:102240008404002080B586B000AF78600B46FB7038
:10225000324B7B6100237B820023FB6020E07B68A4
:10226000D8687B681B8A0022194600F097FE7B68BD
:102270001B8B5B089BB2184600F024F97B68D8687A
:102280007B681B8A0122194600F088FE7B681B8B45
:102290005B089BB2184600F015F9FB680133FB6040
:1022A000FB68092BDBD92DE07B69013B7B617B8AD5
:1022B000B3F5487F02D27B8A01337B827B68D86882
:1022C0007B681B8A0022194600F068FE7B681B8B26
:1022D0005B089BB21A467B8AD31A184600F0F2F8C4
:1022E0007B68D8687B681B8A0122194600F056FE7D
:1022F0007B681B8B5B089BB21A467B8AD31A1846F5
:1023000000F0E0F87B68DB7CFA789A4202D17B69C6
:10231000002BC9D100BF1837BD4680BDA086010083
:1023200080B582B000AF78600B46FB707B68DB7CC9
:10233000FA789A420ED10F4B1B7883F00103DBB27F
:10234000002B12D000210C4801F0CAFB094B0122DE
:102350001A700AE00021084801F08AFC054B0022AF
:102360001A70064B002283F8402000BF0837BD4694
:1023700080BD00BF2D0400203C0400208404002008
:1023800080B586B000AF78600023FB82C823BB60B5
:102390007B689B6A002B05D07B689B6A07F108026B
:1023A0001046984700233B6120E07B68D8687B6833
:1023B0001B8A0022194600F0F1FD7B681B8B5B082D
:1023C0009BB2184600F07EF87B68D8687B681B8A51
:1023D0000122194600F0E2FD7B681B8B5B089BB273
:1023E000184600F06FF83B6901333B613B69132BE2
:1023F000DBD90023FB602DE0FB8AB3F5487F02D2D6
:10240000FB8A0133FB827B68D8687B681B8A0022C9
:10241000194600F0C3FD7B681B8B5B089BB21A4614
:10242000FB8AD31A184600F04DF87B68D8687B68A1
:102430001B8A0122194600F0B1FD7B681B8B5B08EB
:102440009BB21A46FB8AD31A184600F03BF8FB6889
:102450000133FB60BB68FA689A42CDD300BF00BF6E
:102460001837BD4680BD000080B483B000AF7860EF
:10247000044B1A687B681A6000BF0C37BD465DF8D4
:10248000047B70470000002080B483B000AF786008
:10249000044B1A687B681A6000BF0C37BD465DF8B4
:1024A000047B70470400002080B483B000AF7860E4
:1024B0007B684FF47A721A6000BF0C37BD465DF836
:1024C000047B704780B483B000AF786000E000BF49
:1024D0007B685A1E7A60002BF9D100BF00BF0C3711
:1024E000BD465DF8047B704780B500AF00224021F7
:1024F000044800F053FD00228021024800F04EFD08
:1025000000BF80BD0000024080B483B000AF002354
:102510007B60104B5B6C0F4A43F4804353640D4B5C
:102520005B6C03F480437B607B6800233B60094B5A
:102530001B6C084A43F080531364064B1B6C03F07A
:1025400080533B603B6800BF0C37BD465DF8047BA1
:10255000704700BF0038024080B584B000AF78609B
:102560007B681B68184A93420ED10023FB60174B0F
:102570001B6C164A43F002031364144B1B6C03F0EC
:102580000203FB60FB681AE07B681B68104A9342F9
:1025900015D10023BB600D4B1B6C0C4A43F020038C
:1025A00013640A4B1B6C03F02003BB60BB68002262
:1025B0000021372000F003FB372000F01CFB00BF98
:1025C0001037BD4680BD00BF000400400038024007
:1025D0000014004080B588B000AF786007F10C03AC
:1025E00000221A605A609A60DA601A617B681B6880
:1025F000124A93421DD10023BB60114B1B6B104A42
:1026000043F0040313630E4B1B6B03F00403BB6026
:10261000BB684023FB6002233B6100237B610223F4
:10262000BB610223FB6107F10C031946054800F06A
:1026300001FB00BF2037BD4680BD00BF0004004045
:10264000003802400008024080B400AF00BFBD4621
:102650005DF8047B704780B400AFFEE780B400AF44
:10266000FEE780B400AFFEE780B400AFFEE780B4C1
:1026700000AF00BFBD465DF8047B704780B400AF7B
:1026800000BFBD465DF8047B704780B400AF00BF5B
:10269000BD465DF8047B704780B500AF00F05AF985
:1026A00000BF80BD80B500AF024801F051FB00BF04
:1026B00080BD00BF7808002080B400AF0123184619
:1026C000BD465DF8047B704780B582B000AF78608E
:1026D000396002F097F9034616221A604FF0FF3373
:1026E00018460837BD4680BD80B582B000AF78601F
:1026F0004FF0FF317868FFF7E7FFFEE780B586B05F
:1027000000AFF860B9607A6000237B610AE0AFF344
:1027100000800146BB685A1CBA60CAB21A707B6955
:1027200001337B617A697B689A42F0DB7B681846EB
:102730001837BD4680BD80B586B000AFF860B9607F
:102740007A6000237B6109E0BB685A1CBA601B7881
:102750001846AFF300807B6901337B617A697B683F
:102760009A42F1DB7B6818461837BD4680BD80B4BD
:1027700083B000AF78604FF0FF3318460C37BD468A
:102780005DF8047B704780B483B000AF7860396037
:102790003B684FF400525A60002318460C37BD4680
:1027A0005DF8047B704780B483B000AF786001238C
:1027B00018460C37BD465DF8047B704780B485B081
:1027C00000AFF860B9607A60002318461437BD4640
:1027D0005DF8047B7047000080B584B000AF78607E
:1027E000114B1B68002B02D10F4B104A1A600E4B85
:1027F0001B68FB600C4B1A687B6813446A46934263
:1028000007D902F0FFF803460C221A604FF0FF339D
:1028100006E0054B1A687B681344034A1360FB68A3
:1028200018461037BD4680BD30040020D80800206F
:1028300080B400AF084BD3F88830074A43F47003E4
:10284000C2F88830044B4FF000629A6000BFBD466A
:102850005DF8047B704700BF00ED00E0DFF834D086
:10286000002103E00C4B5B58435004310B480C4BE8
:1028700042189A42F6D30B4A02E0002342F8043B86
:10288000094B9A42F9D3FFF7D3FF02F0C1F8FEF7E4
:1028900053FB70470000022054780008000000201D
:1028A0000C0400200C040020D4080020FEE70000E7
:1028B00080B500AF0E4B1B680D4A43F400731360E4
:1028C0000B4B1B680A4A43F480631360084B1B6878
:1028D000074A43F480731360032000F065F9002079
:1028E00000F008F8FFF710FE0023184680BD00BF77
:1028F000003C024080B582B000AF7860124B1A688D
:10290000124B1B7819464FF47A73B3FBF1F3B2FB09
:10291000F3F3184600F081F90346002B01D00123A0
:102920000EE07B680F2B0AD8002279684FF0FF3049
:1029300000F045F9064A7B681360002300E001239C
:1029400018460837BD4680BD3002002038020020FE
:102950003402002080B400AF064B1B781A46064BA9
:102960001B681344044A136000BFBD465DF8047B36
:10297000704700BF38020020C008002080B400AFBC
:10298000034B1B681846BD465DF8047B704700BFCB
:10299000C008002080B584B000AF7860FFF7EEFF7C
:1029A000B8607B68FB60FB68B3F1FF3F05D00A4B62
:1029B0001B781A46FB681344FB6000BFFFF7DEFF7D
:1029C0000246BB68D31AFA689A42F7D800BF00BF24
:1029D0001037BD4680BD00BF3802002080B485B0EE
:1029E00000AF78607B6803F00703FB600C4BDB688B
:1029F000BB60BA684FF6FF031340BB60FB681A0266
:102A0000BB68134343F0BF6343F40033BB60044A25
:102A1000BB68D36000BF1437BD465DF8047B7047C8
:102A200000ED00E080B400AF044BDB681B0A03F04C
:102A300007031846BD465DF8047B704700ED00E0D3
:102A400080B483B000AF0346FB7197F90730002BC9
:102A50000BDBFB7903F01F02074997F907305B098D
:102A6000012000FA02F241F8232000BF0C37BD46D6
:102A70005DF8047B704700BF00E100E080B483B0E4
:102A800000AF03463960FB7197F90730002B0ADB72
:102A90003B68DAB20C4997F907301201D2B20B4405
:102AA00083F800230AE03B68DAB20849FB7903F0B7
:102AB0000F03043B1201D2B20B441A7600BF0C374D
:102AC000BD465DF8047B704700E100E000ED00E0EA
:102AD00080B489B000AFF860B9607A60FB6803F039
:102AE0000703FB61FB69C3F10703042B28BF042321
:102AF000BB61FB690433062B02D9FB69033B00E091
:102B000000237B614FF0FF32BB6902FA03F3DA4323
:102B1000BB681A407B699A404FF0FF317B6901FA2C
:102B200003F3D9437B680B40134318462437BD4653
:102B30005DF8047B7047000080B400AFBFF34F8F97
:102B400000BF064BDB6803F4E0620449044B134307
:102B5000CB60BFF34F8F00BF00BFFDE700ED00E08B
:102B60000400FA0580B582B000AF78607B68013B55
:102B7000B3F1807F01D301230FE00A4A7B68013B58
:102B800053600F214FF0FF30FFF778FF054B002215
:102B90009A60044B07221A60002318460837BD4686
:102BA00080BD00BF10E000E080B582B000AF78606B
:102BB0007868FFF713FF00BF0837BD4680BD80B5BA
:102BC00086B000AF0346B9607A60FB7300237B6177
:102BD000FFF728FF78617A68B9687869FFF778FFAE
:102BE000024697F90F3011461846FFF747FF00BF1E
:102BF0001837BD4680BD80B582B000AF0346FB717B
:102C000097F907301846FFF71BFF00BF0837BD468E
:102C100080BD80B500AFFFF78FFF80B582B000AFF9
:102C200078607868FFF79EFF034618460837BD4670
:102C300080BD000080B489B000AF786039600023A7
:102C40007B6100233B610023BB610023FB616BE1DF
:102C50000122FB6902FA03F37B613B681B687A6916
:102C600013403B613A697B699A4240F05A813B6864
:102C70005B6803F00303012B05D03B685B6803F03E
:102C80000303022B30D17B689B68BB61FB695B004F
:102C9000032202FA03F3DB43BA691340BB613B68CA
:102CA000DA68FB695B0002FA03F3BA691343BB619C
:102CB0007B68BA699A607B685B68BB610122FB69CB
:102CC00002FA03F3DB43BA691340BB613B685B68FC
:102CD0001B0903F00102FB6902FA03F3BA6913430B
:102CE000BB617B68BA695A603B685B6803F00303A9
:102CF000032B17D07B68DB68BB61FB695B00032299
:102D000002FA03F3DB43BA691340BB613B689A687C
:102D1000FB695B0002FA03F3BA691343BB617B688A
:102D2000BA69DA603B685B6803F00303022B23D1C6
:102D3000FB69DA087B68083253F82230BB61FB6913
:102D400003F007039B000F2202FA03F3DB43BA6987
:102D50001340BB613B681A69FB6903F007039B00E2
:102D600002FA03F3BA691343BB61FB69DA087B68B3
:102D70000832B96943F822107B681B68BB61FB69A4
:102D80005B00032202FA03F3DB43BA691340BB6121
:102D90003B685B6803F00302FB695B0002FA03F324
:102DA000BA691343BB617B68BA691A603B685B68A8
:102DB00003F44033002B00F0B4800023FB60604B31
:102DC0005B6C5F4A43F4804353645D4B5B6C03F47C
:102DD0008043FB60FB685B4AFB699B08023352F847
:102DE0002330BB61FB6903F003039B000F2202FA4F
:102DF00003F3DB43BA691340BB617B68524A9342D9
:102E00002BD07B68514A934225D07B68504A93422D
:102E10001FD07B684F4A934219D07B684E4A934239
:102E200013D07B684D4A93420DD07B684C4A934245
:102E300007D07B684B4A934201D107230EE0082359
:102E40000CE006230AE0052308E0042306E0032340
:102E500004E0022302E0012300E00023FA6902F00B
:102E6000030292009340BA691343BB613549FB6981
:102E70009B080233BA6941F823203B4B1B68BB61B6
:102E80003B69DB43BA691340BB613B685B6803F491
:102E90008033002B03D0BA693B691343BB61324ACC
:102EA000BB691360304B5B68BB613B69DB43BA694C
:102EB0001340BB613B685B6803F40033002B03D015
:102EC000BA693B691343BB61274ABB695360264B10
:102ED0009B68BB613B69DB43BA691340BB613B68DC
:102EE0005B6803F48013002B03D0BA693B6913437A
:102EF000BB611D4ABB6993601B4BDB68BB613B69CF
:102F0000DB43BA691340BB613B685B6803F40013A1
:102F1000002B03D0BA693B691343BB61124ABB69FA
:102F2000D360FB690133FB61FB690F2B7FF690AE29
:102F300000BF00BF2437BD465DF8047B704700BF6B
:102F40000038024000380140000002400004024006
:102F500000080240000C0240001002400014024031
:102F600000180240001C0240003C014080B485B0C3
:102F700000AF78600B467B807B681A697B881340C2
:102F8000002B02D00123FB7301E00023FB73FB7BCA
:102F900018461437BD465DF8047B704780B483B093
:102FA00000AF78600B467B8013467B707B78002BEC
:102FB00003D07A887B689A6103E07B881A047B6877
:102FC0009A6100BF0C37BD465DF8047B7047000076
:102FD00080B586B000AF78607B68002B01D10123FB
:102FE00064E27B681B6803F00103002B75D0A34BE0
:102FF0009B6803F00C03042B0CD0A04B9B6803F0E0
:103000000C03082B12D19D4B5B6803F48003B3F5CE
:10301000800F0BD1994B1B6803F40033002B5BD05E
:103020007B685B68002B57D101233FE27B685B68BC
:10303000B3F5803F06D1914B1B68904A43F480332F
:1030400013601DE07B685B68B3F5A02F0CD18B4B40
:103050001B688A4A43F480231360884B1B68874AA5
:1030600043F4803313600BE0844B1B68834A23F4E2
:1030700080331360814B1B68804A23F480231360E4
:103080007B685B68002B13D0FFF778FC386108E0A1
:10309000FFF774FC02463B69D31A642B01D9032362
:1030A00004E2764B1B6803F40033002BF0D014E0ED
:1030B000FFF764FC386108E0FFF760FC02463B69FB
:1030C000D31A642B01D90323F0E16C4B1B6803F482
:1030D0000033002BF0D100E000BF7B681B6803F0D9
:1030E0000203002B63D0654B9B6803F00C03002B9D
:1030F0000BD0624B9B6803F00C03082B1CD15F4B79
:103100005B6803F48003002B16D15C4B1B6803F053
:103110000203002B05D07B68DB68012B01D0012363
:10312000C4E1564B1B6823F0F8027B681B69DB0087
:10313000524913430B603AE07B68DB68002B20D0D8
:103140004F4B01221A60FFF719FC386108E0FFF7C6
:1031500015FC02463B69D31A022B01D90323A5E1D2
:10316000464B1B6803F00203002BF0D0434B1B6857
:1031700023F0F8027B681B69DB00404913430B60B6
:1031800015E03F4B00221A60FFF7F8FB386108E0BA
:10319000FFF7F4FB02463B69D31A022B01D9032344
:1031A00084E1364B1B6803F00203002BF0D17B68EF
:1031B0001B6803F00803002B30D07B685B69002B91
:1031C00016D0304B01221A60FFF7D8FB386108E0B7
:1031D000FFF7D4FB02463B69D31A022B01D9032324
:1031E00064E1264B5B6F03F00203002BF0D015E087
:1031F000244B00221A60FFF7C1FB386108E0FFF79B
:10320000BDFB02463B69D31A022B01D903234DE1D2
:103210001A4B5B6F03F00203002BF0D17B681B6835
:1032200003F00403002B00F0A0800023FB75134B78
:103230001B6C03F08053002B0FD10023BB600F4B9E
:103240001B6C0E4A43F0805313640C4B1B6C03F051
:103250008053BB60BB680123FB750B4B1B6803F4F9
:103260008073002B21D1084B1B68074A43F48073FD
:103270001360FFF783FB386111E000BF00380240A4
:1032800000004742800E474200700040FFF776FB87
:1032900002463B69D31A022B01D9032306E1854B71
:1032A0001B6803F48073002BF0D07B689B68012BB4
:1032B00006D1814B1B6F804A43F0010313671CE06A
:1032C0007B689B68052B0CD17B4B1B6F7A4A43F0C4
:1032D00004031367784B1B6F774A43F001031367AE
:1032E0000BE0754B1B6F744A23F001031367724B9D
:1032F0001B6F714A23F0040313677B689B68002BE4
:1033000015D0FFF73BFB38610AE0FFF737FB0246B9
:103310003B69D31A41F28832934201D90323C5E0B5
:10332000654B1B6F03F00203002BEED014E0FFF798
:1033300025FB38610AE0FFF721FB02463B69D31AFF
:1033400041F28832934201D90323AFE05A4B1B6FFD
:1033500003F00203002BEED1FB7D012B05D1564B70
:103360001B6C554A23F0805313647B689B69002BC8
:1033700000F09B80504B9B6803F00C03082B5CD043
:103380007B689B69022B41D14C4B00221A60FFF7EE
:10339000F5FA386108E0FFF7F1FA02463B69D31A03
:1033A000022B01D9032381E0434B1B6803F0007318
:1033B000002BF0D17B68DA697B681B6A1A437B6853
:1033C0005B6A9B011A437B689B6A5B08013B1B0499
:1033D0001A437B68DB6A1B06374913434B60374B44
:1033E00001221A60FFF7CAFA386108E0FFF7C6FA4F
:1033F00002463B69D31A022B01D9032356E02E4B18
:103400001B6803F00073002BF0D04EE02B4B002222
:103410001A60FFF7B3FA386108E0FFF7AFFA024627
:103420003B69D31A022B01D903233FE0224B1B68CF
:1034300003F00073002BF0D137E07B689B69012B10
:1034400001D1012332E01C4B5B68FB607B689B6908
:10345000012B28D0FB6803F480027B68DB699A4269
:1034600021D1FB6803F03F027B681B6A9A421AD1A4
:10347000FA6847F6C07313407A68526A9201934221
:1034800011D1FB6803F440327B689B6A5B08013B07
:103490001B049A4207D1FB6803F070627B68DB6A09
:1034A0001B069A4201D0012300E00023184618377A
:1034B000BD4680BD007000400038024060004742B9
:1034C00080B584B000AF786039607B68002B01D193
:1034D0000123CCE0684B1B6803F007033A689A426B
:1034E0000CD9654B3A68D2B21A70634B1B6803F073
:1034F00007033A689A4201D00123B8E07B681B6851
:1035000003F00203002B20D07B681B6803F0040348
:10351000002B05D0594B9B68584A43F4E053936005
:103520007B681B6803F00803002B05D0534B9B6896
:10353000524A43F460439360504B9B6823F0F0027F
:103540007B689B684D4913438B607B681B6803F065
:103550000103002B44D07B685B68012B07D1474BEC
:103560001B6803F40033002B19D101237FE07B6833
:103570005B68022B03D07B685B68032B07D13F4B52
:103580001B6803F00073002B09D101236FE03B4B54
:103590001B6803F00203002B01D1012367E0374BC6
:1035A0009B6823F003027B685B68344913438B609C
:1035B000FFF7E4F9F8600AE0FFF7E0F90246FB687C
:1035C000D31A41F28832934201D903234FE02B4BA7
:1035D0009B6803F00C027B685B689B009A42EBD10E
:1035E000254B1B6803F007033A689A420CD2224B22
:1035F0003A68D2B21A70204B1B6803F007033A688E
:103600009A4201D0012332E07B681B6803F0040377
:10361000002B08D0194B9B6823F4E0527B68DB68D1
:10362000164913438B607B681B6803F00803002B6B
:1036300009D0124B9B6823F460427B681B69DB0056
:103640000E4913438B6000F021F802460B4B9B6838
:103650001B0903F00F030A49CB5C22FA03F3094A62
:103660001360094B1B681846FFF744F900231846FE
:103670001037BD4680BD00BF003C0240003802400C
:103680005074000830020020340200202DE9B043BD
:1036900084B000AF00237B600023FB6000233B600D
:1036A0000023BB60674B9B6803F00C03082B0DD015
:1036B000082B00F2BD80002B02D0042B03D0B7E012
:1036C000614BBB60B7E0614BBB60B4E05D4B5B68D6
:1036D00003F03F037B605B4B5B6803F48003002BCC
:1036E0004DD0584B5B689B091A464FF0000340F2DF
:1036F000FF104FF0000102EA000803EA010940460A
:1037000049464FF000024FF000034B0143EAD063FB
:10371000420110461946B0EB080061EB09014FF079
:1037200000024FF000038B0143EA90638201121AFA
:1037300063EB01034FF000004FF00001D90041EAB4
:103740005271D00002460B4612EB080243EB09030C
:103750004FF000004FF00001590241EAD2515002EF
:1037600002460B46104619467B681A464FF0000386
:10377000FDF71AFA02460B461346FB604AE0314B4E
:103780005B689B091A464FF0000340F2FF104FF0B0
:10379000000102EA000403EA0105204629464FF031
:1037A00000024FF000034B0143EAD0634201104690
:1037B0001946001B61EB05014FF000024FF00003BA
:1037C0008B0143EA90638201121A63EB01034FF00D
:1037D00000004FF00001D90041EA5271D0000246CA
:1037E0000B46121945EB03034FF000004FF00001A8
:1037F000990241EA9251900202460B461046194640
:103800007B681A464FF00003FDF7CEF902460B46DF
:103810001346FB600B4B5B681B0C03F00303013387
:103820005B003B60FA683B68B2FBF3F3BB6002E00D
:10383000054BBB6000BFBB6818461037BD46BDE8EE
:10384000B08300BF003802400024F40000127A0068
:1038500080B582B000AF78607B68002B01D1012376
:1038600041E07B6893F83D30DBB2002B06D17B68EA
:10387000002283F83C207868FEF76EFE7B68022207
:1038800083F83D207B681A687B680433194610462C
:1038900000F018FD7B68012283F846207B68012236
:1038A00083F83E207B68012283F83F207B68012259
:1038B00083F840207B68012283F841207B68012245
:1038C00083F842207B68012283F843207B68012231
:1038D00083F844207B68012283F845207B6801221D
:1038E00083F83D20002318460837BD4680BD000000
:1038F00080B485B000AF78607B6893F83D30DBB270
:10390000012B01D001234EE07B68022283F83D2089
:103910007B681B68DA687B681B6842F00102DA602A
:103920007B681B68234A934222D07B681B68B3F1F3
:10393000804F1DD07B681B681F4A934218D07B685C
:103940001B681E4A934213D07B681B681C4A934233
:103950000ED07B681B681B4A934209D07B681B68AA
:10396000194A934204D07B681B68184A934211D1CC
:103970007B681B689B6803F00703FB60FB68062BF2
:1039800010D07B681B681A687B681B6842F00102D4
:103990001A6007E07B681B681A687B681B6842F046
:1039A00001021A60002318461437BD465DF8047BF7
:1039B000704700BF000001400004004000080040C4
:1039C000000C00400004014000400140001800408D
:1039D00080B483B000AF78607B681B68DA687B686E
:1039E0001B6822F00102DA607B681B681A6A41F2E8
:1039F00011131340002B0FD17B681B681A6A40F229
:103A000044431340002B07D17B681B681A687B680E
:103A10001B6822F001021A607B68012283F83D20B6
:103A2000002318460C37BD465DF8047B704780B50F
:103A300082B000AF78607B68002B01D1012341E0A8
:103A40007B6893F83D30DBB2002B06D17B68002207
:103A500083F83C20786800F039F87B68022283F80C
:103A60003D207B681A687B6804331946104600F0D5
:103A700029FC7B68012283F846207B68012283F8B9
:103A80003E207B68012283F83F207B68012283F877
:103A900040207B68012283F841207B68012283F863
:103AA00042207B68012283F843207B68012283F84F
:103AB00044207B68012283F845207B68012283F83B
:103AC0003D20002318460837BD4680BD80B483B032
:103AD00000AF786000BF0C37BD465DF8047B7047CF
:103AE00080B584B000AF786039603B68002B09D1A5
:103AF0007B6893F83E30DBB2012B14BF0123002317
:103B0000DBB222E03B68042B09D17B6893F83F309D
:103B1000DBB2012B14BF01230023DBB215E03B68AD
:103B2000082B09D17B6893F84030DBB2012B14BF1E
:103B300001230023DBB208E07B6893F84130DBB25D
:103B4000012B14BF01230023DBB2002B01D0012382
:103B50007CE03B68002B04D17B68022283F83E2086
:103B600013E03B68042B04D17B68022283F83F20DA
:103B70000BE03B68082B04D17B68022283F84020CD
:103B800003E07B68022283F841207B681B680122E6
:103B90003968184600F080FE7B681B682D4A934206
:103BA00004D07B681B682C4A934201D1012300E0BA
:103BB0000023002B07D07B681B685A6C7B681B684E
:103BC00042F400425A647B681B68224A934222D026
:103BD0007B681B68B3F1804F1DD07B681B681F4A50
:103BE000934218D07B681B681D4A934213D07B68B0
:103BF0001B681C4A93420ED07B681B68164A93428E
:103C000009D07B681B68184A934204D07B681B6804
:103C1000164A934211D17B681B689B6803F0070327
:103C2000FB60FB68062B10D07B681B681A687B68FA
:103C30001B6842F001021A6007E07B681B681A6883
:103C40007B681B6842F001021A6000231846103797
:103C5000BD4680BD0000014000040140000400405A
:103C600000080040000C00400040014000180040E7
:103C700080B582B000AF786039607B681B68002235
:103C80003968184600F008FE7B681B682E4A93428C
:103C900004D07B681B682D4A934201D1012300E0C8
:103CA0000023002B17D07B681B681A6A41F211139E
:103CB0001340002B0FD17B681B681A6A40F2444303
:103CC0001340002B07D17B681B685A6C7B681B680C
:103CD00022F400425A647B681B681A6A41F211138D
:103CE0001340002B0FD17B681B681A6A40F24443D3
:103CF0001340002B07D17B681B681A687B681B6820
:103D000022F001021A603B68002B04D17B6801227B
:103D100083F83E2013E03B68042B04D17B6801222A
:103D200083F83F200BE03B68082B04D17B6801221D
:103D300083F8402003E07B68012283F841200023C0
:103D400018460837BD4680BD000001400004014010
:103D500080B582B000AF78607B681B681B6903F098
:103D60000203022B22D17B681B68DB6803F002038D
:103D7000022B1BD17B681B686FF002021A617B6803
:103D800001221A777B681B689B6903F00303002BF1
:103D900003D0786800F077FA05E0786800F069FAF7
:103DA000786800F07AFA7B6800221A777B681B68D3
:103DB0001B6903F00403042B22D17B681B68DB68BA
:103DC00003F00403042B1BD17B681B686FF0040213
:103DD0001A617B6802221A777B681B689B6903F46F
:103DE0004073002B03D0786800F04DFA05E0786846
:103DF00000F03FFA786800F050FA7B6800221A77EA
:103E00007B681B681B6903F00803082B22D17B68C1
:103E10001B68DB6803F00803082B1BD17B681B6859
:103E20006FF008021A617B6804221A777B681B68AE
:103E3000DB6903F00303002B03D0786800F023FA5A
:103E400005E0786800F015FA786800F026FA7B68DB
:103E500000221A777B681B681B6903F01003102B84
:103E600022D17B681B68DB6803F01003102B1BD189
:103E70007B681B686FF010021A617B6808221A7752
:103E80007B681B68DB6903F44073002B03D0786800
:103E900000F0F9F905E0786800F0EBF9786800F0D7
:103EA000FCF97B6800221A777B681B681B6903F0AA
:103EB0000103012B0ED17B681B68DB6803F0010353
:103EC000012B07D17B681B686FF001021A617868CB
:103ED000FEF73CF87B681B681B6903F08003802BAE
:103EE0000ED17B681B68DB6803F08003802B07D151
:103EF0007B681B686FF080021A61786800F078FDBB
:103F00007B681B681B6903F04003402B0ED17B6864
:103F10001B68DB6803F04003402B07D17B681B68FC
:103F20006FF040021A61786800F0C1F97B681B6885
:103F30001B6903F02003202B0ED17B681B68DB6814
:103F400003F02003202B07D17B681B686FF0200251
:103F50001A61786800F042FD00BF0837BD4680BD99
:103F600080B586B000AFF860B9607A600023FB7559
:103F7000FB6893F83C30012B01D10223AEE0FB68D3
:103F8000012283F83C207B680C2B00F29F8001A269
:103F900052F823F0C93F0008CD400008CD4000088A
:103FA000CD40000809400008CD400008CD40000881
:103FB000CD4000084B400008CD400008CD4000082F
:103FC000CD4000088B400008FB681B68B9681846A4
:103FD00000F018FAFB681B689A69FB681B6842F0DE
:103FE00008029A61FB681B689A69FB681B6822F0EB
:103FF00004029A61FB681B689969BB681A69FB68CF
:104000001B680A439A6164E0FB681B68B96818463C
:1040100000F068FAFB681B689A69FB681B6842F449
:1040200000629A61FB681B689A69FB681B6822F44E
:1040300080629A61FB681B689969BB681B691A02F8
:10404000FB681B680A439A6143E0FB681B68B96818
:10405000184600F0BDFAFB681B68DA69FB681B684C
:1040600042F00802DA61FB681B68DA69FB681B68CA
:1040700022F00402DA61FB681B68D969BB681A691F
:10408000FB681B680A43DA6123E0FB681B68B968B8
:10409000184600F011FBFB681B68DA69FB681B68B7
:1040A00042F40062DA61FB681B68DA69FB681B682E
:1040B00022F48062DA61FB681B68D969BB681B69FE
:1040C0001A02FB681B680A43DA6102E00123FB75F0
:1040D00000BFFB68002283F83C20FB7D18461837A0
:1040E000BD4680BD80B584B000AF786039600023E4
:1040F000FB737B6893F83C30012B01D10223B4E0C1
:104100007B68012283F83C207B68022283F83D20F3
:104110007B681B689B68BB60BB6823F07703BB6050
:10412000BB6823F47F43BB607B681B68BA689A60F6
:104130003B681B68B3F5005F3ED0B3F5005F00F24B
:104140008780B3F5805F00F08680B3F5805F7FD80D
:10415000702B1AD0702B7BD8602B50D0602B77D867
:10416000502B3CD0502B73D8402B58D0402B6FD8BD
:10417000302B64D0302B6BD8202B60D0202B67D80D
:10418000002B5CD0102B5AD062E07B6818683B682B
:1041900099683B685A683B68DB6800F05DFB7B68A8
:1041A0001B689B68BB60BB6843F07703BB607B68A0
:1041B0001B68BA689A604FE07B6818683B6899682A
:1041C0003B685A683B68DB6800F046FB7B681B680D
:1041D0009A687B681B6842F480429A603CE07B6886
:1041E00018683B6859683B68DB681A4600F0BAFA01
:1041F0007B681B685021184600F013FB2CE07B689D
:1042000018683B6859683B68DB681A4600F0D9FAC1
:104210007B681B686021184600F003FB1CE07B688C
:1042200018683B6859683B68DB681A4600F09AFAE0
:104230007B681B684021184600F0F3FA0CE07B68AD
:104240001A683B681B681946104600F0EAFA03E05A
:104250000123FB7300E000BF7B68012283F83D204F
:104260007B68002283F83C20FB7B18461037BD4654
:1042700080BD80B483B000AF786000BF0C37BD460E
:104280005DF8047B704780B483B000AF786000BFF6
:104290000C37BD465DF8047B704780B483B000AF37
:1042A000786000BF0C37BD465DF8047B704780B472
:1042B00083B000AF786000BF0C37BD465DF8047B6B
:1042C0007047000080B485B000AF786039607B68CB
:1042D0001B68FB607B68404A934213D07B68B3F154
:1042E000804F0FD07B683D4A93420BD07B683C4A9D
:1042F000934207D07B683B4A934203D07B683A4A9B
:10430000934208D1FB6823F07003FB603B685B6855
:10431000FA681343FB607B682F4A93422BD07B687B
:10432000B3F1804F27D07B682C4A934223D07B681F
:104330002B4A93421FD07B682A4A93421BD07B684A
:10434000294A934217D07B68284A934213D07B684E
:10435000274A93420FD07B68264A93420BD07B6852
:10436000254A934207D07B68244A934203D07B6856
:10437000234A934208D1FB6823F44073FB603B68F7
:10438000DB68FA681343FB60FB6823F080023B683C
:104390005B691343FB607B68FA681A603B689A6844
:1043A0007B68DA623B681A687B689A627B680A4AB3
:1043B000934203D07B680C4A934203D13B681A694D
:1043C0007B681A637B6801225A6100BF1437BD46BF
:1043D0005DF8047B704700BF00000140000400400E
:1043E00000080040000C0040000401400040014073
:1043F000004401400048014000180040001C0040FB
:104400000020004080B487B000AF786039607B68DE
:104410001B6A23F001027B681A627B681B6A7B615E
:104420007B685B683B617B689B69FB60FB6823F092
:104430007003FB60FB6823F00303FB603B681B68B1
:10444000FA681343FB607B6923F002037B613B68DE
:104450009B687A6913437B617B68204A934203D04F
:104460007B681F4A93420CD17B6923F008037B6170
:104470003B68DB687A6913437B617B6923F0040343
:104480007B617B68154A934203D07B68144A934250
:1044900011D13B6923F480733B613B6923F40073C2
:1044A0003B613B685B693A6913433B613B689B69CD
:1044B0003A6913433B617B683A695A607B68FA68E2
:1044C0009A613B685A687B685A637B687A691A62AA
:1044D00000BF1C37BD465DF8047B704700000140FB
:1044E0000004014080B487B000AF786039607B6819
:1044F0001B6A23F010027B681A627B681B6A7B616F
:104500007B685B683B617B689B69FB60FB6823F4AD
:10451000E043FB60FB6823F44073FB603B681B686F
:104520001B02FA681343FB607B6923F020037B6165
:104530003B689B681B017A6913437B617B68224A55
:10454000934203D07B68214A93420DD17B6923F0CB
:1045500080037B613B68DB681B017A6913437B61E5
:104560007B6923F040037B617B68174A934203D049
:104570007B68164A934213D13B6923F480633B6105
:104580003B6923F400633B613B685B699B003A69CC
:1045900013433B613B689B699B003A6913433B6152
:1045A0007B683A695A607B68FA689A613B685A6826
:1045B0007B689A637B687A691A6200BF1C37BD46C4
:1045C0005DF8047B704700BF00000140000401401B
:1045D00080B487B000AF786039607B681B6A23F4D1
:1045E00080727B681A627B681B6A7B617B685B6890
:1045F0003B617B68DB69FB60FB6823F07003FB6059
:10460000FB6823F00303FB603B681B68FA681343F5
:10461000FB607B6923F400737B613B689B681B0232
:104620007A6913437B617B68214A934203D07B689C
:10463000204A93420DD17B6923F400637B613B6880
:10464000DB681B027A6913437B617B6923F4806317
:104650007B617B68164A934203D07B68154A93427C
:1046600013D13B6923F480533B613B6923F400532E
:104670003B613B685B691B013A6913433B613B68E3
:104680009B691B013A6913433B617B683A695A6035
:104690007B68FA68DA613B685A687B68DA637B6832
:1046A0007A691A6200BF1C37BD465DF8047B70470B
:1046B000000001400004014080B487B000AF786082
:1046C00039607B681B6A23F480527B681A627B68BE
:1046D0001B6A3B617B685B687B617B68DB69FB60B5
:1046E000FB6823F4E043FB60FB6823F44073FB604A
:1046F0003B681B681B02FA681343FB603B6923F4A9
:1047000000533B613B689B681B033A6913433B6161
:104710007B68124A934203D07B68114A934209D1C5
:104720007B6923F480437B613B685B699B017A6909
:1047300013437B617B687A695A607B68FA68DA6147
:104740003B685A687B681A647B683A691A6200BFE2
:104750001C37BD465DF8047B704700BF0000014078
:104760000004014080B487B000AFF860B9607A609F
:10477000FB681B6A7B61FB681B6A23F00102FB6814
:104780001A62FB689B693B613B6923F0F0033B6164
:104790007B681B013A6913433B617B6923F00A0381
:1047A0007B617A69BB6813437B61FB683A699A61F4
:1047B000FB687A691A6200BF1C37BD465DF8047B4E
:1047C000704780B487B000AFF860B9607A60FB686A
:1047D0001B6A23F01002FB681A62FB689B697B610D
:1047E000FB681B6A3B617B6923F470437B617B68D8
:1047F0001B037A6913437B613B6923F0A0033B6190
:10480000BB681B013A6913433B61FB687A699A6193
:10481000FB683A691A6200BF1C37BD465DF8047B2D
:10482000704780B485B000AF786039607B689B6862
:10483000FB60FB6823F07003FB603A68FB6813437E
:1048400043F00703FB607B68FA689A6000BF143787
:10485000BD465DF8047B704780B487B000AFF86058
:10486000B9607A603B60FB689B687B617B6923F47D
:104870007F437B613B681A027B681A43BB68134322
:104880007A6913437B61FB687A699A6000BF1C37C1
:10489000BD465DF8047B704780B487B000AFF86018
:1048A000B9607A60BB6803F01F03012202FA03F3C8
:1048B0007B61FB681A6A7B69DB431A40FB681A62FA
:1048C000FB681A6ABB6803F01F03796801FA03F3F7
:1048D0001A43FB681A6200BF1C37BD465DF8047BB3
:1048E0007047000080B485B000AF786039607B68A5
:1048F00093F83C30012B01D102235AE07B6801225E
:1049000083F83C207B68022283F83D207B681B688B
:104910005B68FB607B681B689B68BB60FB6823F07F
:104920007003FB603B681B68FA681343FB607B689D
:104930001B68FA685A607B681B68214A934222D040
:104940007B681B68B3F1804F1DD07B681B681D4AD4
:10495000934218D07B681B681B4A934213D07B6834
:104960001B681A4A93420ED07B681B68184A934210
:1049700009D07B681B68174A934204D07B681B6888
:10498000154A93420CD1BB6823F08003BB603B689F
:104990005B68BA681343BB607B681B68BA689A603F
:1049A0007B68012283F83D207B68002283F83C204D
:1049B000002318461437BD465DF8047B704700BFDE
:1049C000000001400004004000080040000C0040CE
:1049D00000040140004001400018004080B483B052
:1049E00000AF786000BF0C37BD465DF8047B7047B0
:1049F00080B483B000AF786000BF0C37BD465DF86F
:104A0000047B7047014B1868704700BF3C020020D0
:104A100070B50D4D0D4C641BA4100026A64209D1A3
:104A20000B4D0C4C02F0F2FC641BA4100026A642B5
:104A300005D170BD55F8043B98470136EEE755F8AF
:104A4000043B98470136F2E74C7800084C780008A0
:104A50004C7800085078000802440346934200D185
:104A6000704703F8011BF9E72DE9FF4755EC104BA0
:104A7000002D0E4619462B46BBBF05F100431D46CF
:104A800000232D230B700D9BDDF830A0914623F001
:104A90002008BCBF22461446B8F1460F05D0B8F135
:104AA000450F00D10136022100E0032103AB019341
:104AB00002AB009345EC104B5346324600F0CCFC61
:104AC000B8F1470F074602D119F0010F22D0B8F113
:104AD000460F07EB060910D13B78302B0AD1002294
:104AE000002320462946FBF7EFFF18B9C6F101065F
:104AF000CAF80060DAF8003099440022002320460A
:104B00002946FBF7E1FF08B1CDF80C903022039B5A
:104B10004B4507D3039B0E9ADB1B3846136004B04A
:104B2000BDE8F087591C03911A70F0E7F7B503460A
:104B30000029B8BF494203F8022BB4BF2D222B2213
:104B4000092942702ADD0DF10704A4460A27A6466A
:104B50000A4691FBF7F607FB16153035632A04F178
:104B6000FF340EF8015C3146F1DC3031AEF1020564
:104B700004F8011C441C294661450AD30DF10902C1
:104B8000A2EB0E02654588BF00221344181A03B039
:104B9000F0BD11F8012B04F8012FEDE7302330317F
:104BA0008370C170031DF1E72DE9F04F2DED028BED
:104BB0008DB00C46DDF8608016461F46054601F0B4
:104BC00037FAD0F800A05046FBF702FB00230A9307
:104BD00023680593D8F8003094F818B0073323F011
:104BE000070303F10802C8F80020D3E90023C4E951
:104BF0001223D4E9128929F000430793CDF81880D5
:104C000008EE100A9F4BDDE906014FF0FF32FBF77B
:104C10008DFF88BBDDE906019A4B4FF0FF32FBF7B1
:104C200067FF48BB0022002340464946FBF756FF7A
:104C300010B12D2384F84330934B9448BBF1470FB8
:104C400094BF9846804603232361059B23F004020A
:104C500022604FF00009009733460BAA21462846F0
:104C600000F0D8F9013040F090804FF0FF300DB0E7
:104C7000BDEC028BBDE8F08F42464B4640464946AC
:104C8000FBF754FF40B14B46002BBCBF2D2384F8EB
:104C900043307F487F4BD1E763680BF0DF02069219
:104CA0005A1C3FD106236360059B616843F4806210
:104CB000002303930AABCDE901B309AB49EC108B98
:104CC000009322600DF123032846FFF7CDFE069BDB
:104CD0000999472B804608D1C81C02DB63689942BA
:104CE00041DDABF1020B5FFA8BFBBBF1650F20D806
:104CF00001395A4604F150000991FFF717FF0A9A4B
:104D00001318012A8146236102DC2268D20701D5EB
:104D1000013323619DF82330002B9CD02D2384F890
:104D2000433098E7069A472ABED1002BBCD1012315
:104D3000B9E7BBF1660F18D1002963680BDD21616B
:104D400013B92268D00702D501330B442361A16552
:104D50004FF00009DEE713B92268D20701D502330C
:104D6000F4E70123F2E74FF0670B0A9B994205DB5A
:104D700023682161D807EAD54B1CE7E70029D4BF97
:104D8000C1F1020201221344E0E723685A0507D467
:104D90002369424631462846B84701302CD164E7A2
:104DA000BBF1650F40F2E080D4E91201002200233C
:104DB000FBF78AFE002834D0374A012331462846C3
:104DC000B84701303FF451AFDDE909239A4202DBD5
:104DD0002368D80710D518EE103A524631462846B7
:104DE000B84701303FF441AF4FF0000804F11A0911
:104DF0000A9B013B434509DC23689B0700F10581C1
:104E0000E0680B9B9842B8BF184630E701234A463A
:104E100031462846B84701303FF427AF08F1010872
:104E2000E6E7099B002B39DC1B4A01233146284663
:104E3000B84701303FF419AFDDE90923134302D12C
:104E40002368D907D8D518EE103A5246314628467D
:104E5000B84701303FF409AF4FF0000904F11A0AD6
:104E6000099B5B424B4501DC0A9B92E701235246BA
:104E700031462846B84701303FF4F7AE09F1010941
:104E8000EEE700BFFFFFEF7F64740008687400085E
:104E9000707400086C740008747400080A9AA36D9A
:104EA0009A42A8BF1A46002A914637DC4FF0000B01
:104EB00029EAE97904F11A02A36D0593A3EB09032A
:104EC0005B4533DCDDE909239A423BDB2368DA07E3
:104ED00038D40A9A059B0999D31AA2EB010999457E
:104EE000A8BF9946B9F1000F35DC4FF0000829EA58
:104EF000E97904F11A0ADDE909239B1AA3EB0903F6
:104F000043457FF779AF0123524631462846B847DB
:104F100001303FF4AAAE08F10108ECE71346314630
:104F200042462846B8470130C0D19EE601233146AB
:104F300028460592B84701303FF497AE059A0BF129
:104F4000010BB9E718EE103A524631462846B847E9
:104F50000130BED189E6059A4B4642443146284687
:104F6000B8470130C1D180E60A9A012A01DCDB078B
:104F700038D50123424631462846B84701303FF430
:104F800074AE18EE103A524631462846B847013002
:104F90003FF46BAED4E9120100220023FBF794FD2D
:104FA000D8B90A9B08F10102013B31462846B847AF
:104FB00001300ED159E60123524631462846B84702
:104FC00001303FF452AE08F101080A9B013B434512
:104FD000F1DC4B4604F15002DCE64FF0000804F12E
:104FE0001A0AF2E701234246DFE701234A46314627
:104FF0002846B84701303FF438AE08F10108E368AD
:105000000B995B1A4345F0DCFAE64FF0000804F117
:105010001909F4E72DE9F047164699468A680B69A5
:10502000DDF820809342B8BF1346336091F84320E7
:1050300007460C460AB1013333602368990642BF24
:10504000336802333360256815F0060506D104F194
:10505000190AE36832689B1AAB4226DC94F84320B5
:10506000131E226818BF012392062BD404F14302B9
:1050700049463846C04701301ED02368E56832688B
:1050800003F00603042B08BFAD1AA36822690CBF06
:1050900025EAE57500259342C4BF9B1AED1800264A
:1050A0001A34B5421AD1002008E00123524649467D
:1050B0003846C047013003D14FF0FF30BDE8F087DC
:1050C0000135C6E7E1185A1C302081F8430022441C
:1050D00094F8451082F843100233C7E701232246B3
:1050E00049463846C0470130E6D00136D9E70000CE
:1050F0002DE9FF470C469146277E0C99782F804674
:105100009A4604F1430207D8622F0AD8002F00F014
:10511000D880582F00F0A38004F1420684F8427032
:105120003AE0A7F16303152BF6D801A050F823F05D
:10513000895100089D5100081951000819510008B3
:1051400019510008195100089D5100081951000813
:10515000195100081951000819510008A9520008F6
:10516000CD5100088B520008195100081951000850
:10517000CB52000819510008CD5100081951000800
:1051800019510008935200080B681A1D1B680A6029
:1051900004F1420684F842300123A3E02568086840
:1051A0002E0600F104030AD505680B60002D03DA12
:1051B0002D236D4284F843305E480A2319E015F030
:1051C000400F05680B6018BF2DB2EFE70B6825682C
:1051D000181D0860280601D51D6802E06906FBD588
:1051E0001D8854486F2F0CBF08230A23002184F820
:1051F00043106668A660002EA2BF216821F004015A
:1052000021600DB9002E4DD01646B5FBF3F103FB1E
:105210001157C75D06F8017D2F46BB420D46F4D9F4
:10522000082B0BD12368DF0708D5236961689942F1
:10523000DEBF302306F8013C06F1FF36921B2261E7
:10524000CDF800A04B4603AA21464046FFF7E2FEF8
:1052500001304CD14FF0FF3004B0BDE8F087354845
:1052600084F8457023680E681F0656F8045B0E60CC
:1052700014D5D90744BF43F0200323601DB9236828
:1052800023F0200323601023B0E7236843F02003BA
:1052900023607823284884F84530E3E75E0648BF5A
:1052A000ADB2E6E71646BBE70B68266860691D1DD0
:1052B0000D6035061B6801D5186002E07106FBD54C
:1052C0001880002323611646BAE70B681A1D0A608E
:1052D0001E68626800213046FAF782FF08B1801B21
:1052E000606063682361002384F84330A8E7236982
:1052F000324649464046D0470130ABD023689B0731
:1053000013D4E068039B9842B8BF1846A4E7012372
:10531000324649464046D04701309BD00135E368CC
:1053200003995B1AAB42F2DCEBE7002504F11906A6
:10533000F5E700BF76740008877400082DE9F74F81
:1053400003690C69A3420746C0F28180013C01F168
:10535000140800F1140505EB8403019358F8243078
:1053600055F8242001339A424FEA840B08EB840954
:10537000B2FBF3F631D34FF0000E4046AC46F24696
:1053800050F8042B93B206FB03E34FEA134E9BB293
:10539000AAEB0303120CDCF800A006FB02E213FAEE
:1053A0008AF34FEA124E1FFA82FADCF80020CAEBA9
:1053B000124202EB23429BB243EA024381454CF87E
:1053C000043B4FEA224ADBD255F80B302BB9019B44
:1053D000043B9D421A462ED33C61384601F0C0F88A
:1053E000002824DB013628464FF0000C58F8042B27
:1053F000D0F800E093B2ACEB0303120C13FA8EF377
:10540000C2EB1E4202EB23429BB243EA0243C14578
:1054100040F8043B4FEA224CE8D255F8242005EB33
:10542000840322B9043B9D421A460AD33C613046AC
:1054300003B0BDE8F08F1268043B002ACCD1013CD8
:10544000C7E71268043B002AF0D1013CEBE70020DB
:10545000EEE70000000000002DE9F04F2DED028B7B
:1054600057EC106B95B0456ADDF880800591CDE969
:105470000267044609920F9375B9102000F0DCFD15
:105480000246606220B9B24BEA21B24801F032FA1A
:10549000C0E901550560C560636A196851B15A6871
:1054A0004A60012393408B60204600F01BFE636A34
:1054B00000221A603B1EB9BF23F000430393002370
:1054C000C8F80030DDF80C90A34BBCBF0122C8F82F
:1054D000002033EA09031BD10F9A42F20F731360C5
:1054E000C9F31303334300F07A85219B63B99B4BC7
:1054F00024E09B4B00930833219A1360009815B069
:10550000BDEC028BBDE8F08F944B00930333F3E7BF
:105510009DED027B002251EC170B00238DED0A7BE1
:10552000FBF7D2FA804658B10F9A01231360219BF2
:10553000002B00F051858B481860431E0093DDE777
:105540009DED0A0B12AA13A9204601F0ADF8C9F38C
:105550000A558346002D7CD00B9BCDF84080C3F3C9
:105560001303DDE90A6743F07F5747F44017A5F2BC
:10557000FF357D4B002230463946FAF785FE6EA393
:10558000D3E90023FBF738F86DA3D3E90023FAF73A
:105590007DFE064628460F46FAF7C4FF6AA3D3E904
:1055A0000023FBF729F802460B4630463946FAF746
:1055B0006DFE06460F46FBF7CFFA00228246002317
:1055C00030463946FBF78AFA48B15046FAF7AAFF47
:1055D00032463B46FBF778FA08B90AF1FF3ABAF1CE
:1055E000160F54D8614B03EBCA03D3E90023DDE95E
:1055F0000A01FBF773FA00284BD00AF1FF3A0023A7
:105600000E93129B5D1B6B1E049343BF0023C5F1D9
:10561000010804934FF00008BAF1000F3BDB049B34
:10562000CDF834A05344049300230693059B092B23
:1056300069D8052BC4BF043B0593059BA3F1020366
:10564000CCBF00250125032B69D8DFE803F02C4EE1
:105650004C5ADDE912531D4405F23243202BC1BFE1
:10566000C3F1400305F2124009FA03F326FA00F0F1
:10567000DABFC3F1200306FA03F01843FAF742FF3A
:1056800001230646A1F1F877013D109371E701234C
:10569000B6E70E90B5E7CAF1000306930023A8EB26
:1056A0000A080D93C2E700230893099B002B39DCFD
:1056B0004FF00109CDF804904B46CDF82490606A74
:1056C00000224260042202F114069E4241682FD952
:1056D000204600F0C7FC009000284BD1244B024626
:1056E0004FF4D571D1E60123DEE700230893099B2F
:1056F0000AEB030909F10103012B0193B8BF012350
:10570000DDE70123F2E701250023059308954FF01B
:10571000FF390022CDF8049012230992CFE701232C
:105720000893F4E7DDF82490CDF804904B46C6E7E3
:10573000013141605200C6E761436F63A787D23FE2
:10574000B3C8608B288AC63FFB799F501344D33F70
:10575000A5740008BC7400080000F07FA174000864
:1057600098740008757400080000F83FB8750008C8
:105770001B750008636A009A1A60019B0E2B00F2E9
:10578000AD80002D00F0AA80BAF1000F36DDC34ACB
:105790000AF00F0302EBC30393ED007B1AF4807F42
:1057A0004FEA2A17B0EE478AF0EE678A16D0BC4B54
:1057B000DDE90A01D3E90823FBF748F8CDE9020146
:1057C00007F00F070325B64E57B9DDE9020153EC88
:1057D000182BFBF73BF8CDE9020129E00225F2E79F
:1057E000F90708D551EC180BD6E90023FAF704FFA6
:1057F00041EC180B01357F100836E5E700F0A68074
:10580000CAF10006A54BA64F06F00F0203EBC20338
:10581000D3E90023DDE90A01FAF7EEFECDE9020142
:10582000361100230225002E40F08580002BD2D1B6
:105830000E9B002B00F08C80DDE90267994B002263
:1058400030463946FBF74AF9002800F08180019B79
:10585000002B7DD0B9F1000F3CDD0AF1FF33079337
:105860000022914B30463946FAF7C6FECDE90201D7
:105870000135CDF83090DDE902672846FAF752FE8F
:1058800032463B46FAF7B8FE884B0022FAF7FEFC98
:10589000A1F15073CDE9020103930C9B002B5CD165
:1058A000834B002230463946FAF7EEFCDDE902234D
:1058B00006460F46FBF730F9002840F09682DDE9F6
:1058C0000221304601F100433946FBF707F9002871
:1058D00040F08882DDE90A23CDE90223139B002BE7
:1058E000C0F25881BAF10E0F00F354816B4B03EBF9
:1058F000CA03D3E90089099B002B80F2E380019B56
:10590000002B00F3DF8040F06D82694B002240469F
:105910004946FAF771FEDDE90223FBF7F3F8019E31
:105920003746002840F04382009D312305F8013BB3
:105930000AF1010A3FE2F20705D5D7E90023FAF799
:105940005BFE01350123761008376CE702256FE70F
:10595000019BCDF81CA00C938DE700990C980C9A34
:105960004E4B9DED027B014402910899B0EE478AAF
:10597000F0EE678A03EBC20353E90223002945D006
:105980004C490020FAF762FF53EC182BFAF77CFC25
:10599000009D41EC180B39463046FBF7DDF80C90C2
:1059A000FAF7C0FD02460B4630463946FAF76CFC62
:1059B0000C9B303305F8013B53EC182B06460F4681
:1059C000FBF78CF8002865D132463B46354900206C
:1059D000FAF75AFC53EC182BFBF780F8002840F03C
:1059E000B980029B9D423FF475AF2F4B51EC180BD1
:1059F0000022FAF701FE2C4B41EC180B0022304636
:105A00003946FAF7F9FD06460F46C4E751EC170B85
:105A1000FAF7F2FD029B009D0C9341EC180B3946FE
:105A20003046FBF799F81190FAF77CFD02460B46D9
:105A300030463946FAF728FC119B303305F8013B14
:105A4000029B9D4206460F464FF0000234D1194B8F
:105A500051EC180BFAF71AFC02460B463046394651
:105A6000FBF75AF8002875D153EC182B1149002088
:105A7000FAF70AFC02460B4630463946FBF72EF889
:105A800000283FF427AF0C9D6B1E0C9315F8013CCA
:105A9000302BF8D0DDF81CA04AE000BFB875000834
:105AA000907500080000F03F0000244000001C40FA
:105AB000000014400000E03FAF4BFAF79DFD0646A2
:105AC0000F46ACE7DDE90267009D42464B46304693
:105AD0003946FAF7BBFEFBF73FF80290FAF722FDD2
