:020000040800F2
:1000000000000220112E0008F52C0008032D000826
:10001000092D00080F2D0008152D00080000000014
:100020000000000000000000000000001B2D000880
:10003000292D000800000000372D0008452D00087C
:10004000612E0008612E0008612E0008612E000854
:10005000612E0008612E0008612E0008612E000844
:10006000612E0008612E0008612E0008612E000834
:10007000612E0008612E0008612E0008512D000835
:10008000612E0008612E0008612E0008612E000814
:10009000612E0008612E0008612E0008612E000804
:1000A000612E0008612E0008612E0008612E0008F4
:1000B000612E0008612E0008612E0008612E0008E4
:1000C000612E0008612E0008612E0008612E0008D4
:1000D000652D0008612E0008612E0008612E0008C1
:1000E000612E0008612E0008612E0008612E0008B4
:1000F000612E0008612E0008612E0008612E0008A4
:10010000612E0008612E0008612E0008612E000893
:10011000612E0008612E0008612E0008792D00086C
:10012000612E0008612E0008612E0008612E000873
:10013000612E0008612E0008612E0008612E000863
:10014000612E0008612E0008612E0008612E000853
:10015000612E0008612E0008612E0008612E000843
:10016000612E0008612E0008612E0008612E000833
:10017000612E0008612E0008612E000800000000BA
:08018000612E0008612E000849
:1001900010B5054C237833B9044B13B10448AFF3C1
:1001A00000800123237010BD6403002000000000C4
:1001B000B07A000808B5034B1BB103490348AFF3FD
:1001C000008008BD0000000068030020B07A00082D
:1001D000034613F8012B002AFBD1181A0138704787
:1001E00001F0FF01102A2BDB10F0070F08D010F8E8
:1001F000013B013A8B422DD010F0070F42B3F6D1EC
:10020000F0B441EA012141EA014122F007047FF004
:1002100000070023F0E80256083C85EA010586EA5B
:10022000010685FA47F5A3FA87F586FA47F6A5FA97
:1002300087F68EB9EED1F0BC01F0FF0102F00702A3
:1002400032B110F8013B013A83EA010313B1F8D14E
:100250000020704701387047002D06BF354603382F
:10026000073815F0010F07D1013015F4807F02BF68
:10027000013015F4C03F0130F0BC0138704700BFB9
:1002800081F0004102E000BF83F0004330B54FEA47
:1002900041044FEA430594EA050F08BF90EA020FB4
:1002A0001FBF54EA000C55EA020C7FEA645C7FEA47
:1002B000655C00F0E2804FEA5454D4EB5555B8BF6A
:1002C0006D420CDD2C4480EA020281EA030382EADB
:1002D000000083EA010180EA020281EA0303362D6D
:1002E00088BF30BD11F0004F4FEA01314FF4801C40
:1002F0004CEA113102D0404261EB410113F0004F52
:100300004FEA03334CEA133302D0524263EB430308
:1003100094EA050F00F0A780A4F10104D5F1200EA6
:100320000DDB02FA0EFC22FA05F2801841F1000101
:1003300003FA0EF2801843FA05F359410EE0A5F1D5
:1003400020050EF1200E012A03FA0EFC28BF4CF006
:10035000020C43FA05F3C01851EBE37101F00045BC
:1003600007D54FF0000EDCF1000C7EEB00006EEBC9
:100370000101B1F5801F1BD3B1F5001F0CD3490853
:100380005FEA30004FEA3C0C04F101044FEA4452AA
:1003900012F5800F80F09A80BCF1004F08BF5FEA31
:1003A000500C50F1000041EB045141EA050130BD11
:1003B0005FEA4C0C404141EB010111F4801FA4F1B4
:1003C0000104E9D191F0000F04BF01460020B1FA09
:1003D00081F308BF2033A3F10B03B3F120020CDA41
:1003E0000C3208DD02F1140CC2F10C0201FA0CF01F
:1003F00021FA02F10CE002F11402D8BFC2F1200C84
:1004000001FA02F120FA0CFCDCBF41EA0C01904039
:10041000E41AA2BF01EB0451294330BD6FEA040482
:100420001F3C1CDA0C340EDC04F11404C4F120026D
:1004300020FA04F001FA02F340EA030021FA04F37F
:1004400045EA030130BDC4F10C04C4F1200220FAD6
:1004500002F001FA04F340EA0300294630BD21FA14
:1004600004F0294630BD94F0000F83F4801306BFDA
:1004700081F480110134013D4EE77FEA645C18BFCE
:100480007FEA655C29D094EA050F08BF90EA020F65
:1004900005D054EA000C04BF1946104630BD91EA5D
:1004A000030F1EBF0021002030BD5FEA545C05D160
:1004B0004000494128BF41F0004130BD14F580049F
:1004C0003CBF01F5801130BD01F0004545F0FE4113
:1004D00041F470014FF0000030BD7FEA645C1ABF48
:1004E000194610467FEA655C1CBF0B46024650EA7F
:1004F000013406BF52EA033591EA030F41F40021AB
:1005000030BD00BF90F0000F04BF0021704730B530
:100510004FF4806404F132044FF000054FF0000105
:1005200050E700BF90F0000F04BF0021704730B5C6
:100530004FF4806404F1320410F0004548BF40429B
:100540004FF000013EE700BF42004FEAE2014FEAF0
:1005500031014FEA02701FBF12F07F4393F07F4FCB
:1005600081F06051704732F07F4208BF704793F0CE
:100570007F4F04BF41F40021704730B54FF46074E1
:1005800001F0004521F000411CE700BF50EA0102E4
:1005900008BF704730B54FF000050AE050EA01028D
:1005A00008BF704730B511F0004502D5404261EBFD
:1005B00041014FF4806404F132045FEA915C3FF43E
:1005C000D8AE4FF003025FEADC0C18BF03325FEADB
:1005D000DC0C18BF033202EBDC02C2F1200300FA8C
:1005E00003FC20FA02F001FA03FE40EA0E0021FAB1
:1005F00002F11444BDE600BF70B54FF0FF0C4CF49F
:10060000E06C1CEA11541DBF1CEA135594EA0C0F50
:1006100095EA0C0F00F0DEF82C4481EA030621EA8B
:100620004C5123EA4C5350EA013518BF52EA0335C6
:1006300041F4801143F4801338D0A0FB02CE4FF078
:100640000005E1FB02E506F00042E0FB03E54FF0A8
:100650000006E1FB03569CF0000F18BF4EF0010EA0
:10066000A4F1FF04B6F5007F64F5407404D25FEA9C
:100670004E0E6D4146EB060642EAC62141EA55514F
:100680004FEAC52040EA5E504FEACE2EB4F1FD0C91
:1006900088BFBCF5E06F1ED8BEF1004F08BF5FEA0F
:1006A000500E50F1000041EB045170BD06F00046C1
:1006B00046EA010140EA020081EA0301B4EB5C046E
:1006C000C2BFD4EB0C0541EA045170BD41F4801166
:1006D0004FF0000E013C00F3AB8014F1360FDEBF8B
:1006E000002001F0004170BDC4F10004203C35DA67
:1006F0000C341BDC04F11404C4F1200500FA05F3EA
:1007000020FA04F001FA05F240EA020001F000428A
:1007100021F0004110EBD37021FA04F642EB060100
:100720005EEA430E08BF20EAD37070BDC4F10C042A
:10073000C4F1200500FA04F320FA05F001FA04F2EE
:1007400040EA020001F0004110EBD37041F10001DA
:100750005EEA430E08BF20EAD37070BDC4F12005E5
:1007600000FA05F24EEA020E20FA04F301FA05F24D
:1007700043EA020321FA04F001F0004121FA04F2F5
:1007800020EA020000EBD3705EEA430E08BF20EAC5
:10079000D37070BD94F0000F0FD101F000464000FF
:1007A00041EB010111F4801F08BF013CF7D041EA81
:1007B000060195F0000F18BF704703F00046520085
:1007C00043EB030313F4801F08BF013DF7D043EA56
:1007D0000603704794EA0C0F0CEA135518BF95EA0C
:1007E0000C0F0CD050EA410618BF52EA4306D1D193
:1007F00081EA030101F000414FF0000070BD50EAB2
:10080000410606BF1046194652EA430619D094EA3B
:100810000C0F02D150EA013613D195EA0C0F05D125
:1008200052EA03361CBF104619460AD181EA030179
:1008300001F0004141F0FE4141F470014FF0000031
:1008400070BD41F0FE4141F4780170BD70B54FF0CC
:10085000FF0C4CF4E06C1CEA11541DBF1CEA13554C
:1008600094EA0C0F95EA0C0F00F0A7F8A4EB05042E
:1008700081EA030E52EA03354FEA013100F0888025
:100880004FEA03334FF0805545EA131343EA1263EE
:100890004FEA022245EA111545EA10654FEA0026A3
:1008A0000EF000419D4208BF964244F1FD0404F55C
:1008B000407402D25B084FEA3202B61A65EB0305B8
:1008C0005B084FEA32024FF480104FF4002CB6EB75
:1008D000020E75EB030E22BFB61A754640EA0C00F5
:1008E0005B084FEA3202B6EB020E75EB030E22BF35
:1008F000B61A754640EA5C005B084FEA3202B6EB76
:10090000020E75EB030E22BFB61A754640EA9C0034
:100910005B084FEA3202B6EB020E75EB030E22BF04
:10092000B61A754640EADC0055EA060E18D04FEAC2
:10093000051545EA16754FEA06164FEAC30343EA62
:1009400052734FEAC2025FEA1C1CC0D111F4801F2F
:100950000BD141EA00014FF000004FF0004CB6E728
:1009600011F4801F04BF01430020B4F1FD0C88BFC7
:10097000BCF5E06F3FF6AFAEB5EB030C04BFB6EBD2
:10098000020C5FEA500C50F1000041EB045170BDC5
:100990000EF0004E4EEA113114EB5C04C2BFD4EBF2
:1009A0000C0541EA045170BD41F480114FF0000E76
:1009B000013C90E645EA060E8DE60CEA135594EAF2
:1009C0000C0F08BF95EA0C0F3FF43BAF94EA0C0FF5
:1009D0000AD150EA01347FF434AF95EA0C0F7FF46A
:1009E00025AF104619462CE795EA0C0F06D152EABE
:1009F00003353FF4FDAE1046194622E750EA4106A2
:100A000018BF52EA43067FF4C5AE50EA41047FF4B2
:100A10000DAF52EA43057FF4EBAE12E74FF0FF3C17
:100A200006E000BF4FF0010C02E000BF4FF0010CE8
:100A30004DF804CD4FEA410C7FEA6C5C4FEA430C61
:100A400018BF7FEA6C5C1BD001B050EA410C0CBFB0
:100A500052EA430C91EA030F02BF90EA020F002012
:100A6000704710F1000F91EA030F58BF994208BF79
:100A700090422CBFD8176FEAE37040F00100704736
:100A80004FEA410C7FEA6C5C02D150EA013C07D18D
:100A90004FEA430C7FEA6C5CD6D152EA033CD3D0D8
:100AA0005DF8040B704700BF8446104662468C46D2
:100AB0001946634600E000BF01B5FFF7B7FF002805
:100AC00048BF10F1000F01BD4DF808EDFFF7F4FF2E
:100AD0000CBF012000205DF808FB00BF4DF808EDB9
:100AE000FFF7EAFF34BF012000205DF808FB00BFDC
:100AF0004DF808EDFFF7E0FF94BF012000205DF8FE
:100B000008FB00BF4DF808EDFFF7CEFF94BF0120B2
:100B100000205DF808FB00BF4DF808EDFFF7C4FFAB
:100B200034BF012000205DF808FB00BF4FEA410CF4
:100B30007FEA6C5C02D150EA013C0AD14FEA430CD7
:100B40007FEA6C5C02D152EA033C02D14FF0000014
:100B500070474FF0010070474FEA410212F5001252
:100B600015D211D56FF47873B3EB625212D94FEAF4
:100B7000C12343F0004343EA505311F0004F23FADE
:100B800002F018BF404270474FF00000704750EA33
:100B9000013005D111F0004008BF6FF000407047F0
:100BA0004FF00000704700BF53B94AB9002908BF91
:100BB00000281CBF4FF0FF314FF0FF3000F072B93A
:100BC000ADF1080C6DE904CE00F006F8DDF804E0A4
:100BD000DDE9022304B070472DE9F047089E044682
:100BE0008846002B4BD18A42154667D9B2FA82F269
:100BF0004AB1C2F1200701FA02F320FA07F7954043
:100C000047EA030894404FEA154E230CB8FBFEF761
:100C10001FFA85FC0EFB178843EA084307FB0CF11B
:100C2000994209D9EB1807F1FF3080F01B819942F6
:100C300040F21881023F2B445B1AA4B2B3FBFEF0D2
:100C40000EFB103344EA034400FB0CFCA44509D915
:100C50002C1900F1FF3380F00781A44540F2048194
:100C600002382C4440EA0740A4EB0C0400271EB1D4
:100C7000D4400023C6E900433946BDE8F0878B42E3
:100C800009D9002E00F0EB800027C6E900013846A4
:100C90003946BDE8F087B3FA83F7002F47D18B427E
:100CA00002D3824200F2FA80841A61EB030301202E
:100CB0009846002EE0D0C6E90048DDE702B9FFDE25
:100CC000B2FA82F2002A40F08F80491B4FEA154E9B
:100CD0001FFA85F80127B1FBFEFC230C0EFB1C114B
:100CE00043EA014308FB0CF1994207D9EB180CF1D8
:100CF000FF3002D2994200F2CD808446591AA3B245
:100D0000B1FBFEF00EFB101443EA044408FB00F8AC
:100D1000A04507D92C1900F1FF3302D2A04500F2FB
:100D2000B6801846A4EB080440EA0C409FE7C7F1E0
:100D3000200CBB4022FA0CFE4EEA030E01FA07F427
:100D400020FA0CF521FA0CF34FEA1E482543B3FBB9
:100D5000F8F92C0C08FB19331FFA8EFA44EA034306
:100D600009FB0AF49C4202FA07F200FA07F10BD9D8
:100D70001EEB030309F1FF3080F087809C4240F2B4
:100D80008480A9F1020973441B1BADB2B3FBF8F0D8
:100D900008FB103345EA034400FB0AFAA24508D9D0
:100DA0001EEB040400F1FF336BD2A24569D902386F
:100DB000744440EA0940A0FB0289A4EB0A044C45B4
:100DC000C2464B4654D351D0002E69D0B1EB0A0530
:100DD00064EB030404FA0CFCFD40FC404CEA0505FE
:100DE000C6E90054002747E7C2F1200320FA03F7C1
:100DF000954001FA02F021FA03F34FEA154E384309
:100E0000010CB3FBFEF71FFA85F80EFB173341EA1E
:100E1000034107FB08F38B4204FA02F407D969186F
:100E200007F1FF3C2FD28B422DD9023F2944CB1A28
:100E300081B2B3FBFEF00EFB103341EA034100FB2D
:100E400008F38B4207D9691800F1FF3C17D28B4297
:100E500015D902382944C91A40EA07473BE7374603
:100E6000304609E70746E7E61846FBE64145ABD2C0
:100E7000B8EB020A69EB0E0201381346A4E760469C
:100E8000E9E7184695E76746D1E781467CE70238EF
:100E90002C4447E7ACF1020C2B442FE7384608E717
:100EA0003746E9E6704700BF80B584B000AF03461F
:100EB000FB7101222021164802F04EFEF823FB733D
:100EC00007F10F0301221946124803F0F1FAFB79EA
:100ED00023F00F03DBB2FB7307F10F030122194666
:100EE0000C4803F0E5FAFB791B01DBB2FB7307F159
:100EF0000F0301221946074803F0DAFA00222021E5
:100F0000034802F029FE00BF1037BD4680BD00BF78
:100F1000001002401408002080B584B000AF0346E2
:100F2000FB7101222021164802F016FEFA23FB7302
:100F300007F10F0301221946124803F0B9FAFB79B1
:100F400023F00F03DBB2FB7307F10F0301221946F5
:100F50000C4803F0ADFAFB791B01DBB2FB7307F120
:100F60000F0301221946074803F0A2FA00222021AC
:100F7000034802F0F1FD00BF1037BD4680BD00BF41
:100F8000001002401408002080B582B000AF00229B
:100F900080211E4802F0E0FD0A2001F0D5FF012269
:100FA00080211A4802F0D8FD282001F0CDFF30231F
:100FB000FB71FB791846FFF777FF012001F0C4FFB2
:100FC000FB791846FFF770FF012001F0BDFF0C23ED
:100FD000FB71FB791846FFF767FF012001F0B4FFB2
:100FE0000123FB71FB791846FFF75EFF0C2001F02F
:100FF000ABFF0623FB71FB791846FFF755FF012075
:1010000001F0A2FF00BF0837BD4680BD00040240CA
:1010100080B582B000AF0346FB71FB79002B0CD08A
:101020003420FFF741FF012001F08EFF3620FFF74B
:101030003BFF012001F088FF0BE0FB7983F0010307
:10104000DBB2002B05D03020FFF72EFF012001F08E
:101050007BFF00BF0837BD4680BD80B582B000AFC2
:101060000023BB712DE0BB791F2B0AD8BB7963F03D
:101070007F03DBB21846FFF717FF8020FFF714FF4E
:101080000DE0BB79203BDBB25BB263F07F035BB268
:10109000DBB21846FFF708FF8820FFF705FF0023A3
:1010A000FB7108E00020FFF737FF0020FFF734FF57
:1010B000FB790133FB71FB79072BF3D9BB79013342
:1010C000BB71BB793F2BCED900F08AFA00BF08373D
:1010D000BD4680BD80B584B000AF78600023BB8181
:1010E0000023BB733AE10023FB7330E1BB7B1F2B72
:1010F0000ED8BB7B63F07F03DBB21846FFF7D4FE4C
:10110000FB7B63F07F03DBB21846FFF7CDFE11E0F7
:10111000BB7B203BDBB25BB263F07F035BB2DBB235
:101120001846FFF7C1FEFB7B63F07703DBB218467E
:10113000FFF7BAFEBB7BDB08DBB2DA00FB7B1344B4
:101140009BB21B01BB81BB7B03F00703FB72BB8916
:101150007A6813441B781A46FB7A42FA03F3DB01E0
:101160005AB2BB89013379680B441B781946FB7A64
:1011700041FA03F39B015BB203F040035BB21343FC
:101180005AB2BB89023379680B441B781946FB7A43
:1011900041FA03F35B015BB203F020035BB213433C
:1011A0005AB2BB89033379680B441B781946FB7A22
:1011B00041FA03F31B015BB203F010035BB213436C
:1011C0005AB2BB89043379680B441B781946FB7A01
:1011D00041FA03F3DB005BB203F008035BB2134395
:1011E0005AB2BB89053379680B441B781946FB7AE0
:1011F00041FA03F39B005BB203F004035BB21343B9
:101200005AB2BB89063379680B441B781946FB7ABE
:1012100041FA03F35B005BB203F002035BB21343DA
:101220005AB2BB89073379680B441B781946FB7A9D
:1012300041FA03F35BB203F001035BB213435BB209
:10124000BB72BB7A1846FFF767FEBB8908337A6822
:1012500013441B781A46FB7A42FA03F3DB015AB2B5
:10126000BB89093379680B441B781946FB7A41FA2C
:1012700003F39B015BB203F040035BB213435AB22A
:10128000BB890A3379680B441B781946FB7A41FA0B
:1012900003F35B015BB203F020035BB213435AB26A
:1012A000BB890B3379680B441B781946FB7A41FAEA
:1012B00003F31B015BB203F010035BB213435AB29A
:1012C000BB890C3379680B441B781946FB7A41FAC9
:1012D00003F3DB005BB203F008035BB213435AB2C3
:1012E000BB890D3379680B441B781946FB7A41FAA8
:1012F00003F39B005BB203F004035BB213435AB2E7
:10130000BB890E3379680B441B781946FB7A41FA86
:1013100003F35B005BB203F002035BB213435AB208
:10132000BB890F3379680B441B781946FB7A41FA65
:1013300003F35BB203F001035BB213435BB2BB7216
:10134000BB7A1846FFF7E8FDFB7B0133FB73FB7BA1
:10135000072B7FF6CBAEBB7B0133BB73BB7B3F2B35
:101360007FF6C1AE00BF1037BD4680BD80B500AF6F
:101370000248FFF7AFFE00BF80BD00BF00040020A1
:1013800080B485B000AF0346FB800B46BB8013469C
:10139000FB700023FB6028E0FB78002B12D0BA889A
:1013A00013465B0013445B001A46FB681344134A60
:1013B000D25CF988FB680B44013BD243D1B2104A9E
:1013C000D1540FE0BA8813465B0013445B001A4601
:1013D000FB681A44F988FB680B44013B0749895CA8
:1013E000074AD154FB680133FB60FB68062BD3DD51
:1013F00000BF1437BD465DF8047B7047047B0008CE
:101400000004002080B586B000AF3B600346FB803F
:101410000B467B7113463B717B799BB2DB019AB221
:10142000FB881344FB800023FB810023FB75002312
:101430003B61C8E03B693A6813441B78BF2B22D854
:10144000FB7D002B02D00023FB75B9E03B693A68B5
:1014500013441B78FB813B79002B08D0FB89203B90
:1014600099B2FB8801221846FFF78AFF07E0FB8943
:10147000203B99B2FB8800221846FFF781FFFB88CA
:101480000633FB809CE03B693A6813441B781B02DF
:101490001AB23B69013339680B441B781BB2134302
:1014A0001BB2FB81FB894DF27F12934220D8FB894E
:1014B0004DF2810293421BD93B79002B0AD0FB8964
:1014C00003F53F530F3399B2FB8801221846FFF70B
:1014D00057FF09E0FB8903F53F530F3399B2FB88AF
:1014E00000221846FFF74CFFFB880633FB8065E0BF
:1014F000FB894DF28102934213D13B79002B06D038
:10150000FB8801229F211846FFF73AFF05E0FB8880
:1015100000229F211846FFF733FFFB880633FB802C
:101520004CE0FB894DF29112934213D13B79002B91
:1015300006D0FB880122A0211846FFF721FF05E015
:10154000FB880022A0211846FFF71AFFFB8806330C
:10155000FB8033E0FB894CF2B022934213D13B79FC
:10156000002B06D0FB880122A1211846FFF708FFB7
:1015700005E0FB880022A1211846FFF701FFFB8848
:101580000633FB801AE03B79002B0AD0FB8903F578
:101590003C530F3399B2FB8801221846FFF7F0FE47
:1015A00009E0FB8903F53C530F3399B2FB88002215
:1015B0001846FFF7E5FEFB880633FB800123FB7529
:1015C0003B6901333B613868FEF702FE02463B6926
:1015D0009A423FF62FAF00BF1837BD4680BD0000CE
:1015E00080B500AF4FF480620021024804F01CFA7D
:1015F00000BF80BD0004002090B583B000AF01F0B3
:1016000031FC00F0ABFB00F049FD00F027FD00F0DD
:10161000EFFC00F00BFC00F03FFC00F0B3FCA74B2C
:101620004FF0FF325A6100F029FE4FF42F7001F0A5
:101630008BFCFFF712FDA24B1B681A46A149A2487A
:1016400004F056FEA04B002204211420FFF7DAFE1E
:101650009E4803F056FA9E4803F053FA9D4B93F8C8
:101660009F31002B40F002829B4B01221A70994B54
:1016700093F8A031012B19D10021984803F004FB05
:10168000944B002283F8A0210023FB710BE0FB792F
:10169000904A2C2101FB03F31344143300221A70E7
:1016A000FB790133FB71FB790F2BF0D90023BB7160
:1016B000D4E1BB79874A2C2101FB03F31344153392
:1016C0001B78002B40F0B281BB79824A2C2101FBB0
:1016D00003F3134416331B78002B21D1BB797D4AC9
:1016E0002C2101FB03F313440C331868BB79794AAE
:1016F0002C2101FB03F3134410331C88BB79754A7A
:101700002C2101FB03F3134413331B78002B0CBF74
:1017100001230023DBB21A46214602F01DFA9AE1AA
:10172000BB796C4A2C2101FB03F3134416331B785D
:10173000022B63D1BB79674A2C2101FB03F31344CD
:1017400024331B68002B59D1BB79624A2C2101FB41
:1017500003F313441C331B68002B2DD0BB795D4A67
:101760002C2101FB03F313440C331868BB79594A4D
:101770002C2101FB03F3134410331C88BB79554A19
:101780002C2101FB03F3134414331B78002B0AD0E4
:10179000BB79504A2C2101FB03F313441C331B6813
:1017A0001B7D002B01D1012300E00023DBB21A4690
:1017B000214602F0D1F94EE1BB79464A2C2101FBCA
:1017C00003F313440C331868BB79424A2C2101FB04
:1017D00003F3134410331C88BB793E4A2C2101FBD0
:1017E00003F3134414331B78002B0CBF0123002395
:1017F000DBB21A46214602F0AFF92CE1BB79354A3B
:101800002C2101FB03F3134424331B68002B2DD040
:10181000BB79304A2C2101FB03F3134416331B78A8
:10182000012B23D1BB792B4A2C2101FB03F3134459
:1018300014331B78002B19D0BB79264A2C2101FBCD
:1018400003F31344143300221A70BB79214A2C216C
:1018500001FB03F3134424331B68BA792C2101FBE9
:1018600002F21C490A4410469847F4E0BB79194A31
:101870002C2101FB03F3134416331B78032B2FD1C8
:10188000BB79144A2C2101FB03F3134414331B7856
:10189000002B25D0BB790F4A2C2101FB03F3134405
:1018A000143300221A70BB792C2202FB03F3094A7D
:1018B0001344184601F004F8CDE000BF000C0240CC
:1018C00000080020C87A0008800300200C0C0020CB
:1018D0006C0B0020AC080020040800206C080020DD
:1018E000BB79614A2C2101FB03F3134416331B78A7
:1018F000042B52D1BB795C4A2C2101FB03F3134426
:1019000014331B78002B48D0BB79574A2C2101FB9C
:1019100003F313441C331B681B7D002B00F09A80DB
:10192000BB79514A2C2101FB03F3134414330022E9
:101930001A70BB794C4A2C2101FB03F313440C337E
:101940001868BB79484A2C2101FB03F31344103378
:101950001B880022194602F0FFF8BB79424A2C216D
:1019600001FB03F3134418331B88184601F0ECFA0B
:10197000BB793D4A2C2101FB03F313440C33186857
:10198000BB79394A2C2101FB03F3134410331B8824
:101990000122194602F0E0F85DE0BB79324A2C21C1
:1019A00001FB03F3134416331B78052B1DD1BB79C0
:1019B0002D4A2C2101FB03F3134414331B78002B15
:1019C00013D0BB79284A2C2101FB03F313441433B1
:1019D00000221A70BB792C2202FB03F3224A134423
:1019E0000121184600F0CEFE35E0BB791E4A2C21BD
:1019F00001FB03F3134416331B78062B16D1BB7976
:101A0000194A2C2101FB03F3134414331B78002BD8
:101A10000CD0BB79144A2C2101FB03F313441C3373
:101A20001B680121184600F01BFF14E0BB790E4A29
:101A30002C2101FB03F3134416331B78C82B0AD166
:101A4000BB79094A2C2101FB03F313441433002210
:101A50001A7000E000BFBB790133BB71BB790F2B5B
:101A60007FF627AEFAE500BFAC080020B04B1B782C
:101A7000002B06D0AE4B00221A70AE4B002283F82A
:101A8000CC21AC4B93F8CC31002B00F03581A94B25
:101A900093F8A732012B40F0BB80A74B40F21B32DA
:101AA0001A60A64B41F2F8121A60A54800F008FF30
:101AB0004B2001F049FA9F4BD3F890009D4BB3F8AF
:101AC00094300022194602F047F89A4BD3F8E80008
:101AD000984BB3F8EC300022194602F03DF84B2049
:101AE00001F032FA934BD3F8BC00924BB3F8C030FC
:101AF0000022194602F030F88E4BD3F814018D4BBA
:101B0000B3F818310022194602F026F84FF4967007
:101B100001F01AFA874BD3F8BC00864BB3F8C030FB
:101B20000122194602F018F8824BD3F81401814BB8
:101B3000B3F818310122194602F00EF87D4BD3F8A4
:101B400090007C4BB3F894300122194602F004F85F
:101B5000784BD3F8E800774BB3F8EC300122194604
:101B600001F0FAFF4B2001F0EFF9754800F0A8FEF4
:101B70004B2001F0E9F96F4BD3F8E8006D4BB3F857
:101B8000EC300022194601F0E7FF4B2001F0DCF9B0
:101B9000684BD3F81401674BB3F81831002219468B
:101BA00001F0DAFF4FF4967001F0CEF9614BD3F8F3
:101BB0001401604BB3F818310122194601F0CCFF33
:101BC0005C4BD3F86C015B4BB3F8703100221946C3
:101BD00001F0C2FF4B2001F0B7F9564BD3F86C016E
:101BE000544BB3F870310122194601F0B5FF554846
:101BF00000F066FE4F4BD3F8E8004E4BB3F8EC30E4
:101C00000122194601F0A8FF4B2001F09DF96AE07E
:101C1000494B40F21B321A60484B40F6FC021A60F6
:101C2000474800F04DFE4B2001F08EF9414BD3F8B0
:101C30009000404BB3F894300022194601F08CFF1D
:101C40003C4BD3F8E8003B4BB3F8EC30002219468C
:101C500001F082FF4B2001F077F9364BD3F8BC003E
:101C6000344BB3F8C0300022194601F075FF314BF8
:101C7000D3F814012F4BB3F818310022194601F0A4
:101C80006BFF4FF4967001F05FF92A4BD3F8BC005C
:101C9000284BB3F8C0300122194601F05DFF254BF7
:101CA000D3F81401234BB3F818310122194601F07F
:101CB00053FF4B2001F048F91E4BD3F890001D4B09
:101CC000B3F894300122194601F046FF194BD3F8BE
:101CD000E800184BB3F8EC300122194601F03CFF44
:101CE0004B2001F031F9C82001F02EF9164B1B688A
:101CF0000133154A13600AE0144B1B78002B06D001
:101D0000124B00221A700021114802F0BDFF0E4B49
:101D10001B681A460F49104804F0EAFA0E4B0022DD
:101D200004211420FFF76EFBFFF720FB96E400BFB1
:101D300004080020AC08002000000020040000205F
:101D4000E009002004090020000800200508002008
:101D50006C080020C87A00088003002080B594B089
:101D600000AF07F1200330220021184603F05CFE8B
:101D700007F10C0300221A605A609A60DA601A6157
:101D80000023BB60274B1B6C264A43F0805313642F
:101D9000244B1B6C03F08053BB60BB6800237B604B
:101DA000214B1B68204A43F4804313601E4B1B6881
:101DB00003F480437B607B6801233B624FF48033F4
:101DC0007B620223BB634FF48003FB6304233B6409
:101DD00048237B640623BB640423FB6407F12003D0
:101DE000184601F0D3FE0346002B01D000F01AFE86
:101DF0000F23FB6002233B6100237B614FF4805380
:101E0000BB610023FB6107F10C030021184602F0BF
:101E10002DF90346002B01D000F004FE00BF50371F
:101E2000BD4680BD003802400070004080B500AF64
:101E3000174B184A1A60164B4FF482725A60144BB3
:101E400000229A60124B0022DA60114B02221A61C2
:101E50000F4B01225A610E4B4FF400729A610C4BEA
:101E60000022DA610A4B00221A62094B00225A62F0
:101E7000074B00229A62064B0A22DA62044802F0FB
:101E8000B3FA0346002B01D000F0CCFD00BF80BDAB
:101E9000140800200038004080B58EB000AF07F174
:101EA000280300221A605A609A60DA6007F1200362
:101EB00000221A605A603B1D00221A605A609A6024
:101EC000DA601A615A619A612C4B2D4A1A602B4BC9
:101ED000F0225A60294B00229A60284B7422DA6063
:101EE000264B4FF400721A61244B00229A6123485A
:101EF00002F0DCFD0346002B01D000F093FD4FF40F
:101F00008053BB6207F1280319461C4803F0E2F82E
:101F10000346002B01D000F085FD184802F040FE7A
:101F20000346002B01D000F07DFD00233B6200231F
:101F30007B6207F120031946104803F0BBFC0346FF
:101F4000002B01D000F06EFD60237B603A23BB6064
:101F50000023FB6000237B613B1D002219460748DC
:101F600002F0F2FF0346002B01D000F05BFD0348B6
:101F700000F086FE00BF3837BD4680BD6C080020EB
:101F80000004004080B582B000AF3B4600221A60DA
:101F90005A60154B154A1A60134B45F6BF525A60EA
:101FA000114B00229A60104B4FF4FA72DA600E4B1C
:101FB00000229A610C4802F079FD0346002B01D003
:101FC00000F030FD00233B6000237B603B46194658
:101FD000054803F06FFC0346002B01D000F022FD02
:101FE00000BF0837BD4680BD6C0B002000100040CC
:101FF00080B582B000AF3B4600221A605A60154B94
:10200000154A1A60134B45F6BF525A60114B002215
:102010009A60104B0522DA600E4B00229A610D483F
:1020200002F044FD0346002B01D000F0FBFC00232E
:102030003B6000237B603B461946064803F03AFCB0
:102040000346002B01D000F0EDFC00BF0837BD4671
:1020500080BD00BF0C0C00200014004080B582B091
:1020600000AF00237B600C4B1B6B0B4A43F4001347
:102070001363094B1B6B03F400137B607B68002226
:1020800000210F2001F071F80F2001F08AF800BF45
:102090000837BD4680BD00BF0038024080B58CB017
:1020A00000AF07F11C0300221A605A609A60DA60E0
:1020B0001A610023BB616B4B1B6B6A4A43F0100330
:1020C0001363684B1B6B03F01003BB61BB690023F8
:1020D0007B61644B1B6B634A43F004031363614BE6
:1020E0001B6B03F004037B617B6900233B615D4B49
:1020F0001B6B5C4A43F0800313635A4B1B6B03F06A
:1021000080033B613B690023FB60564B1B6B554AC8
:1021100043F001031363534B1B6B03F00103FB609C
:10212000FB680023BB604F4B1B6B4E4A43F002031E
:1021300013634C4B1B6B03F00203BB60BB680023B3
:102140007B60484B1B6B474A43F008031363454BC6
:102150001B6B03F008037B607B6800222021424850
:1021600001F0FAFC0022C021404801F0F5FC0022F9
:102170004FF47E413E4801F0EFFC002280213D48B3
:1021800001F0EAFC4FF6DA73FB6100233B620123A6
:102190007B6207F11C031946334801F02BFB202317
:1021A000FB6101233B6202237B620023BB6207F1D8
:1021B0001C0319462C4801F01DFB42F20203FB618F
:1021C00000233B6201237B6207F11C0319462A4866
:1021D00001F010FBC023FB6101233B6200237B6203
:1021E0000023BB6207F11C031946204801F002FBE3
:1021F0004FF44063FB6100233B6201237B6207F1E4
:102200001C0319461B4801F0F5FA4FF47E43FB61AD
:1022100001233B6201237B620023BB6207F11C03A5
:102220001946134801F0E6FA1823FB6100233B62CC
:1022300001237B6207F11C0319460D4801F0DAFA0D
:102240008023FB6101233B6202237B620023BB628C
:1022500007F11C031946074801F0CCFA00BF3037DC
:10226000BD4680BD00380240001002400000024020
:10227000000C0240000402400008024080B582B019
:1022800000AF642000F060FEFEF77EFE0120FEF746
:10229000BFFE7D4A7D4B03CB106051607A4B00221C
:1022A00003213220FFF7AEF8FFF760F80023FB713F
:1022B000B0E0FB79764A2C2101FB03F3134414337D
:1022C00000221A70FB79724A2C2101FB03F313449C
:1022D000133300221A70FB796D4A2C2101FB03F3A2
:1022E0001344123300221A70FB79694A2C2101FB36
:1022F00003F31344153300221A70FB79644A2C212E
:1023000001FB03F313442033624A1A60FB79604AED
:102310002C2101FB03F31344243300221A60FA79C1
:102320005D4913465B001344DB000B441A68FB79DC
:102330001046574A2C2101FB03F313440433186061
:10234000FA79554913465B001344DB000B44043310
:102350001A68FB7990B24E4A2C2101FB03F3134417
:10236000083302461A80FA794B4913465B0013443E
:10237000DB000B4408331A68FB791046444A2C21D1
:1023800001FB03F313440C331860FA7942491346F6
:102390005B001344DB000B440C331A68FB7990B2EA
:1023A0003B4A2C2101FB03F31344103302461A80ED
:1023B000FA79394913465B001344DB000B441033B0
:1023C0001A68FB79D0B2324A2C2101FB03F3134483
:1023D000163302461A70FA792F4913465B001344EC
:1023E000DB000B4414331A68FB7990B2284A2C2185
:1023F00001FB03F31344183302461A80FB79244A85
:102400002C2101FB03F313441C3300221A60FB79D7
:102410000133FB71FB790F2B7FF64BAF1C4B1F4A2F
:102420005A621B4B1E4ADA62194B1E4A5A65184BF8
:102430001D4A9A64164B1D4AC3F88020144B1C4A4F
:10244000C3F8CC20124B1B4AC3F82421104B1A4A64
:10245000C3F85C210E4B194AC3F88C210C4B184A67
:10246000C3F8B8210A4B174AC3F83C220122402185
:10247000154801F071FB01228021134801F06CFB2B
:1024800000BF0837BD4680BD80030020D47A000815
:10249000AC0800203D26000808000020C1260008E6
:1024A000DC7A0008E5290008E80A0020C5290008B0
:1024B0003009002088090020A5290008E47A0008D6
:1024C000EC7A0008F87A00080000024080B584B079
:1024D00000AF78607B681B68514A934240F094805B
:1024E0001021504801F020FB0346002B2DD1002382
:1024F000FB7316E0FB7B4C4A2C2101FB03F31344D6
:102500000C331868FB7B484A2C2101FB03F313446E
:1025100010331B880122194601F01EFBFB7B01339F
:10252000FB73FB7B0F2BE5D9404802F00EFB4048C4
:1025300000F066FA00E000BF10213A4801F0F4FA1A
:102540000346002BF7D000F03AFE0023BB733BE0BC
:10255000BB7B354A2C2101FB03F313441C331B685E
:102560001B7D012B09D1BB7B2F4A2C2101FB03F3DF
:10257000134416331B78042B13D0BB7B2A4A2C211F
:1025800001FB03F313441C331B68002B09D0BB7BF6
:10259000254A2C2101FB03F3134416331B78042B2B
:1025A0000FD0BB7B204A2C2101FB03F313442033C3
:1025B0001B68BA7B2C2101FB02F21B490A4410461E
:1025C0009847BB7B0133BB73BB7B0F2BC0D9164B2A
:1025D00093F87C32002B0CD0164B1B68002B08D0D4
:1025E000114B002283F87C22124B00221A60FEF766
:1025F00034FD0D4B93F8CC31002B05D00A4B9B6C6E
:102600000121184600F02CF97B681B680A4A9342A6
:1026100001D1FEF7ABFE00BF1037BD4680BD00BF45
:1026200000140040000C0240AC0800200C0C0020FC
:10263000003E4900000800200010004080B582B034
:1026400000AF78607B685A687B681B891946104622
:1026500001F06AFA0346002B1DD17B685B7D002BDD
:1026600019D17B689B7C092B06D87B689B7C013346
:10267000DAB27B689A741DE07B68DB7C002B19D191
:102680007B680122DA747B681B7D83F00103DAB278
:102690007B681A750EE07B689B7C002B06D07B68FC
:1026A0009B7C013BDAB27B689A7404E07B68002271
:1026B000DA7400E000BF00BF0837BD4680BD0000EF
:1026C00080B582B000AF78602D4BD3F890002C4BD2
:1026D000B3F894300022194601F03EFA284BD3F8A3
:1026E000BC00274BB3F8EC300022194601F034FA55
:1026F000C82000F029FC224BD3F8E800204BB3F8A7
:10270000C0300022194601F027FA1D4BD3F81401FE
:102710001B4BB3F818310022194601F01DFA4FF493
:10272000967000F011FC164BD3F89000144BB3F8E0
:1027300094300122194601F00FFA114BD3F8BC0076
:102740000F4BB3F8C0300122194601F005FA0C4BCB
:10275000D3F8E8000A4BB3F8EC300122194601F037
:10276000FBF9074BD3F81401054BB3F818310122DC
:10277000194601F0F1F900BF0837BD4680BD00BF22
:10278000AC08002080B584B000AF78600B46FB70C9
:1027900042F21073FB810023BB810023BB6020E069
:1027A0007B68D8687B681B8A0022194601F0D4F93F
:1027B0007B681B8B5B089BB2184600F021F97B6895
:1027C000D8687B681B8A0122194601F0C5F97B682D
:1027D0001B8B5B089BB2184600F012F9BB680133F3
:1027E000BB60BB68092BDBD92DE0FB89013BFB817A
:1027F000BB89B3F5487F02D2BB890133BB817B68BB
:10280000D8687B681B8A0022194601F0A5F97B680D
:102810001B8B5B089BB21A46BB89D31A184600F083
:10282000EFF87B68D8687B681B8A0122194601F0A3
:1028300093F97B681B8B5B089BB21A46BB89D31A42
:10284000184600F0DDF87B68DB7CFA789A4202D10A
:10285000FB89002BC9D100BF1037BD4680BD0000E9
:1028600080B582B000AF78600B46FB707B68DB7C84
:10287000FA789A420ED10F4B1B7883F00103DBB23A
:10288000002B12D000210C4802F0C0F9094B0122A4
:102890001A700AE00021084802F0F6F9054B002200
:1028A0001A70064B002283F8402000BF0837BD464F
:1028B00080BD00BF050800206C080020AC08002087
:1028C00080B586B000AF78600023FB82C823BB6070
:1028D0007B689B6A002B05D07B689B6A07F1080226
:1028E0001046984700233B6120E07B68D8687B68EE
:1028F0001B8A0022194601F02FF97B681B8B5B08AD
:102900009BB2184600F07CF87B68D8687B681B8A0D
:102910000122194601F020F97B681B8B5B089BB2F2
:10292000184600F06DF83B6901333B613B69132B9E
:10293000DBD90023FB602DE0FB8AB3F5487F02D290
:10294000FB8A0133FB827B68D8687B681B8A002284
:10295000194601F001F97B681B8B5B089BB21A4694
:10296000FB8AD31A184600F04BF87B68D8687B685E
:102970001B8A0122194601F0EFF87B681B8B5B086C
:102980009BB21A46FB8AD31A184600F039F8FB6846
:102990000133FB60BB68FA689A42CDD300BF183799
:1029A000BD4680BD80B483B000AF7860044B1A6828
:1029B0007B681A6000BF0C37BD465DF8047B70472A
:1029C0000000002080B483B000AF7860044B1A6828
:1029D0007B681A6000BF0C37BD465DF8047B70470A
:1029E0000400002080B483B000AF78607B684FF4AF
:1029F0007A721A6000BF0C37BD465DF8047B7047E1
:102A000080B483B000AF786000E000BF7B685A1EDE
:102A10007A60002BF9D100BF0C37BD465DF8047B0E
:102A20007047000080B500AF00224021044801F04B
:102A300093F800228021024801F08EF800BF80BD8B
:102A40000000024080B483B000AF00237B60104BD5
:102A50005B6C0F4A43F4804353640D4B5B6C03F48F
:102A600080437B607B6800233B60094B1B6C084AFA
:102A700043F080531364064B1B6C03F080533B60A0
:102A80003B6800BF0C37BD465DF8047B704700BF54
:102A90000038024080B58AB000AF786007F11403B7
:102AA00000221A605A609A60DA601A617B681B68BB
:102AB000434A93427FD100233B61424B1B6C414A06
:102AC00043F4804313643F4B1B6C03F480433B612E
:102AD0003B690023FB603B4B1B6B3A4A43F004030A
:102AE0001363384B1B6B03F00403FB60FB6800238C
:102AF000BB60344B1B6B334A43F002031363314B0F
:102B00001B6B03F00203BB60BB6808237B610223DD
:102B1000BB610023FB6103233B6205237B6207F15A
:102B200014031946284800F065FE4FF400537B61FA
:102B30000223BB610023FB6103233B6205237B620D
:102B400007F114031946214800F054FE204B214A96
:102B50001A601F4B00225A601D4B40229A601C4B8A
:102B60000022DA601A4B4FF480621A61184B00227F
:102B70005A61174B00229A61154B0022DA61144BFF
:102B800000221A62124B00225A62114800F028FB00
:102B90000346002B01D0FFF745FF7B680C4A9A647F
:102BA0000B4A7B68936300220021242000F0DDFAA9
:102BB000242000F0F6FA00BF2837BD4680BD00BFD4
:102BC0000038004000380240000802400004024083
:102BD000AC0B00207060024080B586B000AF78601A
:102BE0007B681B68224A93420ED100237B61214BF4
:102BF0001B6C204A43F0020313641E4B1B6C03F052
:102C000002037B617B692EE07B681B681A4A934252
:102C10000ED100233B61174B1B6C164A43F0100387
:102C20001364144B1B6C03F010033B613B691AE007
:102C30007B681B68114A934215D10023FB600D4B42
:102C40001B6C0C4A43F0200313640A4B1B6C03F00B
:102C50002003FB60FB6800220021372000F085FA8A
:102C6000372000F09EFA00BF1837BD4680BD00BF78
:102C700000040040003802400010004000140040F2
:102C800080B588B000AF786007F10C0300221A60AD
:102C90005A609A60DA601A617B681B68124A934234
:102CA0001DD10023BB60114B1B6B104A43F0040382
:102CB00013630E4B1B6B03F00403BB60BB68402324
:102CC000FB6002233B6100237B610223BB61022383
:102CD000FB6107F10C031946054800F08BFD00BFAE
:102CE0002037BD4680BD00BF0004004000380240D0
:102CF0000008024080B400AF00BFBD465DF8047B11
:102D0000704780B400AFFEE780B400AFFEE780B448
:102D100000AFFEE780B400AFFEE780B400AF00BFB5
:102D2000BD465DF8047B704780B400AF00BFBD4670
:102D30005DF8047B704780B400AF00BFBD465DF80E
:102D4000047B704780B500AF00F0DEF800BF80BDA7
:102D500080B500AF024800F013FB00BF80BD00BF8C
:102D6000AC0B002080B500AF024801F023FC00BF8F
:102D700080BD00BF1408002080B500AF024801F0FC
:102D8000DBFF00BF80BD00BF0C0C002080B584B00D
:102D900000AF7860114B1B68002B02D10F4B104A1B
:102DA0001A600E4B1B68FB600C4B1A687B6813445F
:102DB0006A46934207D902F00DFE02460C231360C7
:102DC0004FF0FF3306E0054B1A687B681344034A53
:102DD0001360FB6818461037BD4680BD0808002008
:102DE000580C002080B400AF084BD3F88830074A55
:102DF00043F47003C2F88830044B4FF000629A60CD
:102E000000BFBD465DF8047B704700BF00ED00E0E9
:102E1000DFF834D0002103E00C4B5B584350043101
:102E20000B480C4B42189A42F6D30B4A02E000239F
:102E300042F8043B094B9A42F9D3FFF7D3FF02F063
:102E4000CFFDFEF7D9FB7047000002205881000833
:102E5000000000206403002064030020540C0020C4
:102E6000FEE7000080B500AF0E4B1B680D4A43F42F
:102E7000007313600B4B1B680A4A43F480631360B2
:102E8000084B1B68074A43F480731360032000F06B
:102E900061F9002000F008F8FFF7D4FD0023184680
:102EA00080BD00BF003C024080B582B000AF7860BA
:102EB000124B1A68124B1B7819464FF47A73B3FB06
:102EC000F1F3B2FBF3F3184600F07DF90346002B53
:102ED00001D001230EE07B680F2B0AD8002279680D
:102EE0004FF0FF3000F041F9064A7B681360002381
:102EF00000E0012318460837BD4680BD8801002048
:102F0000900100208C01002080B400AF064B1B789C
:102F10001A46064B1B681344044A136000BFBD46A3
:102F20005DF8047B704700BF900100204C0C00202E
:102F300080B400AF034B1B681846BD465DF8047BA8
:102F4000704700BF4C0C002080B584B000AF7860A3
:102F5000FFF7EEFFB8607B68FB60FB68B3F1FF3FF3
:102F600005D0094B1B781A46FB681344FB6000BF71
:102F7000FFF7DEFF0246BB68D31AFA689A42F7D819
:102F800000BF1037BD4680BD9001002080B485B0E1
:102F900000AF78607B6803F00703FB600C4BDB68D5
:102FA000BB60BA684FF6FF031340BB60FB681A02B0
:102FB000BB68134343F0BF6343F40033BB60044A70
:102FC000BB68D36000BF1437BD465DF8047B704713
:102FD00000ED00E080B400AF044BDB681B0A03F097
:102FE00007031846BD465DF8047B704700ED00E01E
:102FF00080B483B000AF0346FB7197F90730002B14
:103000000BDBFB7903F01F02074997F907305B09D7
:10301000012000FA02F241F8232000BF0C37BD4620
:103020005DF8047B704700BF00E100E080B483B02E
:1030300000AF03463960FB7197F90730002B0ADBBC
:103040003B68DAB20C4997F907301201D2B20B444F
:1030500083F800230AE03B68DAB20849FB7903F001
:103060000F03043B1201D2B20B441A7600BF0C3797
:10307000BD465DF8047B704700E100E000ED00E034
:1030800080B489B000AFF860B9607A60FB6803F083
:103090000703FB61FB69C3F10703042B28BF04236B
:1030A000BB61FB690433062B02D9FB69033B00E0DB
:1030B00000237B614FF0FF32BB6902FA03F3DA436E
:1030C000BB681A407B699A404FF0FF317B6901FA77
:1030D00003F3D9437B680B40134318462437BD469E
:1030E0005DF8047B7047000080B400AFBFF34F8FE2
:1030F000054BDB6803F4E0620349044B1343CB60E8
:10310000BFF34F8F00BFFDE700ED00E00400FA05BC
:1031100080B582B000AF78607B68013BB3F1807FFF
:1031200001D301230FE00A4A7B68013B53600F2162
:103130004FF0FF30FFF77AFF054B00229A60044BF7
:1031400007221A60002318460837BD4680BD00BF1D
:1031500010E000E080B582B000AF78607868FFF7DB
:1031600015FF00BF0837BD4680BD80B586B000AFF3
:103170000346B9607A60FB7300237B61FFF72AFF87
:1031800078617A68B9687869FFF77AFF024697F93B
:103190000F3011461846FFF749FF00BF1837BD46EC
:1031A00080BD80B582B000AF0346FB7197F9073050
:1031B0001846FFF71DFF00BF0837BD4680BD80B52C
:1031C00000AFFFF791FF80B582B000AF78607868FC
:1031D000FFF79EFF034618460837BD4680BD000036
:1031E00080B586B000AF786000237B61FFF7A0FE5A
:1031F00038617B68002B01D1012399E07B680022B4
:1032000083F834207B68022283F835207B681B68B2
:103210001A687B681B6822F001021A600FE0FFF752
:1032200087FE02463B69D31A052B08D97B6820220A
:103230005A657B68032283F83520032378E07B6896
:103240001B681B6803F00103002BE8D17B681B6837
:103250001B687B617A69384B13407B617B685A68D5
:103260007B689B681A437B68DB681A437B681B6931
:103270001A437B685B691A437B689B691A437B68C6
:10328000DB691A437B681B6A13437A6913437B61CA
:103290007B685B6A042B07D17B68DA6A7B681B6BEF
:1032A00013437A6913437B617B681B687A691A60F0
:1032B0007B681B685B697B617B6923F007037B612B
:1032C0007B685B6A7A6913437B617B685B6A042B6A
:1032D00017D17B689B6A7A6913437B617B68DB6AE1
:1032E000002B0ED0786800F00BFA0346002B08D0B4
:1032F0007B6840225A657B68012283F835200123D0
:1033000016E07B681B687A695A61786800F0C2F938
:103310000346FB607B68DB6D3F229A40FB689A6046
:103320007B6800225A657B68012283F835200023E0
:1033300018461837BD4680BD3F8010F080B483B07A
:1033400000AF78607B6893F83530DBB2022B04D095
:103350007B6880225A6501230CE07B68052283F894
:1033600035207B681B681A687B681B6822F00102A5
:103370001A60002318460C37BD465DF8047B704781
:1033800080B586B000AF78600023BB60924B1B68AD
:10339000924AA2FB03239B0A7B617B689B6D3B6186
:1033A0003B691B68FB607B68DB6D08229A40FB6809
:1033B0001340002B1AD07B681B681B6803F00403C2
:1033C000002B13D07B681B681A687B681B6822F08F
:1033D00004021A607B68DB6D08229A403B699A60A0
:1033E0007B685B6D43F001027B685A657B68DB6D2F
:1033F00001229A40FB681340002B12D07B681B68A7
:103400005B6903F08003002B0BD07B68DB6D01222E
:103410009A403B699A607B685B6D43F002027B686F
:103420005A657B68DB6D04229A40FB681340002BD1
:1034300012D07B681B681B6803F00203002B0BD0C3
:103440007B68DB6D04229A403B699A607B685B6D08
:1034500043F004027B685A657B68DB6D10229A405A
:10346000FB681340002B43D07B681B681B6803F08C
:103470000803002B3CD07B68DB6D10229A403B692F
:103480009A607B681B681B6803F48023002B18D0AC
:103490007B681B681B6803F40023002B08D17B6842
:1034A0001B6C002B24D07B681B6C786898471FE04E
:1034B0007B689B6C002B1BD07B689B6C7868984763
:1034C00016E07B681B681B6803F48073002B07D130
:1034D0007B681B681A687B681B6822F008021A6008
:1034E0007B681B6C002B03D07B681B6C786898474B
:1034F0007B68DB6D20229A40FB681340002B00F0B4
:103500008E807B681B681B6803F01003002B00F0A3
:1035100086807B68DB6D20229A403B699A607B68DD
:1035200093F83530DBB2052B36D17B681B681A68FF
:103530007B681B6822F016021A607B681B685A6958
:103540007B681B6822F080025A617B681B6C002B31
:1035500003D17B689B6C002B07D07B681B681A68C3
:103560007B681B6822F008021A607B68DB6D3F22D3
:103570009A403B699A607B68002283F834207B681C
:10358000012283F835207B681B6D002B7DD07B6882
:103590001B6D7868984778E07B681B681B6803F4AC
:1035A0008023002B1CD07B681B681B6803F400235E
:1035B000002B08D17B685B6C002B30D07B685B6C88
:1035C000786898472BE07B68DB6B002B27D07B6803
:1035D000DB6B7868984722E088010020B5814E1B9C
:1035E0007B681B681B6803F48073002B0FD17B681A
:1035F0001B681A687B681B6822F010021A607B68DF
:10360000002283F834207B68012283F835207B6810
:10361000DB6B002B03D07B68DB6B786898477B689B
:103620005B6D002B32D07B685B6D03F00103002BD8
:1036300022D07B68052283F835207B681B681A68D6
:103640007B681B6822F001021A60BB680133BB6013
:103650007A699A4207D37B681B681B6803F00103F1
:10366000002BF2D100E000BF7B68002283F83420F9
:103670007B68012283F835207B68DB6C002B05D04A
:103680007B68DB6C7868984700E000BF1837BD4660
:1036900080BD00BF80B485B000AF78607B681B68D8
:1036A000DBB2103B144AA2FB03231B09FB60134A45
:1036B000FB6813441B781A467B68DA65FB68032BAA
:1036C00009D97B681B6823F47F7323F003031A1D59
:1036D0007B689A6507E07B681B6823F47F7323F09F
:1036E00003037A6893657B689B6D18461437BD4663
:1036F0005DF8047B704700BFABAAAAAAE07E000871
:1037000080B485B000AF78600023FB737B689B6A50
:10371000BB607B689B69002B1FD1BB68032B55D80E
:1037200001A252F823F000BF393700084B370008D8
:1037300039370008CD3700087B68DB6A03F08073F7
:10374000002B45D00123FB7342E07B68DB6AB3F1B9
:10375000C07F3FD10123FB733CE07B689B69B3F5DD
:10376000005F21D1BB68032B36D801A252F823F0A9
:10377000813700088737000881370008993700082B
:103780000123FB732FE07B68DB6A03F08073002B5F
:1037900024D00123FB7321E07B68DB6AB3F1C07F97
:1037A0001ED10123FB731BE0BB68022B02D9032B44
:1037B00003D018E00123FB7315E07B68DB6A03F09C
:1037C0008073002B0ED00123FB730BE000BF0AE0D7
:1037D00000BF08E000BF06E000BF04E000BF02E059
:1037E00000BF00E000BFFB7B18461437BD465DF804
:1037F000047B704780B489B000AF786039600023E3
:103800007B6100233B610023BB610023FB616BE113
:103810000122FB6902FA03F37B613B681B687A694A
:1038200013403B613A697B699A4240F05A813B6898
:103830005B68012B0BD03B685B68022B07D03B68B1
:103840005B68112B03D03B685B68122B30D17B681F
:103850009B68BB61FB695B00032202FA03F3DB4355
:10386000BA691340BB613B68DA68FB695B0002FA26
:1038700003F3BA691343BB617B68BA699A607B68DA
:103880005B68BB610122FB6902FA03F3DB43BA699F
:103890001340BB613B685B681B0903F00102FB69D5
:1038A00002FA03F3BA691343BB617B68BA695A60D1
:1038B0007B68DB68BB61FB695B00032202FA03F3F0
:1038C000DB43BA691340BB613B689A68FB695B00E4
:1038D00002FA03F3BA691343BB617B68BA69DA6021
:1038E0003B685B68022B03D03B685B68122B23D1DB
:1038F000FB69DA087B68083253F82230BB61FB6948
:1039000003F007039B000F2202FA03F3DB43BA69BB
:103910001340BB613B681A69FB6903F007039B0016
:1039200002FA03F3BA691343BB61FB69DA087B68E7
:103930000832B96943F822107B681B68BB61FB69D8
:103940005B00032202FA03F3DB43BA691340BB6155
:103950003B685B6803F00302FB695B0002FA03F358
:10396000BA691343BB617B68BA691A603B685B68DC
:1039700003F08053002B00F0B4800023FB605F4B0A
:103980005B6C5E4A43F4804353645C4B5B6C03F4B2
:103990008043FB60FB685A4AFB699B08023352F87C
:1039A0002330BB61FB6903F003039B000F2202FA83
:1039B00003F3DB43BA691340BB617B68514A93420E
:1039C0002BD07B68504A934225D07B684F4A934264
:1039D0001FD07B684E4A934219D07B684D4A934270
:1039E00013D07B684C4A93420DD07B684B4A93427C
:1039F00007D07B684A4A934201D107230EE008238F
:103A00000CE006230AE0052308E0042306E0032374
:103A100004E0022302E0012300E00023FA6902F03F
:103A2000030292009340BA691343BB613449FB69B6
:103A30009B080233BA6941F823203A4B1B68BB61EB
:103A40003B69DB43BA691340BB613B685B6803F4C5
:103A50008033002B03D0BA693B691343BB61314A01
:103A6000BB6913602F4B5B68BB613B69DB43BA6981
:103A70001340BB613B685B6803F40033002B03D049
:103A8000BA693B691343BB61264ABB695360254B46
:103A90009B68BB613B69DB43BA691340BB613B6810
:103AA0005B6803F48013002B03D0BA693B691343AE
:103AB000BB611C4ABB6993601A4BDB68BB613B6905
:103AC000DB43BA691340BB613B685B6803F40013D6
:103AD000002B03D0BA693B691343BB61114ABB6930
:103AE000D360FB690133FB61FB690F2B7FF690AE5E
:103AF00000BF2437BD465DF8047B704700380240A4
:103B0000003801400000024000040240000802406A
:103B1000000C024000100240001402400018024055
:103B2000001C0240003C014080B485B000AF7860CA
:103B30000B467B807B681A697B881340002B02D080
:103B40000123FB7301E00023FB73FB7B1846143752
:103B5000BD465DF8047B704780B483B000AF7860E9
:103B60000B467B8013467B707B78002B03D07A88D2
:103B70007B689A6103E07B881A047B689A6100BFC6
:103B80000C37BD465DF8047B7047000080B586B0F9
:103B900000AF78607B68002B01D101235BE27B687A
:103BA0001B6803F00103002B75D0A34B9B6803F047
:103BB0000C03042B0CD0A04B9B6803F00C03082BC8
:103BC00012D19D4B5B6803F48003B3F5800F0BD1DA
:103BD000994B1B6803F40033002B5BD07B685B6858
:103BE000002B57D1012336E27B685B68B3F5803F39
:103BF00006D1914B1B68904A43F4803313601DE05B
:103C00007B685B68B3F5A02F0CD18B4B1B688A4A8D
:103C100043F480231360884B1B68874A43F4803346
:103C200013600BE0844B1B68834A23F480331360DA
:103C3000814B1B68804A23F4802313607B685B6898
:103C4000002B13D0FFF774F9386108E0FFF770F923
:103C500002463B69D31A642B01D90323FBE1764B5F
:103C60001B6803F40033002BF0D014E0FFF760F979
:103C7000386108E0FFF75CF902463B69D31A642B10
:103C800001D90323E7E16C4B1B6803F40033002BDD
:103C9000F0D100E000BF7B681B6803F00203002B3B
:103CA00063D0654B9B6803F00C03002B0BD0624B79
:103CB0009B6803F00C03082B1CD15F4B5B6803F47B
:103CC0008003002B16D15C4B1B6803F00203002B12
:103CD00005D07B68DB68012B01D00123BBE1564B8B
:103CE0001B6823F0F8027B681B69DB005249134311
:103CF0000B603AE07B68DB68002B20D04F4B012241
:103D00001A60FFF715F9386108E0FFF711F902466C
:103D10003B69D31A022B01D903239CE1464B1B6854
:103D200003F00203002BF0D0434B1B6823F0F80292
:103D30007B681B69DB00404913430B6015E03F4B78
:103D400000221A60FFF7F4F8386108E0FFF7F0F896
:103D500002463B69D31A022B01D903237BE1364B80
:103D60001B6803F00203002BF0D17B681B6803F093
:103D70000803002B30D07B685B69002B16D0304BDA
:103D800001221A60FFF7D4F8386108E0FFF7D0F895
:103D900002463B69D31A022B01D903235BE1264B70
:103DA0005B6F03F00203002BF0D015E0244B0022E0
:103DB0001A60FFF7BDF8386108E0FFF7B9F802466E
:103DC0003B69D31A022B01D9032344E11A4B5B6FE1
:103DD00003F00203002BF0D17B681B6803F004039F
:103DE000002B00F0A0800023FB75134B1B6C03F02D
:103DF0008053002B0FD10023BB600F4B1B6C0E4A6E
:103E000043F0805313640C4B1B6C03F08053BB6076
:103E1000BB680123FB750B4B1B6803F48073002BFD
:103E200021D1084B1B68074A43F480731360FFF7E6
:103E30007FF8386111E000BF0038024000004742BF
:103E4000800E474200700040FFF772F802463B695F
:103E5000D31A022B01D90323FDE0814B1B6803F425
:103E60008073002BF0D07B689B68012B06D17D4BC3
:103E70001B6F7C4A43F0010313671CE07B689B685F
:103E8000052B0CD1774B1B6F764A43F00403136765
:103E9000744B1B6F734A43F0010313670BE0714BC4
:103EA0001B6F704A23F0010313676E4B1B6F6D4A43
:103EB00023F0040313677B689B68002B15D0FFF782
:103EC00037F838610AE0FFF733F802463B69D31A46
:103ED00041F28832934201D90323BCE0614B1B6F4E
:103EE00003F00203002BEED014E0FFF721F8386155
:103EF0000AE0FFF71DF802463B69D31A41F2883207
:103F0000934201D90323A6E0564B1B6F03F0020333
:103F1000002BEED1FB7D012B05D1524B1B6C514A7E
:103F200023F0805313647B689B69002B00F0928020
:103F30004C4B9B6803F00C03082B5CD07B689B699F
:103F4000022B41D1484B00221A60FEF7F1FF386185
:103F500008E0FEF7EDFF02463B69D31A022B01D9B8
:103F6000032378E03F4B1B6803F00073002BF0D174
:103F70007B68DA697B681B6A1A437B685B6A9B0112
:103F80001A437B689B6A5B08013B1B041A437B68EE
:103F9000DB6A1B06334913434B60334B01221A6023
:103FA000FEF7C6FF386108E0FEF7C2FF02463B6934
:103FB000D31A022B01D903234DE02A4B1B6803F0CF
:103FC0000073002BF0D045E0274B00221A60FEF76B
:103FD000AFFF386108E0FEF7ABFF02463B69D31A3A
:103FE000022B01D9032336E01E4B1B6803F000733C
:103FF000002BF0D12EE07B689B69012B01D10123BE
:1040000029E0184B5B68FB60FB6803F480027B6867
:10401000DB699A421CD1FB6803F03F027B681B6A94
:104020009A4215D1FA6847F6C07313407A68526A0B
:1040300093420DD1FB6803F440327B689B6A9A423D
:1040400006D1FB6803F070627B68DB6A9A4201D09C
:10405000012300E0002318461837BD4680BD00BF8D
:1040600000700040003802406000474280B584B0D4
:1040700000AF786039607B68002B01D10123CCE070
:10408000684B1B6803F00F033A689A420CD9654BE2
:104090003A68D2B21A70634B1B6803F00F033A6898
:1040A0009A4201D00123B8E07B681B6803F0020349
:1040B000002B20D07B681B6803F00403002B05D085
:1040C000594B9B68584A43F4E05393607B681B68E4
:1040D00003F00803002B05D0534B9B68524A43F46E
:1040E00060439360504B9B6823F0F0027B689B68B1
:1040F0004D4913438B607B681B6803F00103002B61
:1041000044D07B685B68012B07D1474B1B6803F4E5
:104110000033002B19D101237FE07B685B68022B01
:1041200003D07B685B68032B07D13F4B1B6803F010
:104130000073002B09D101236FE03B4B1B6803F098
:104140000203002B01D1012367E0374B9B6823F06A
:1041500003027B685B68344913438B60FEF7E8FE1B
:10416000F8600AE0FEF7E4FE0246FB68D31A41F26B
:104170008832934201D903234FE02B4B9B6803F015
:104180000C027B685B689B009A42EBD1254B1B6855
:1041900003F00F033A689A420CD2224B3A68D2B22B
:1041A0001A70204B1B6803F00F033A689A4201D043
:1041B000012332E07B681B6803F00403002B08D066
:1041C000194B9B6823F4E0527B68DB681649134364
:1041D0008B607B681B6803F00803002B09D0124B2F
:1041E0009B6823F460427B681B69DB000E49134324
:1041F0008B6000F021F801460B4B9B681B0903F014
:104200000F030A4AD35C21FA03F3094A1360094BEE
:104210001B681846FEF748FE002318461037BD46B7
:1042200080BD00BF003C024000380240D07E000844
:10423000880100208C010020F0B585B000AF00237C
:104240007B600023FB6000233B600023BB60634B6B
:104250009B6803F00C03042B07D0082B08D0002B1D
:1042600040F0B4805E4BBB60B3E05E4BBB60B0E03F
:104270005A4B5B6803F03F037B60584B5B6803F469
:104280008003002B4AD0554B5B689B094FF000041C
:1042900040F2FF114FF0000203EA010504EA0206B2
:1042A000294632464FF000034FF00004540144EA1F
:1042B000D1644B0119462246491B62EB06024FF0BE
:1042C00000034FF00004940144EA91648B015B1AEF
:1042D00064EB02044FF000014FF00002E20042EAFA
:1042E0005372D9000B4614465B1944EB06044FF099
:1042F00000014FF00002620242EAD35259020B461B
:104300001446184621467B684FF000041A4623469F
:10431000FCF74AFC03460C46FB6049E02F4B5B6808
:104320009B094FF0000440F2FF114FF0000203EA36
:10433000010504EA0206294632464FF000034FF019
:104340000004540144EAD1644B0119462246491B3A
:1043500062EB06024FF000034FF00004940144EAC0
:1043600091648B015B1A64EB02044FF000014FF083
:104370000002E20042EA5372D9000B4614465B1970
:1043800044EB06044FF000014FF00002A20242EAA3
:10439000935299020B461446184621467B684FF00B
:1043A00000041A462346FCF7FFFB03460C46FB605D
:1043B0000A4B5B681B0C03F0030301335B003B609B
:1043C000FA683B68B2FBF3F3BB6002E0044BBB60EE
:1043D00000BFBB6818461437BD46F0BD0038024028
:1043E0000024F40000127A0080B582B000AF78603B
:1043F0007B68002B01D1012356E07B6800229A6282
:104400007B6893F85130DBB2002B06D17B68002229
:1044100083F850207868FEF73DFB7B68022283F822
:1044200051207B681B681A687B681B6822F0400279
:104430001A607B685A687B689B681A437B68DB68F4
:104440001A437B681B691A437B685B691A437B6864
:104450009B6903F400731A437B68DB691A437B682A
:104460001B6A42EA03017B689A6A7B681B680A43FD
:104470001A607B689B691B0C03F004017B685A6A15
:104480007B681B680A435A607B681B68DA697B6833
:104490001B6822F40062DA617B6800225A657B683F
:1044A000012283F85120002318460837BD4680BDFD
:1044B00080B487B000AFF860B9601346FB8000237A
:1044C000FB75FB6893F85030012B01D1022367E0A4
:1044D000FB68012283F85020BB68002B02D0FB88C8
:1044E000002B02D10123FB7555E0FB6893F8513096
:1044F000DBB2012B02D00223FB754CE0FB680322E8
:1045000083F85120FB6800225A65FB68BA681A6379
:10451000FB68FA889A86FB68FA88DA86FB680022CC
:104520009A63FB6800229A87FB680022DA87FB689F
:1045300000221A64FB68DB68002B03D0FB681B4A6F
:104540005A6402E0FB681A4A5A64FB689B68B3F538
:10455000004F07D1FB681B681A68FB681B6842F4B0
:1045600080421A60FB681B685A68FB681B6842F04F
:10457000A0025A60FB681B681B6803F04003402BD5
:1045800008D0FB681B681A68FB681B6842F0400291
:104590001A6000E000BFFB68002283F85020FB7D1A
:1045A00018461C37BD465DF8047B70474B48000831
:1045B0000548000880B588B000AF78607B681B684C
:1045C0005B68FB617B681B689B68BB61BB699B097F
:1045D00003F00103002B0FD1BB6903F00103002B93
:1045E0000AD0FB699B0903F00103002B04D07B6810
:1045F0001B6C78689847D8E0BB695B0803F001033F
:10460000002B0AD0FB69DB0903F00103002B04D067
:104610007B685B6C78689847C7E0BB695B0903F00F
:104620000103002B0CD1BB699B0903F00103002B94
:1046300006D1BB691B0A03F00103002B00F0B58013
:10464000FB695B0903F00103002B00F0AE80BB693E
:104650009B0903F00103002B23D07B6893F85130B2
:10466000DBB2032B11D07B685B6D43F004027B68E7
:104670005A6500237B617B681B68DB687B617B6814
:104680001B689B687B617B690BE000233B617B6857
:104690001B68DB683B617B681B689B683B613B690F
:1046A00083E0BB695B0903F00103002B14D07B6836
:1046B0005B6D43F001027B685A650023FB607B68F9
:1046C0001B689B68FB607B681B681A687B681B68BB
:1046D00022F040021A60FB68BB691B0A03F0010369
:1046E000002B0CD07B685B6D43F008027B685A6539
:1046F0000023BB607B681B689B68BB60BB687B68F2
:104700005B6D002B50D07B681B685A687B681B6808
:1047100022F0E0025A607B68012283F85120FB6995
:1047200003F00203002B04D1FB6903F00103002B0B
:1047300034D07B681B685A687B681B6822F00302D0
:104740005A607B68DB6C002B11D07B68DB6C184AED
:104750001A657B68DB6C1846FEF7F0FD0346002BFC
:1047600005D07B685B6D43F040027B685A657B68CF
:104770009B6C002B16D07B689B6C0D4A1A657B687E
:104780009B6C1846FEF7DAFD0346002B0AD07B68C7
:104790005B6D43F040027B685A6503E0786800F087
:1047A00013F800E000BF00BF00BF2037BD4680BD4A
:1047B000DD47000880B483B000AF786000BF0C37DD
:1047C000BD465DF8047B704780B483B000AF78606D
:1047D00000BF0C37BD465DF8047B704780B584B0E0
:1047E00000AF78607B689B6BFB60FB680022DA8718
:1047F000FB680022DA86F868FFF7E6FF00BF103793
:10480000BD4680BD80B582B000AF78607B681A6B12
:104810007B681B680C3312781A707B681B6B5A1C00
:104820007B681A637B68DB8E9BB2013B9AB27B6824
:10483000DA867B68DB8E9BB2002B02D1786800F0B1
:10484000D3F800BF0837BD4680BD80B582B000AF49
:1048500078607B681B6B1A887B681B68DA607B68F2
:104860001B6B9A1C7B681A637B68DB8E9BB2013BD7
:104870009AB27B68DA867B68DB8E9BB2002B02D112
:10488000786800F0B1F800BF0837BD4680BD80B53C
:1048900084B000AFF860B9603B601346FB714CE038
:1048A0003B68B3F1FF3F48D0FEF742FB0246BB69CD
:1048B000D31A3A689A4202D93B68002B3DD1FB6873
:1048C0001B685A68FB681B6822F0E0025A60FB68AC
:1048D0005B68B3F5827F11D1FB689B68B3F5004F2D
:1048E00004D0FB689B68B3F5806F07D1FB681B6839
:1048F0001A68FB681B6822F040021A60FB689B6A1A
:10490000B3F5005F0FD1FB681B681A68FB681B6872
:1049100022F400521A60FB681B681A68FB681B6867
:1049200042F400521A60FB68012283F85120FB68B0
:10493000002283F8502003230FE0FB681B689A686D
:10494000BB681340BA689A420CBF01230023DBB254
:104950001A46FB799A42A3D1002318461037BD4668
:1049600080BD000080B588B002AFF860B9607A60A1
:104970001B4B1B681B4AA2FB03235B0D4FF47A728F
:1049800002FB03F37B61FB685B68B3F5827F12D1A6
:104990007B680093BB6800228021F868FFF777FFEF
:1049A0000346002B16D0FB685B6D43F02002FB68CA
:1049B0005A6503230FE07B69002B0AD07B69013B1A
:1049C0007B61FB681B689B6803F08003802BF2D03F
:1049D00000E000BF002318461837BD4680BD00BF69
:1049E00088010020819F5E1680B586B000AF786098
:1049F0002C4B1B682C4AA2FB03235B0A642202FB9C
:104A000003F33B61FEF794FA78613B69002B06D112
:104A10007B685B6D43F020027B685A6509E03B6967
:104A2000013B3B617B681B689B6803F00203002B22
:104A3000EBD07B681B685A687B681B6822F0A00279
:104A40005A607A6964217868FFF78CFF0346002B6F
:104A500005D07B685B6D43F020027B685A657B68FC
:104A60009B68002B0AD10023FB607B681B68DB6816
:104A7000FB607B681B689B68FB60FB687B680122AE
:104A800083F851207B685B6D002B03D07868FFF7BB
:104A90009BFE02E07868FFF78DFE00BF1837BD4629
:104AA00080BD00BF88010020F119760580B582B075
:104AB00000AF78607B68002B01D101231DE07B688B
:104AC00093F83D30DBB2002B06D17B68002283F8DF
:104AD0003C207868FEF780F87B68022283F83D204E
:104AE0007B681A687B6804331946104600F0D2FBD5
:104AF0007B68012283F83D20002318460837BD4615
:104B000080BD80B485B000AF78607B681B68DA68D0
:104B10007B681B6842F00102DA607B681B689B6857
:104B200003F00703FB60FB68062B07D07B681B685C
:104B30001A687B681B6842F001021A60002318465D
:104B40001437BD465DF8047B704780B483B000AF76
:104B500078607B681B68DA687B681B6822F001025A
:104B6000DA607B681B681A6A41F211131340002B4C
:104B70000FD17B681B681A6A40F244431340002B34
:104B800007D17B681B681A687B681B6822F00102EA
:104B90001A60002318460C37BD465DF8047B704749
:104BA00080B582B000AF78607B68002B01D1012313
:104BB0001DE07B6893F83D30DBB2002B06D17B68AB
:104BC000002283F83C20786800F015F87B68022208
:104BD00083F83D207B681A687B68043319461046C9
:104BE00000F058FB7B68012283F83D200023184623
:104BF0000837BD4680BD80B483B000AF786000BF89
:104C00000C37BD465DF8047B7047000080B584B06A
:104C100000AF786039607B681B68012239681846EC
:104C200000F022FE7B681B68154A934204D07B6823
:104C30001B68144A934201D1012300E00023002B9A
:104C400007D07B681B685A6C7B681B6842F4004283
:104C50005A647B681B689B6803F00703FB60FB6872
:104C6000062B07D07B681B681A687B681B6842F0BC
:104C700001021A60002318461037BD4680BD00BFF0
:104C8000000001400004014080B582B000AF7860B0
:104C900039607B681B6800223968184600F0E4FD23
:104CA0007B681B68224A934204D07B681B68214AB8
:104CB000934201D1012300E00023002B17D07B6831
:104CC0001B681A6A41F211131340002B0FD17B6845
:104CD0001B681A6A40F244431340002B07D17B68DB
:104CE0001B685A6C7B681B6822F400425A647B681C
:104CF0001B681A6A41F211131340002B0FD17B6815
:104D00001B681A6A40F244431340002B07D17B68AA
:104D10001B681A687B681B6822F001021A607B68B6
:104D2000012283F83D20002318460837BD4680BD88
:104D3000000001400004014080B582B000AF7860FF
:104D40007B681B681B6903F00203022B22D17B687E
:104D50001B68DB6803F00203022B1BD17B681B6816
:104D60006FF002021A617B6801221A777B681B6868
:104D70009B6903F00303002B03D0786800F06BFA03
:104D800005E0786800F05DFA786800F06EFA7B68FC
:104D900000221A777B681B681B6903F00403042B4D
:104DA00022D17B681B68DB6803F00403042B1BD152
:104DB0007B681B686FF004021A617B6802221A7715
:104DC0007B681B689B6903F44073002B03D07868F1
:104DD00000F041FA05E0786800F033FA786800F0F6
:104DE00044FA7B6800221A777B681B681B6903F012
:104DF0000803082B22D17B681B68DB6803F00803DB
:104E0000082B1BD17B681B686FF008021A617B6856
:104E100004221A777B681B68DB6903F00303002B0D
:104E200003D0786800F017FA05E0786800F009FA16
:104E3000786800F01AFA7B6800221A777B681B6892
:104E40001B6903F01003102B22D17B681B68DB6801
:104E500003F01003102B1BD17B681B686FF010024E
:104E60001A617B6808221A777B681B68DB6903F488
:104E70004073002B03D0786800F0EDF905E0786806
:104E800000F0DFF9786800F0F0F97B6800221A770B
:104E90007B681B681B6903F00103012B0ED17B6843
:104EA0001B68DB6803F00103012B07D17B681B68DB
:104EB0006FF001021A617868FDF708FB7B681B68D8
:104EC0001B6903F08003802B0ED17B681B68DB68B5
:104ED00003F08003802B07D17B681B686FF0800292
:104EE0001A61786800F06CFD7B681B681B6903F031
:104EF0004003402B0ED17B681B68DB6803F0400346
:104F0000402B07D17B681B686FF040021A617868FC
:104F100000F0B5F97B681B681B6903F02003202BA8
:104F20000ED17B681B68DB6803F02003202B07D1C0
:104F30007B681B686FF020021A61786800F036FD0C
:104F400000BF0837BD4680BD80B584B000AFF860B3
:104F5000B9607A60FB6893F83C30012B01D10223E1
:104F6000B4E0FB68012283F83C20FB68022283F84E
:104F70003D207B680C2B00F29F8001A252F823F0A9
:104F8000B54F0008B9500008B9500008B9500008E2
:104F9000F54F0008B9500008B9500008B950000892
:104FA00037500008B9500008B9500008B95000083F
:104FB00077500008FB681B68B968184600F00AFAC9
:104FC000FB681B689A69FB681B6842F008029A61DB
:104FD000FB681B689A69FB681B6822F004029A61EF
:104FE000FB681B689969BB681A69FB681B680A4300
:104FF0009A6162E0FB681B68B968184600F05AFACB
:10500000FB681B689A69FB681B6842F400629A613E
:10501000FB681B689A69FB681B6822F480629A61CE
:10502000FB681B689969BB681B691A02FB681B68EF
:105030000A439A6141E0FB681B68B968184600F0B2
:10504000AFFAFB681B68DA69FB681B6842F008026C
:10505000DA61FB681B68DA69FB681B6822F00402EE
:10506000DA61FB681B68D969BB681A69FB681B6851
:105070000A43DA6121E0FB681B68B968184600F052
:1050800003FBFB681B68DA69FB681B6842F400627B
:10509000DA61FB681B68DA69FB681B6822F48062CE
:1050A000DA61FB681B68D969BB681B691A02FB6877
:1050B0001B680A43DA6100E000BFFB68012283F845
:1050C0003D20FB68002283F83C200023184610375F
:1050D000BD4680BD80B584B000AF786039607B6824
:1050E00093F83C30012B01D10223A6E07B6801221A
:1050F00083F83C207B68022283F83D207B681B6894
:105100009B68FB60FB6823F07703FB60FB6823F47C
:105110007F43FB607B681B68FA689A603B681B688A
:10512000402B67D0402B0BD8102B73D0102B02D8FC
:10513000002B6FD078E0202B6CD0302B6AD073E03E
:10514000702B0DD0702B04D8502B33D0602B41D056
:105150006AE0B3F5805F66D0B3F5005F17D063E017
:105160007B6818683B6899683B685A683B68DB68ED
:1051700000F05AFB7B681B689B68FB60FB6843F090
:105180007703FB607B681B68FA689A604CE07B6879
:1051900018683B6899683B685A683B68DB6800F0B0
:1051A00043FB7B681B689A687B681B6842F48042FB
:1051B0009A6039E07B6818683B6859683B68DB682F
:1051C0001A4600F0B7FA7B681B685021184600F0B9
:1051D00010FB29E07B6818683B6859683B68DB680E
:1051E0001A4600F0D6FA7B681B686021184600F06A
:1051F00000FB19E07B6818683B6859683B68DB680E
:105200001A4600F097FA7B681B684021184600F0A8
:10521000F0FA09E07B681A683B681B68194610467B
:1052200000F0E7FA00E000BF7B68012283F83D2030
:105230007B68002283F83C20002318461037BD46C7
:1052400080BD80B483B000AF786000BF0C37BD462E
:105250005DF8047B704780B483B000AF786000BF16
:105260000C37BD465DF8047B704780B483B000AF57
:10527000786000BF0C37BD465DF8047B704780B492
:1052800083B000AF786000BF0C37BD465DF8047B8B
:105290007047000080B485B000AF786039607B68EB
:1052A0001B68FB607B68404A934213D07B68B3F174
:1052B000804F0FD07B683D4A93420BD07B683C4ABD
:1052C000934207D07B683B4A934203D07B683A4ABB
:1052D000934208D1FB6823F07003FB603B685B6876
:1052E000FA681343FB607B682F4A93422BD07B689C
:1052F000B3F1804F27D07B682C4A934223D07B6840
:105300002B4A93421FD07B682A4A93421BD07B686A
:10531000294A934217D07B68284A934213D07B686E
:10532000274A93420FD07B68264A93420BD07B6872
:10533000254A934207D07B68244A934203D07B6876
:10534000234A934208D1FB6823F44073FB603B6817
:10535000DB68FA681343FB60FB6823F080023B685C
:105360005B691343FB607B68FA681A603B689A6864
:105370007B68DA623B681A687B689A627B680A4AD3
:10538000934203D07B680C4A934203D13B681A696D
:105390007B681A637B6801225A6100BF1437BD46DF
:1053A0005DF8047B704700BF00000140000400402E
:1053B00000080040000C0040000401400040014093
:1053C000004401400048014000180040001C00401B
:1053D0000020004080B487B000AF786039607B68FF
:1053E0001B6A23F001027B681A627B681B6A7B617F
:1053F0007B685B683B617B689B69FB60FB6823F0B3
:105400007003FB60FB6823F00303FB603B681B68D1
:10541000FA681343FB607B6923F002037B613B68FE
:105420009B687A6913437B617B68204A934203D06F
:105430007B681F4A93420CD17B6923F008037B6190
:105440003B68DB687A6913437B617B6923F0040363
:105450007B617B68154A934203D07B68144A934270
:1054600011D13B6923F480733B613B6923F40073E2
:105470003B613B685B693A6913433B613B689B69ED
:105480003A6913433B617B683A695A607B68FA6802
:105490009A613B685A687B685A637B687A691A62CA
:1054A00000BF1C37BD465DF8047B7047000001401B
:1054B0000004014080B487B000AF786039607B6839
:1054C0001B6A23F010027B681A627B681B6A7B618F
:1054D0007B685B683B617B689B69FB60FB6823F4CE
:1054E000E043FB60FB6823F44073FB603B681B6890
:1054F0001B02FA681343FB607B6923F020037B6186
:105500003B689B681B017A6913437B617B68224A75
:10551000934203D07B68214A93420DD17B6923F0EB
:1055200080037B613B68DB681B017A6913437B6105
:105530007B6923F040037B617B68174A934203D069
:105540007B68164A934213D13B6923F480633B6125
:105550003B6923F400633B613B685B699B003A69EC
:1055600013433B613B689B699B003A6913433B6172
:105570007B683A695A607B68FA689A613B685A6846
:105580007B689A637B687A691A6200BF1C37BD46E4
:105590005DF8047B704700BF00000140000401403B
:1055A00080B487B000AF786039607B681B6A23F4F1
:1055B00080727B681A627B681B6A7B617B685B68B0
:1055C0003B617B68DB69FB60FB6823F07003FB6079
:1055D000FB6823F00303FB603B681B68FA68134316
:1055E000FB607B6923F400737B613B689B681B0253
:1055F0007A6913437B617B68214A934203D07B68BD
:10560000204A93420DD17B6923F400637B613B68A0
:10561000DB681B027A6913437B617B6923F4806337
:105620007B617B68164A934203D07B68154A93429C
:1056300013D13B6923F480533B613B6923F400534E
:105640003B613B685B691B013A6913433B613B6803
:105650009B691B013A6913433B617B683A695A6055
:105660007B68FA68DA613B685A687B68DA637B6852
:105670007A691A6200BF1C37BD465DF8047B70472B
:10568000000001400004014080B487B000AF7860A2
:1056900039607B681B6A23F480527B681A627B68DE
:1056A0001B6A3B617B685B687B617B68DB69FB60D5
:1056B000FB6823F4E043FB60FB6823F44073FB606A
:1056C0003B681B681B02FA681343FB603B6923F4C9
:1056D00000533B613B689B681B033A6913433B6182
:1056E0007B68124A934203D07B68114A934209D1E6
:1056F0007B6923F480437B613B685B699B017A692A
:1057000013437B617B687A695A607B68FA68DA6167
:105710003B685A687B681A647B683A691A6200BF02
:105720001C37BD465DF8047B704700BF0000014098
:105730000004014080B487B000AFF860B9607A60BF
:10574000FB681B6A7B61FB681B6A23F00102FB6834
:105750001A62FB689B693B613B6923F0F0033B6184
:105760007B681B013A6913433B617B6923F00A03A1
:105770007B617A69BB6813437B61FB683A699A6114
:10578000FB687A691A6200BF1C37BD465DF8047B6E
:10579000704780B487B000AFF860B9607A60FB688A
:1057A0001B6A23F01002FB681A62FB689B697B612D
:1057B000FB681B6A3B617B6923F470437B617B68F8
:1057C0001B037A6913437B613B6923F0A0033B61B0
:1057D000BB681B013A6913433B61FB687A699A61B4
:1057E000FB683A691A6200BF1C37BD465DF8047B4E
:1057F000704780B485B000AF786039607B689B6883
:10580000FB60FB6823F07003FB603A68FB6813439E
:1058100043F00703FB607B68FA689A6000BF1437A7
:10582000BD465DF8047B704780B487B000AFF86078
:10583000B9607A603B60FB689B687B617B6923F49D
:105840007F437B613B681A027B681A43BB68134342
:105850007A6913437B61FB687A699A6000BF1C37E1
:10586000BD465DF8047B704780B487B000AFF86038
:10587000B9607A60BB6803F01F03012202FA03F3E8
:105880007B61FB681A6A7B69DB431A40FB681A621A
:10589000FB681A6ABB6803F01F03796801FA03F317
:1058A0001A43FB681A6200BF1C37BD465DF8047BD3
:1058B0007047000080B485B000AF786039607B68C5
:1058C00093F83C30012B01D102235AE07B6801227E
:1058D00083F83C207B68022283F83D207B681B68AC
:1058E0005B68FB607B681B689B68BB60FB6823F0A0
:1058F0007003FB603B681B68FA681343FB607B68BE
:105900001B68FA685A607B681B68214A934222D060
:105910007B681B68B3F1804F1DD07B681B681D4AF4
:10592000934218D07B681B681B4A934213D07B6854
:105930001B681A4A93420ED07B681B68184A934230
:1059400009D07B681B68174A934204D07B681B68A8
:10595000154A93420CD1BB6823F08003BB603B68BF
:105960005B68BA681343BB607B681B68BA689A605F
:105970007B68012283F83D207B68002283F83C206D
:10598000002318461437BD465DF8047B704700BFFE
:10599000000001400004004000080040000C0040EE
:1059A00000040140004001400018004080B483B072
:1059B00000AF786000BF0C37BD465DF8047B7047D0
:1059C00080B483B000AF786000BF0C37BD465DF88F
:1059D000047B7047014B1868704700BF940100209A
:1059E00070B50D4E0D4CA41BA4100025A54209D185
:1059F0000B4E0C4C02F05CF8A41BA4100025A54231
:105A000005D170BD56F8253098470135EEE756F8B8
:105A1000253098470135F2E7508100085081000891
:105A2000508100085481000802440346934200D18B
:105A3000704703F8011BF9E72DE9FF4755EC104BC0
:105A40000D9FDDF830A0002D0E4691461946B8BFD7
:105A500022462B4627F02007BBBF05F100431D4619
:105A600000232D23B8BF1446462F0B7004D0452FBA
:105A700000D10136022100E0032103AB019302AB08
:105A800000933246534645EC104B00F0DDFC472FA7
:105A9000804602D119F0010F26D0462F08EB0609E7
:105AA00011D198F80030302B0AD100220023204673
:105AB0002946FBF709F818B9C6F10106CAF80060D3
:105AC000DAF8003099440022002320462946FAF7EC
:105AD000FBFF38B93022039B4B4505D2591C03917B
